:020000040800F2
:10000000F8320120490300087D2F0008792C0008F0
:10001000792F0008F11E0008DD46000800000000EE
:10002000000000000000000000000000890200083D
:10003000BD22000800000000E5020008E1340008CD
:1000400063030008630300086303000863030008F8
:10005000630300086303000863030008C12200086B
:1000600063030008630300086303000863030008D8
:1000700063030008630300086303000863030008C8
:1000800063030008630300086303000863030008B8
:1000900063030008630300086303000863030008A8
:1000A0006303000863030008630300086303000898
:1000B0006303000863030008630300086303000888
:1000C0006303000863030008630300086303000878
:1000D0006303000863030008C13B0008ED3C00080F
:1000E0006303000863030008630300086303000858
:1000F0006303000863030008630300086303000848
:100100006303000863030008630300086303000837
:100110006303000863030008630300086303000827
:100120006303000863030008630300086303000817
:100130006303000863030008630300086303000807
:1001400063030008630300086303000863030008F7
:1001500063030008630300086303000863030008E7
:1001600063030008630300086303000863030008D7
:1001700063030008630300086303000863030008C7
:10018000630300086303000800F002F800F06CF855
:100190000AA090E8000C82448344AAF10107DA45E2
:1001A00001D100F061F8AFF2090EBAE80F0013F0C8
:1001B000010F18BFFB1A43F001031847B89B00005A
:1001C000D89B00000A444FF0000C10F8013B13F0DC
:1001D000070408BF10F8014B1D1108BF10F8015BA0
:1001E000641E05D010F8016B641E01F8016BF9D193
:1001F00013F0080F1EBF10F8014BAD1C0C1B09D1EA
:100200006D1E58BF01F801CBFAD505E014F8016B5B
:1002100001F8016B6D1EF9D59142D6D370470000ED
:100220000023002400250026103A28BF78C1FBD8FF
:10023000520728BF30C148BF0B607047662909F0DC
:10024000A484642900F0B480002070471FB509F031
:1002500092FC00F0E1FC04000020002108F0D6FF31
:10026000E0601FBD10B510BD00F0DAFD1146FFF7CC
:10027000EDFF05F0D9FA00F0F8FD03B4FFF7F2FF47
:1002800003BC00F03BFE00002C4B19680868B0E886
:10029000F04F80F30988BFF36F8F4FF0000080F3B9
:1002A000118870470000000008480068006880F36B
:1002B00008884FF0000080F3148862B661B6BFF37F
:1002C0004F8FBFF36F8F00DF00BF00BF08ED00E06E
:1002D000DFF80C00016841F470010160704700BF55
:1002E00088ED00E0EFF30980BFF36F8F134B1A68BE
:1002F0001EF0100F08BF20ED108A20E9F04F1060AB
:1003000009B44FF0500080F31188BFF34F8FBFF353
:100310006F8F07F085FF4FF0000080F3118809BC54
:1003200019680868B0E8F04F1EF0100F08BFB0EC75
:10033000108A80F30988BFF36F8F70478401002013
:10034000EFF30580704700000948804709480047DF
:10035000FEE7FEE7FEE7FEE7FEE7FEE7FEE7FEE775
:10036000FEE7FEE704480549054A064B70470000D2
:100370001535000889010008F82C0120F832012009
:10038000F82E0120F82E01200FB41CB5074B06AA49
:100390007B4469460090059800F0D1FB0020694637
:1003A00000F0E0FB1CBC5DF814FB0000D10700006E
:1003B0002DE9F0410646002410687529314616A53E
:1003C00010D0AFF30080002802DA404213A507E006
:1003D00031688A0701D512A502E0490704D511A5A5
:1003E000012401E0AFF3008000210A2206F1240776
:1003F00009E0B0FBF2FCB0FBF2F302FB1C00303072
:1004000078541846491C0028F3D123462A46304622
:10041000BDE8F04100F026B9000000002D0000000A
:100420002B000000200000002DE9F05F8946044603
:100430004FF0000ADFF824B1FB44C0F820A02046AA
:10044000E168884700287DD0252806D0D4E901211D
:100450009047206A401C2062F1E700255F46204655
:10046000E16888472028064607DB312E05D2B819F7
:1004700010F8200C08B10543F1E7A80701D525F0D5
:100480000405C4F81CA00027C4F818A02A2E09D01F
:10049000304604F0A9FC38B304EB8708303EC8F8B6
:1004A000186019E059F8041B204604EB870291619B
:1004B000E1688847012F064618D1E069002820DA54
:1004C00025F020051DE0D8F8180000EB800006EBB1
:1004D00040003038C8F818002046E16888470646D2
:1004E00004F082FC0028EED1012F0AD02E2E08D174
:1004F0002046E16888477F1C0646022F45F020050C
:10050000C4DBA069002803DA404245F00105A06180
:10051000E80701D025F01005A6B1A6F14100192881
:1005200002D8203645F400654A463146204625600B
:100530004D46FFF783FE60B1012807D0ED1D25F081
:10054000070000E007E000F1080978E705F1040979
:1005500075E730467AE7206ABDE8F09F52970000C1
:10056000032A40F2308010F0030C00F0158011F8DF
:10057000013BBCF1020F624498BF11F801CB00F8B7
:10058000013B38BF11F8013BA2F1040298BF00F80B
:1005900001CB38BF00F8013B11F0030300F0E78204
:1005A000083AC0F0088051F8043B083A51F804CBEF
:1005B000A0E80810F5E7121D5CBF51F8043B40F8B5
:1005C000043BAFF30080D20724BF11F8013B11F8C0
:1005D00001CB48BF11F8012B24BF00F8013B00F804
:1005E00001CB48BF00F8012B704702F0FF0343EA3C
:1005F000032242EA024200F0EEBA4FF0000200B5D8
:10060000134694469646203922BFA0E80C50A0E835
:100610000C50B1F12001BFF4F7AF090728BFA0E8E3
:100620000C5048BF0CC05DF804EB890028BF40F8AF
:10063000042B08BF704748BF20F8022B11F0804FF1
:1006400018BF00F8012B704770477047704710B50E
:1006500000F0E6FA006810BD10B5044600F0E0FABC
:10066000046010BD2DE9F0470D46994692460446B8
:1006700000F124080168880604D5E06921F0100122
:10068000216000E00120A84201DD471B00E00027B7
:10069000A1697A1902EB0900081AA0612078C00646
:1006A00002D42046AFF30080002608E0D4E90121FF
:1006B0001AF806009047206A401C761C20624E45BE
:1006C000F4DB2078C0060AD52046AFF3008006E0B0
:1006D000D4E9012130209047206A401C2062381E56
:1006E000A7F10107F4DC07E0D4E9012118F80500BF
:1006F0009047206A401C2062281EA5F10105F3DC0A
:100700002046AFF300802078000602D50220BDE825
:10071000F0870120FBE770472DE9FF4F0C461E468E
:100720004FF0FF378BB0D2E90001DDF860800A900E
:100730008A46C1F30A5505B93D46002108464FF0E7
:100740000000BAF1000F00F4400005DA00EB800071
:100750004FF4400101EA50004FEA9059B9F1010FFE
:1007600000DDB9460A9850EA4A000ED044F610500F
:10077000A5F2FF3545432F14B8F1000F1ED0754286
:10078000291E1EDDC9F100021CE0B8F1010F4FF077
:10079000000001D0302103E0F24305E02154401C69
:1007A000B042FBDB30460022002121540B99C1F8F6
:1007B0000880C1E900200FB0BDE8F08FBD1B6D1CA3
:1007C000DEE74A4600DA694206A800F0B3FA06AB53
:1007D00093E8070003AB83E8070050460A9900F04E
:1007E00094FB8DE80700A0F500501F380090039897
:1007F000002D0ADD42F21F014A460844002303A9E6
:100800000390684600F0FDFD09E0A0F500504A465F
:100810001F38002303A90390684600F007FE8DE807
:1008200007000004000C03D04FF0FF30410800E047
:100830001046B8F1000F03D00022009215461EE0CA
:10084000751E05D400F0F0F9303262556D1EF9D5F1
:10085000B3460122084302D000227F1C04E0207826
:10086000302801D100227F1E002A099784D01DE084
:10087000112D07DA00F0D8F9303262556D1C50EABC
:100880000102F5D1084302D00098C8B10EE0002162
:10089000681E05E0235C625C63542254401E491CC0
:1008A0008142F7DBAB46A81B401E0990002004F8EC
:1008B0000B000B98099AC0F80880C0E9002B7AE772
:1008C00011264FF0000857E72DE9F04F88460446FF
:1008D000D21D22F0070191B0D1E90001CDE90A0152
:1008E00003F0FEFE02460B98C00F01D02D2007E05A
:1008F0002068810701D52B2002E0202101EAC000F9
:10090000032A099001D0072A05DB03464146204609
:1009100000F0D0F90BE12078800601D5E06900E015
:100920000620B8F1650F814606D0B8F1660F18D0E1
:10093000B8F1670F70D131E00020B9F1110F0090CC
:1009400001DB112301E009F101030AAA01A90CA8A6
:10095000FFF7E2FEDDE90C70002609F10105834690
:1009600047E001204B4600904FF000470AAA01A93A
:100970000CA8FFF7D1FEDDE90DB00C995D4600260D
:1009800010B909F101000D18B9EB050003D4C0F14D
:10099000FF3609F10105A5EB09002BE0B9F1010FC4
:1009A00001DA4FF001090020B9F1110F009048461B
:1009B00001DD112300E003460AAA01A90CA8FFF7F4
:1009C000ABFEDDE90C704D4600268346207800071B
:1009D0000AD4AB4500DA5D4601A8012D04DD4119BA
:1009E00011F8011C302907D04F4502DA17F1040F26
:1009F00004DA012082460FE06D1EEEE7002F02DCD4
:100A0000ED1B3E4403E0781CA84200DD7D1CB81BB2
:100A100000F1010A4FF000472078000703D4AA45EF
:100A200001DB4FF0FF3A0021B7F1004F0DF1430811
:100A30008DF8431024D002202B23002F01DA7F42AF
:100A40002D230A21021EA0F1010000DC5FB197FBFB
:100A5000F1FC97FBF1F201FB1C7C17460CF1300C0A
:100A600008F801CDEEE7A8F101000370218809051F
:100A700001D5452100E06521A0F1010800F8011C25
:100A800009980FA9A1EB0807FF1D00B1012041192A
:100A900001EBEA70A1693844081A401EA061207871
:100AA000C00602D42046AFF30080099828B1D4E9EB
:100AB00001219047206A401C20622078C00622D580
:100AC0002046AFF300801EE0002E04DBB34502DDBC
:100AD00001A8805D00E03020D4E901219047206A20
:100AE000401C2062761CAAF101005FEA000A0AD1CC
:100AF00000F092F8C0680168405CD4E90121904799
:100B0000206A401C2062281EA5F10105DCDC07E0FC
:100B1000D4E9012118F8010B9047206A401C20629B
:100B2000381EA7F10107F3DC2046AFF30080032055
:100B300011B041E601694A1C02610878704700B5AE
:100B40008FB0CDE901310021059105497944CDE906
:100B5000031011466846FFF767FC0FB000BD0000A8
:100B6000E5FFFFFF0A6802F8010B0A60704710B545
:100B7000203AC0F00B80B1E81850203AA0E8185095
:100B8000B1E81850A0E81850BFF4F5AF5FEA027C56
:100B900024BFB1E81850A0E8185044BF18C918C0C5
:100BA000BDE810405FEA827C24BF51F8043B40F866
:100BB000043B08BF7047D20728BF31F8023B48BF4B
:100BC00011F8012B28BF20F8023B48BF00F8012B89
:100BD00070474FF000020429C0F0128010F0030C9F
:100BE0003FF40DADCCF1040CBCF1020F18BF00F8BE
:100BF000012BA8BF20F8022BA1EB0C01FFF7FFBCD3
:100C00005FEAC17C24BF00F8012B00F8012B48BF2C
:100C100000F8012B7047000000487047B82C0120F5
:100C200000487047982C012030B5B0F10A024FEA15
:100C3000900E71F100034EEA817EB0EB0E0061EB85
:100C400091014FEA101E4EEA017E10EB0E0041EBBF
:100C500011114FEA102E4EEA016E10EB0E0041EB1F
:100C600011214FEA104E4EEA014E10EB0E0041EBFF
:100C70001141401841F100014FEAD00040EA4170B3
:100C80004FEAD10110EB80054FEA810444EA9074E9
:100C900044EB01046D1944EB0404521BA3414FF0D3
:100CA000000348BF0A3200D530BD401C41F10001AD
:100CB00030BD00002DE9F0411F46044603260168BF
:100CC000072A01F4006004DB08B116A505E016A5AB
:100CD00003E008B115A500E015A521F01000206083
:100CE000A069C01EA0610FB1401EA0612046AFF3F5
:100CF00000804FB1D4E9012138469047206A401C5A
:100D00002062C01C206206E0206AFAE7D4E90121D3
:100D100015F8010B9047761EF8D22046AFF30080FD
:100D2000BDE8F0814E414E006E616E00494E4600B6
:100D3000696E66002DE9F047814616468AB035484F
:100D400078440DC88DE80D0032487844801C03AC0F
:100D50000DC884E80D0041F69B300844372190FB14
:100D6000F1F290FBF1F5A5F1800501FB12041B3CAB
:100D700002D56442012000E00020DFF898A0804600
:100D80000027FA44AAF1BE0A0EE0E0070AD0324674
:100D9000684607EB470101230AEB810100F046FB9F
:100DA0008DE8070064107F1C002CEED1194F7F44A2
:100DB000AE3F19E0E80715D007EB04100DF1180A53
:100DC00090E80E008AE80E00C068F04201D1981940
:100DD00008903246012306A903A800F027FB03ABC5
:100DE00083E807006D10641C002DE3D14FF0010370
:100DF00032466946B8F1000F03A802D000F001FBAB
:100E000001E000F013FBC9E90001C9F808200AB0AD
:100E1000BDE8F0871890000000487047982C01202A
:100E20007546FFF7F9FFAE4605006946534620F0C8
:100E30000700854618B020B5FFF794FABDE82040BA
:100E40004FF000064FF000074FF000084FF0000B86
:100E500021F00701AC46ACE8C009ACE8C009ACE839
:100E6000C009ACE8C0098D46704710B50446AFF321
:100E700000802046BDE81040FFF7FFB94FF0013C6D
:100E800050F8042B51F8043B9A4221D1A2EB0C03F9
:100E9000934313EACC1317D150F8042B51F8043BB9
:100EA0009A4215D1A2EB0C03934313EACC130BD156
:100EB00050F8042B51F8043B9A4209D1A2EB0C03E1
:100EC000934313EACC13DBD04FF00000704700BF10
:100ED000D01A01BAB1FA81F101F0180122FA01F039
:100EE000CB40C1F12001DBB2C0B2C01A2CFA01F331
:100EF000D11A914311EAC311E6D170470149182074
:100F0000ABBEFEE72600020070475FEA400C08BF58
:100F100091F0000F4FEA8C234FEAC12243EA51516E
:100F20004FEA1C5018BF00F5F0404FEA300018BFE0
:100F300041F000415FEA6C5C00F02980BCF1FF3FAA
:100F400008BF40F080407047130C06BF12044FF0FA
:100F5000100C4FF0000C130E04BF12020CF1080C21
:100F6000130F04BF12010CF1040C930F04BF920085
:100F70000CF1020CD30F04BF52000CF1010C11460E
:100F80004FF00002A0F11F00A0EB0C00704711F021
:100F9000004F08BF704731F000413FF4D5AF0B0C54
:100FA00006BF09044FF0100C4FF0000C0B0E04BFED
:100FB00009020CF1080C0B0F04BF09010CF1040C21
:100FC0008B0F04BF89000CF1020CCB0F04BF49004A
:100FD0000CF1010CCCF12003A0EB0C0022FA03F37E
:100FE00002FA0CF241EA030100F10100704720F01F
:100FF0007F4C80EA030023F07F47ACEB070303F547
:101000007C5300F0004003F1FF032DE980494FEAD3
:10101000154B09B44FEA144325EA0B4E24EA034862
:101020000FF2042606EB132749083E785FEA3202E6
:1010300003FB0667C7F5000707FB06F64FEA5437C0
:101040004FEAD64606F1020607FB066CCCF1005CBF
:101050004FEA1C472CEA074C07FB06F40CFB06F58D
:1010600004EB15464FEA961634BF00204FF00040BF
:101070004FEAD13706FB07FC4FEA1C4C0CFB0BF781
:10108000D21B03FB0CF761EB07010CFB0EF7B0EB77
:10109000074072EB17420CFB08F734BFA2EB074284
:1010A000B2EB074261EB17414FEA0C444FEA91075C
:1010B00006FB07FC4FEA1C4C0CFB0BF7B0EBC740E0
:1010C00072EB573203FB0CF734BFA2EBC742B2EB13
:1010D000C74261EB57310CFB0EF7B0EBC70072EB68
:1010E00057720CFB08F734BFA2EBC702B2EBC70282
:1010F00061EB5771039F4FEA816141EA921104EB62
:10110000CC044FEAD1374FEA826206FB07FC42EA81
:1011100090124FEA80604FEA1C4C0CFB0BF7D21B7D
:1011200003FB0CF761EB07010CFB0EF7B0EB07407C
:1011300072EB17420CFB08F734BFA2EB0742B2EB8D
:10114000074261EB17414FEA8C554FEA910704EBD8
:101150009C2406FB07FC4FEA1C4C0CFB0BF7B0EB86
:10116000C74072EB573203FB0CF734BFA2EBC74208
:10117000B2EBC74261EB57310CFB0EF7B0EBC70087
:1011800072EB57720CFB08F734BFA2EBC702B2EB4D
:10119000C70261EB577115EB4C254FEA816141EABB
:1011A00092114FEA82624FEAD13742EA901206FB6F
:1011B00007FC44F100044FEA80604FEA1C4C0CFB32
:1011C0000BF7D21B03FB0CF761EB07010CFB0EF7CF
:1011D000B0EB074072EB17420CFB08F734BFA2EBF1
:1011E0000742B2EB074261EB174115EB1C154FEAC2
:1011F000813141EA92414FEA823242EA90424FEA1B
:1012000080304FEA0C7644F1000448EA03434EEA8A
:101210000B484FF0000EB2EB080C71EB030724BF34
:10122000624639464EEB0E0E4FF0000B001852414D
:1012300049414BEB0B0BB2EB080C71EB03077BF155
:10124000000B24BF624639464EEB0E0E4FF0000BEA
:101250000018524149414BEB0B0BB2EB080C71EB00
:1012600003077BF1000B24BF624639464EEB0E0E9E
:1012700051EA020718BF46F0010616EB0E7655F14B
:10128000000254F1000103D5BDE88901BDE80088E2
:10129000BDE88901BDE80048B619524141EB0101A2
:1012A000A3F10103704780807F7E7D7C7B7A797813
:1012B000777676757473727171706F6E6E6D6C6C1B
:1012C0006B6A6A69686867666665646463636261BD
:1012D0006160605F5F5E5E5D5D5C5C5B5B5A5A593E
:1012E00059585857575656555555545453535252AA
:1012F0005251515050504F4F4F4E4E4D4D4D4C4C02
:101300004C4B4B4B4A4A4A4949494848484747474A
:101310004746464645454544444444434343434287
:10132000424242414141002B9C4630D477002BD0B1
:101330001CB54FEA370703B44FF010004FF010010F
:10134000BAF1000F06D0BCF1000FDCBF40F008007E
:1013500040F008014FF000000FBCBDE810400BF159
:10136000010BBBF1010F08BF5FEA170722BF12F1A3
:10137000010211F101014FF0004143F1000300F0BF
:10138000004043EA00007047F9D35708D0E746EA27
:10139000064613F1400F4FEA16461FDD13F1200FEA
:1013A000DFBF16430A46002120335B42BED0C3F1A3
:1013B000200746EA064602FA07F74FEA164646EACB
:1013C0000706C3F1200722FA03F201FA07F721FA10
:1013D00003F14FF0000342EA0702A7E746EA0206DC
:1013E00046EA06464FEA164646EA0106BCBF46EA0A
:1013F0000646360C4FF000034FF000024FF000019C
:1014000094E72DE9804C9A46934670B491E83800F1
:1014100007C831EA400C48BF34EA430C03D5FFF754
:10142000E6FDFFF780FFF0BCBDE8008C2DE9804CA5
:101430009A46934670B491E8380007C810F0804F80
:1014400008BF13F0804F03D100F005F8FFF76BFFE2
:10145000F0BCBDE8008C20F07F4780EA030023F059
:101460007F4C07EB0C03A3F57C5300F00040A3F185
:10147000FE0392F0000F00F0B38095F0000F00F033
:1014800077802DE901494FEA11404FEA144621EADD
:10149000004800FB06FC24EA064708FB06F607FBAB
:1014A00008F800FB07F718EB06484CEB164C4FEA20
:1014B000124B18EB07484FEA15464CEB174022EA4F
:1014C0000B4E0BFB06FC25EA06470EFB06F607FB58
:1014D0000EFE0BFB07F71EEB064E4CEB164C4FF0C7
:1014E00000061EEB074E4CEB174B18EB0B0840F1B8
:1014F000000018EB0E0B58EB000840F100008F1AAB
:101500004FF000013CBFC943661B14BFB5EB040C90
:1015100000213CBFC943F61B4FEA17444EEA8E0E2A
:1015200027EA04454FEA1C4704FB07622CEA074CF4
:1015300005FB07F70CFB05F604FB0CFC16EB074656
:1015400042EB174216EB0C4642EB1C421BEB060625
:1015500058EB0202414146EA9E0601D5BDE80189E9
:10156000B619524141EB0101A3F10103BDE8018924
:101570004FEA14454FEA114724EA054621EA074C91
:1015800005FB07F406FB07F70CFB06F105FB0CFC5B
:1015900011EB074144EB17444FEA124711EB0C41A2
:1015A00044EB1C4422EA074C05FB07F206FB07F755
:1015B0000CFB06F605FB0CFC16EB074642EB17424C
:1015C00016EB0C4642EB1C456A1854F1000148BF6B
:1015D0007047B619524141EB0101A3F10103704775
:1015E00095F0000F37D04FEA11424FEA144721EA35
:1015F000024624EA074C02FB07F106FB07F70CFB47
:1016000006F402FB0CFC14EB074441EB17414FEAD4
:10161000154714EB0C4441EB1C4125EA074C02FB37
:1016200007F506FB07F70CFB06F602FB0CFC16EBB6
:10163000074645EB174516EB0C4645EB1C421219C5
:1016400051F1000148BF7047B619524141EB010109
:10165000A3F1010370474FEA14454FEA114724EA0A
:10166000054621EA074C05FB07F106FB07F70CFBD3
:1016700006F24FF0000605FB0CFC12EB074241EBB3
:10168000174112EB0C4251EB1C4148BF70479218B6
:1016900041EB0101A3F101037047000000B59BB0CD
:1016A0000121880501F00CFD0121084601F008FD2B
:1016B0000121042001F004FD0121080201F076FD62
:1016C000002002903E4803903E4804900020059080
:1016D00003200690002007904FF48060089040009F
:1016E000099080000A9040110B9040020C9000205D
:1016F0000D900E900F90109002A9334800F074FCEA
:101700000220009003208DF8040000208DF80700CF
:1017100069462E4800F0DEFF0120009069462C4803
:1017200000F0D8FF022000906946294800F0D2FF5F
:1017300000201190129013904FF4A060149011A803
:1017400000F088F80020159001208DF858008DF8E1
:101750005900002017901890199003208DF8680008
:1017600015A917484C3800F0C5F90023012211468D
:1017700013484C3800F0A6FA002302220A21104830
:101780004C3800F09FFA002303220B210C484C3800
:1017900000F098FA01210A484C3800F06BF9012159
:1017A00007484C3800F026F9012105484C3800F074
:1017B00011F80121044800F09DFB1BB000BD0000A2
:1017C0004C20014000000020106402400000024054
:1017D0000008024070B504460D461148844205D009
:1017E0001048844202D01048844200D104E04FF4F3
:1017F000C9710EA003F00EFC0DB1012D00D104E063
:1018000040F2931109A003F005FC25B1A06840F057
:101810000100A06003E0A06820F00100A06070BD9E
:101820000020014000210140002201405374645F08
:101830005065726970684472697665725C73726330
:101840005C73746D3332663478785F6164632E63E1
:101850000000000070B504460025206818B3206819
:10186000012820D0206802281DD0206805281AD021
:101870002068062817D02068072814D02068092877
:1018800011D0206811280ED0206812280BD02068B3
:10189000152808D02068162805D02068172802D0FF
:1018A0002068192800D104E040F259113FA003F04C
:1018B000B1FB606858B16068B0F5803F07D06068E0
:1018C000B0F5003F03D06068B0F5403F00D104E0C0
:1018D0004FF4AD7135A003F09DFBA06858B1A0682E
:1018E000B0F5804F07D0A068B0F5004F03D0A068D6
:1018F000B0F5404F00D104E040F25B112BA003F0A3
:1019000089FBE068D8B3E068B0F5807F37D0E06845
:10191000B0F5007F33D0E068B0F5407F2FD0E068AD
:10192000B0F5806F2BD0E068B0F5A06F27D0E068ED
:10193000B0F5C06F23D0E068B0F5E06F1FD0E0686D
:10194000B0F5006F1BD0E068B0F5106F17D0E068FD
:10195000B0F5206F13D0E068B0F5306F0FD0E068BD
:10196000B0F5406F0BD0E068B0F5506F07D0E0687D
:10197000B0F5606F03D0E068B0F5706F00D104E09F
:101980004FF4AE7109A003F045FB124805681248F8
:101990000540D4E900010843A1680843E168084311
:1019A00005430E48C0F8045370BD00005374645FD3
:1019B0005065726970684472697665725C737263AF
:1019C0005C73746D3332663478785F6164632E6360
:1019D0000000000004230140E030FCFF0020014033
:1019E00010B5FFF75BFE024800F052FA10BD000090
:1019F0000020014070B504460D461148844205D0D0
:101A00001048844202D01048844200D104E040F2E1
:101A10001F410EA003F0FEFA0DB1012D00D104E02C
:101A20004FF4846109A003F0F5FA25B1A06840F4F1
:101A30008070A06003E0A06820F48070A06070BD9A
:101A40000020014000210140002201405374645FE6
:101A50005065726970684472697665725C7372630E
:101A60005C73746D3332663478785F6164632E63BF
:101A70000000000070B504460D461148844205D0B0
:101A80001048844202D01048844200D104E040F261
:101A900037410EA003F0BEFA0DB1012D00D104E0D4
:101AA0004FF4876109A003F0B5FA25B1A06840F4AE
:101AB0000070A06003E0A06820F40070A06070BD1A
:101AC0000020014000210140002201405374645F66
:101AD0005065726970684472697665725C7372638E
:101AE0005C73746D3332663478785F6164632E633F
:101AF000000000002DE9F04105460C4600260027B5
:101B00006148854205D06148854202D060488542DF
:101B100000D103E0F0215FA003F07CFA206858B107
:101B20002068B0F1807F07D02068B0F1007F03D03B
:101B30002068B0F1407F00D103E0F12155A003F00F
:101B400069FA207910B12079012800D103E0F2214F
:101B500050A003F05FFA607910B16079012800D1DC
:101B600003E0F3214BA003F055FAA06858B1A06838
:101B7000B0F1805F07D0A068B0F1005F03D0A0682B
:101B8000B0F1405F00D103E0F42142A003F042FA3B
:101B9000E068D8B3E068B0F1807F37D0E068B0F19A
:101BA000007F33D0E068B0F1407F2FD0E068B0F123
:101BB000806F2BD0E068B0F1A06F27D0E068B0F163
:101BC000C06F23D0E068B0F1E06F1FD0E068B0F1E3
:101BD000006F1BD0E068B0F1106F17D0E068B0F173
:101BE000206F13D0E068B0F1306F0FD0E068B0F133
:101BF000406F0BD0E068B0F1506F07D0E068B0F1F3
:101C0000606F03D0E068B0F1706F00D103E0F521A0
:101C100020A003F0FFF9206918B12069B0F5006F2A
:101C200000D103E0F6211BA003F0F4F9207D012888
:101C300003DB207D102800DC03E0F72115A003F072
:101C4000E9F96E681D4806402179206840EA0120C4
:101C500006436E60AE681A480640D4E90310084394
:101C6000A1680843617940EA41000643AE60EE6A2C
:101C700026F47006207D401EC0B2074346EA075690
:101C8000EE62BDE8F081000000200140002101402B
:101C9000002201405374645F506572697068447239
:101CA000697665725C7372635C73746D333266342B
:101CB00078785F6164632E6300000000FFFEFFFC24
:101CC000FDF7FFC02DE9F04706460C46174698463B
:101CD0000025A9466148864205D06148864202D067
:101CE0006048864200D104E040F2CF215EA003F0BC
:101CF00091F91CB3012C21D0022C1FD0032C1DD034
:101D0000042C1BD0052C19D0062C17D0072C15D06D
:101D1000082C13D0092C11D00A2C0FD00B2C0DD06D
:101D20000C2C0BD00D2C09D00E2C07D00F2C05D06D
:101D3000102C03D0112C01D0122C00D104E04FF450
:101D4000347149A003F066F9012F02DB102F00DC8B
:101D500004E040F2D12144A003F05CF9B8F1000F97
:101D600014D0B8F1010F11D0B8F1020F0ED0B8F1B4
:101D7000030F0BD0B8F1040F08D0B8F1050F05D050
:101D8000B8F1060F02D0B8F1070F00D104E040F21D
:101D9000D22135A003F03EF9092C13DDF568A4F13A
:101DA0000A0000EB4001072000FA01F925EA0905C5
:101DB000A4F10A0000EB400008FA00F945EA090521
:101DC000F5600EE0356904EB4401072000FA01F9E3
:101DD00025EA090504EB440008FA00F945EA09057B
:101DE0003561072F11DA756B781E00EB80011F201B
:101DF00000FA01F925EA0905781E00EB800004FAD3
:101E000000F945EA0905756326E00D2F11DA356BF7
:101E1000F81F00EB80011F2000FA01F925EA0905EF
:101E2000F81F00EB800004FA00F945EA0905356364
:101E300012E0F56AA7F10D0000EB80011F2000FA07
:101E400001F925EA0905A7F10D0000EB800004FA6D
:101E500000F945EA0905F562BDE8F0870020014078
:101E600000210140002201405374645F5065726993
:101E700070684472697665725C7372635C73746DCA
:101E80003332663478785F6164632E63000000004B
:101E900010B504460948844205D00948844202D05E
:101EA0000848844200D104E040F2463106A003F025
:101EB000B1F8A06840F08040A06010BD0020014053
:101EC00000210140002201405374645F5065726933
:101ED00070684472697665725C7372635C73746D6A
:101EE0003332663478785F6164632E6300000000EB
:101EF00000BFFEE770B504460D462C4884423AD038
:101F00002A481830844236D028483030844232D0B3
:101F10002648483084422ED02448603084422AD05B
:101F200022487830844226D020489030844222D003
:101F30001E48A83084421ED01D4884421BD01C4835
:101F40001830844217D01A483030844213D01848D1
:101F5000483084420FD01648603084420BD0144879
:101F60007830844207D012489030844203D0104821
:101F7000A830844200D104E040F2E1110DA003F04A
:101F800049F80DB1012D00D104E04FF4F17109A021
:101F900003F040F825B1206840F00100206003E024
:101FA000206820F00100206070BD00001060024039
:101FB000106402402E2E5C4672656552544F535C8D
:101FC0005374645F506572697068447269766572B3
:101FD0005C7372635C73746D3332663478785F64FB
:101FE0006D612E630000000070B505460C460026AA
:101FF000A24885423AD0A1481830854236D09F4841
:102000003030854232D09D48483085422ED09B48A2
:10201000603085422AD099487830854226D097484A
:102020009030854222D09548A83085421ED09448F1
:1020300085421BD092481830854217D090483030E6
:10204000854213D08E48483085420FD08C4860308E
:1020500085420BD08A487830854207D08848903036
:10206000854203D08648A830854200D104E04FF471
:10207000A27184A002F0CEFF2068D8B12068B0F130
:10208000007F17D02068B0F1806F13D02068B0F1C6
:10209000C06F0FD02068B0F1006F0BD02068B0F196
:1020A000206F07D02068B0F1406F03D02068B0F1F6
:1020B000606F00D104E040F2451172A002F0AAFF67
:1020C000E06828B1E068402802D0E068802800D1AC
:1020D00004E04FF4A3716BA002F09CFF206920B1D3
:1020E0002069B0F5803F00D204E040F2471165A0BE
:1020F00002F090FF6069B0F5007F01D0606900B91F
:1021000004E04FF4A4715FA002F084FFA069B0F571
:10211000806F01D0A06900B904E040F2491159A0D4
:1021200002F078FFE06938B1E069B0F5006F03D0E4
:10213000E069B0F5805F00D104E04FF4A57151A0D3
:1021400002F068FF206A38B1206AB0F5005F03D062
:10215000206AB0F5804F00D104E040F24B1149A055
:1021600002F058FF606A18B1606AB0F5807F00D154
:1021700004E04FF4A67143A002F04CFFA06A58B1EE
:10218000A06AB0F5803F07D0A06AB0F5003F03D049
:10219000A06AB0F5403F00D104E040F24D1139A0F3
:1021A00002F038FFE06A10B1E06A042800D104E0D0
:1021B0004FF4A77133A002F02DFF206B40B1206BCC
:1021C000012805D0206B022802D0206B032800D103
:1021D00004E040F24F112BA002F01CFF606B58B1DD
:1021E000606BB0F5000F07D0606BB0F1807F03D05B
:1021F000606BB0F1C07F00D104E04FF4A87121A062
:1022000002F008FFA06B58B1A06BB0F5001F07D01B
:10221000A06BB0F5800F03D0A06BB0F5C00F00D15C
:1022200004E040F2511117A002F0F4FE2E6822489B
:102230000640E1682068084361690843A1690843D2
:10224000E1690843216A0843616A0843A16A0843B7
:10225000616B0843A16B084306432E606E6926F04C
:102260000706D4E90B01084306436E6120696860E4
:102270006068A860A068E86070BD0000106002405F
:10228000106402402E2E5C4672656552544F535CBA
:102290005374645F506572697068447269766572E0
:1022A0005C7372635C73746D3332663478785F6428
:1022B0006D612E63000000003F801CF0704700003D
:1022C00010B500200C490860022000F071F830B110
:1022D00002210A4800F0B2FB022000F013F8064881
:1022E000006838B14FF0805005490860BFF34F8F48
:1022F000BFF36F8F10BD00005C010020000402409E
:1023000004ED00E010B50446E00DC00508B904B1C5
:1023100004E040F2231103A002F07CFE0B480460AD
:1023200010BD00005374645F506572697068447238
:10233000697665725C7372635C73746D3332663494
:1023400078785F657874692E63000000143C014062
:1023500010B500F021F9022000F002F810BD0000D5
:1023600010B50446E00DC00508B904B103E0C8216A
:1023700004A002F04FFE0D48006820430B4908609E
:1023800010BD00005374645F5065726970684472D8
:10239000697665725C7372635C73746D3332663434
:1023A00078785F657874692E63000000103C014006
:1023B00070B504460025012C3DD0022C3BD0042CE6
:1023C00039D0082C37D0102C35D0202C33D0402CCD
:1023D00031D0802C2FD0B4F5807F2CD0B4F5007F85
:1023E00029D0B4F5806F26D0B4F5006F23D0B4F5B2
:1023F000805F20D0B4F5005F1DD0B4F5804F1AD0B7
:10240000B4F5004F17D0B4F5803F14D0B4F5003FB9
:1024100011D0B4F5802F0ED0B4F5002F0BD0B4F549
:10242000801F08D0B4F5001F05D0B4F5800F02D08E
:10243000B4F5000F00D104E04FF4867105A002F05E
:10244000E9FD0E480068204008B1012500E00025A4
:10245000284670BD5374645F506572697068447239
:10246000697665725C7372635C73746D3332663463
:1024700078785F657874692E63000000143C014031
:1024800070B504460025207910B12079042800D1C8
:1024900003E0832135A002F0BDFD6079082805D056
:1024A00060790C2802D06079102800D103E08421E3
:1024B0002EA002F0AFFD20686FF3160010B920685F
:1024C00000B103E0852129A002F0A4FDA07910B19C
:1024D000A079012800D103E0862124A002F09AFD12
:1024E0002C4DA07990B3284600682168884329467E
:1024F0000860081D006821688843291D086020794C
:10250000054428682168084328602248083000688C
:10251000216888431F4908310860081D0068216848
:1025200088431C490C310860607910280FD1081FBE
:10253000006821680843174908310860081D0068D1
:102540002168084313490C3108600EE007E0114D83
:1025500060790544286821680843286005E02079EF
:102560000544286821688843286070BD5374645FFF
:102570005065726970684472697665725C737263E3
:102580005C73746D3332663478785F657874692E65
:1025900063000000003C01400EB50121880300F0FB
:1025A00005FE0121084600F0B1FE02200190002046
:1025B0008DF8080008208DF8090001208DF80A0028
:1025C00001A8FFF75DFF07208DF8000006208DF8B9
:1025D000010000208DF8020001208DF803006846FC
:1025E00000F0CEFC0EBD00001FB50121082000F058
:1025F00067FD4FF47040029001208DF80C0003201D
:102600008DF80D0000208DF80E008DF80F0002A946
:102610002E4800F05FF800224FF480512B4800F064
:1026200099FA00224FF40051284800F093FA002252
:102630004FF48041254800F08DFA00224FF400410C
:10264000224800F087FA0C20029001208DF80C003F
:1026500003208DF80D0000208DF80E008DF80F007E
:1026600002A91A4800F036F83320029001208DF8B4
:102670000C0003208DF80D0000208DF80E008DF861
:102680000F0002A9114800F025F80121022000F0F6
:1026900017FD0420009001208DF8040003208DF820
:1026A000050000208DF806008DF8070069460848EF
:1026B00000F010F800208DF804008DF807000220CB
:1026C00000906946024800F005F81FBD000C02406A
:1026D000000402402DE9F04104460D460026002783
:1026E000B046544884421DD0534884421AD05348BF
:1026F000844217D05248844214D05248844211D0A8
:10270000514884420ED0514884420BD050488442F4
:1027100008D05048844205D04F48844202D04F48E8
:10272000844200D103E0D1214DA002F073FC28883F
:1027300080B200B103E0D22149A002F06BFC2879FD
:1027400040B12879012805D02879022802D02879BB
:10275000032800D103E0D32141A002F05BFCE8791B
:1027600028B1E879012802D0E879022800D103E0F5
:10277000D4213BA002F04EFC002657E0012000FAD5
:1027800006F7286800EA0708B8454ED120687200AD
:102790000321914088432060287971008840216896
:1027A000084320602879012802D02879022830D1F6
:1027B000687940B16879012805D06879022802D08B
:1027C0006879032800D103E0E62125A002F022FC6D
:1027D000A0687200032191408843A060687971006D
:1027E0008840A1680843A060A87910B1A8790128A1
:1027F00000D103E0ED211AA002F00CFC6168012079
:10280000B040814361606168A879B04080B2014303
:102810006160E0687200032191408843E060E879DC
:1028200071008840E1680843E060761C102EA5D353
:10283000BDE8F081000002400004024000080240B0
:10284000000C024000100240001402400018024038
:10285000001C0240002002400024024000280240E8
:102860005374645F5065726970684472697665720A
:102870005C7372635C73746D3332663478785F674F
:1028800070696F2E630000002DE9F04106460D4689
:1028900014460027B846544886421DD05348864205
:1028A0001AD05348864217D05248864214D0524814
:1028B000864211D0514886420ED0514886420BD0F4
:1028C0005048864208D05048864205D04F4886423C
:1028D00002D04F48864200D104E040F24B214DA087
:1028E00002F098FBEDB1012D1BD0022D19D0032D64
:1028F00017D0042D15D0052D13D0062D11D0072D7E
:102900000FD0082D0DD0092D0BD00A2D09D00B2D7D
:1029100007D00C2D05D00D2D03D00E2D01D00F2D7D
:1029200000D104E04FF413713AA002F073FBA4B39A
:10293000092C32D08CB384B37CB374B3012C2CD06B
:102940002BD0022C29D028D027D0032C25D0042C22
:1029500023D022D021D0052C1FD01ED0092C1CD072
:10296000062C1AD0092C18D0072C16D015D014D04C
:10297000082C12D011D010D0092C0ED00DD00A2C5A
:102980000BD00AD00B2C08D00C2C06D005D00D2C67
:1029900003D00F2C01D00C2C00D104E040F24D21CB
:1029A0001CA002F037FB6807C00E04FA00F7E9101C
:1029B00006F1200050F821006907CA0E0F2191404E
:1029C0008843EA1006F1200141F82200E91006F1DF
:1029D000200050F8210040EA0708E91006F1200025
:1029E00040F82180BDE8F081000002400004024070
:1029F00000080240000C0240001002400014024097
:102A000000180240001C0240002002400024024046
:102A1000002802405374645F5065726970684472A4
:102A2000697665725C7372635C73746D333266349D
:102A300078785F6770696F2E6300000070B5054697
:102A40000C4600262E4885421DD02E4885421AD0BD
:102A50002D48854217D02D48854214D02C488542F8
:102A600011D02C4885420ED02B4885420BD02B48E4
:102A7000854208D02A48854205D02A48854202D09E
:102A80002948854200D104E04FF4A57127A002F047
:102A9000C1FA012C25D0022C23D0042C21D0082CE3
:102AA0001FD0102C1DD0202C1BD0402C19D0802CD6
:102AB00017D0B4F5807F14D0B4F5007F11D0B4F5F1
:102AC000806F0ED0B4F5006F0BD0B4F5805F08D0E6
:102AD000B4F5005F05D0B4F5804F02D0B4F5004FD7
:102AE00000D104E040F24B1110A002F093FA2869E3
:102AF000204008B1012600E00026304670BD0000ED
:102B0000000002400004024000080240000C0240A5
:102B1000001002400014024000180240001C024055
:102B20000020024000240240002802405374645FE9
:102B30005065726970684472697665725C7372631D
:102B40005C73746D3332663478785F6770696F2EAA
:102B50006300000070B505460C46164631488542B4
:102B60001DD0314885421AD03048854217D03048B0
:102B7000854214D02F48854211D02F4885420ED06F
:102B80002E4885420BD02E48854208D02D488542DC
:102B900005D02D48854202D02C48854200D104E062
:102BA0004FF4E6712AA002F035FA012C25D0022C50
:102BB00023D0042C21D0082C1FD0102C1DD0202C69
:102BC0001BD0402C19D0802C17D0B4F5807F14D0A6
:102BD000B4F5007F11D0B4F5806F0ED0B4F5006F5E
:102BE0000BD0B4F5805F08D0B4F5005F05D0B4F524
:102BF000804F02D0B4F5004F00D104E040F2CD1177
:102C000013A002F007FA0EB1012E00D104E04FF438
:102C1000E7710FA002F0FEF90EB12C8300E06C8387
:102C200070BD0000000002400004024000080240A5
:102C3000000C024000100240001402400018024044
:102C4000001C0240002002400024024000280240F4
:102C50005374645F50657269706844726976657216
:102C60005C7372635C73746D3332663478785F675B
:102C700070696F2E6300000000BFFEE700B587B0EB
:102C80000121880500F058FA0121022000F018FA0D
:102C90004FF44060059002208DF8180003208DF855
:102CA000190001208DF81A008DF81B0005A91448A1
:102CB000FFF710FD04220A211148FFF7E5FD042269
:102CC0000B210F48FFF7E0FD0E4801900020ADF802
:102CD00008004BF6FF70ADF80A000020ADF80C00BC
:102CE000ADF80E004FF48040ADF8100001A9064881
:102CF00000F058F80121044800F008F807B000BDC2
:102D000000040240A08601000058004070B504464F
:102D10000D461248844205D01148844202D0114821
:102D2000844200D104E04FF49E710FA002F072F9CA
:102D30000DB1012D00D104E040F23D110AA002F0D6
:102D400069F925B1208840F00100208004E0208846
:102D50004FF6FE710840208070BD00000054004016
:102D600000580040005C00402E2E5C4672656552A3
:102D7000544F535C5374645F506572697068447259
:102D8000697665725C7372635C73746D333266343A
:102D900078785F6932632E630000000010B5FFF79A
:102DA0006DFF10BD2DE9FF4705460C460026B146D4
:102DB0000427DFF874815D48854205D05C48854270
:102DC00002D05C48854200D103E0BB215AA002F04A
:102DD00021F9206820B165492068884200D803E0C5
:102DE000BC2155A002F016F9A08828B1A0880228BD
:102DF00002D0A0880A2800D103E0BD214EA002F035
:102E000009F9E088B0F5804F04D0E0884BF6FF71F7
:102E1000884200D103E0BE2147A002F0FBF82089E0
:102E2000B0F5806F00DA03E0BF2143A002F0F2F8B2
:102E30006089B0F5806F01D0608900B903E0C021DE
:102E40003DA002F0E7F8A089B0F5804F03D0A0893B
:102E5000B0F5404F00D103E0C12137A002F0DAF80D
:102E6000AE884FF6C0700640684600F0DBF9DDF82A
:102E700008803F48B8FBF0F01FFA80F946EA0906DF
:102E8000AE8028884FF6FE71084028800026394918
:102E9000206888420CD820684000B8FBF0F087B268
:102EA000042F00DA04273E4309F10100288427E0BB
:102EB000E0884BF6FF71884206D1206800EB4000A5
:102EC000B8FBF0F087B209E0206800EBC00101EB2D
:102ED0000010B8FBF0F087B247F48047C7F30B004F
:102EE00008B947F0010747F4004006434FF49670D5
:102EF00009FB00F04FF47A7190FBF1F0401C28843C
:102F0000AE83288840F0010028802E884FF6F530E7
:102F10000640A0886189084306432E80A089218944
:102F200008432881BDE8FF8700127A000054004062
:102F300000580040005C00402E2E5C4672656552D1
:102F4000544F535C5374645F506572697068447287
:102F5000697665725C7372635C73746D3332663468
:102F600078785F6932632E6300000000801A0600E3
:102F700040420F00A086010000BFFEE7704700003E
:102F80002DE9F0410446002500270F26E07810B116
:102F9000E078012800D103E08D2122A002F03AF868
:102FA0006078102800DA03E08E211EA002F032F8CB
:102FB000A078102800DA03E08F211AA002F02AF886
:102FC000E07818B32148006800F4E060C0F5E060E4
:102FD000C0F30725C5F10400C7B22E416078B840A0
:102FE000C5B2A078304005432807050E184821785F
:102FF0004554207800F01F010120884021784911B4
:10300000890001F1E021C1F8000109E0207800F019
:103010001F01012088400F492278521141F82200F7
:10302000BDE8F0812E2E5C4672656552544F535CAC
:103030005374645F50657269706844726976657232
:103040005C7372635C6D6973632E63000CED00E06A
:1030500000E400E080E100E010B50446B4F5E06F64
:103060000BD0B4F5C06F08D0B4F5A06F05D0B4F59F
:10307000806F02D0B4F5407F00D103E0792104A035
:1030800001F0C8FF0C4820430C49086010BD000047
:103090002E2E5C4672656552544F535C5374645FC8
:1030A0005065726970684472697665725C737263A8
:1030B0005C6D6973632E63000000FA050CED00E09F
:1030C00070B504460D461048204008B904B104E02C
:1030D00040F63C010DA001F09DFF0DB1012D00D186
:1030E00004E040F63E0109A001F094FF2DB1114823
:1030F000006820430F49086004E00E480068A043C0
:103100000C49086070BD000000E80B015374645F57
:103110005065726970684472697665725C73726337
:103120005C73746D3332663478785F7263632E63D8
:10313000000000003038024070B504460D4604F42B
:10314000585008B904B104E040F6B3010CA001F0F6
:1031500061FF0DB1012D00D104E040F6B40108A0DB
:1031600001F058FF2DB11048006820430E49086057
:1031700004E00D480068A0430B49086070BD0000E2
:103180005374645F506572697068447269766572E1
:103190005C7372635C73746D3332663478785F721B
:1031A00063632E63000000004038024070B504469F
:1031B0000D461048204008B904B104E040F6E7018C
:1031C0000DA001F027FF0DB1012D00D104E040F664
:1031D000E80109A001F01EFF2DB11148006820434D
:1031E0000F49086004E00E480068A0430C490860DD
:1031F00070BD00000C0008F05374645F5065726984
:1032000070684472697665725C7372635C73746D26
:103210003332663478785F7263632E630000000097
:1032200044380240F0B50021002200240225002687
:103230000223324F3F6807F00C0121B1042905D069
:10324000082937D105E02E4F076036E02D4F076083
:1032500033E02A4F3F1F3F68C7F38056274F3F1F79
:103260003F6807F03F036EB1264FB7FBF3F7DFF877
:103270008CC0ACF1040CDCF800C0CCF3881C07FB5C
:103280000CF40CE01E4FB7FBF3F7DFF870C0ACF1A5
:10329000040CDCF800C0CCF3881C07FB0CF4174FBF
:1032A0003F1F3F68C7F301477F1C7D00B4FBF5F764
:1032B000076002E0124F076000BF00BF0F4F3F687A
:1032C00007F0F0010909104F7A5C0768D7404760A2
:1032D0000A4F3F6807F4E051890A0B4F7A5C476850
:1032E000D7408760054F3F6807F46041490B064FA0
:1032F0007A5C4768D740C760F0BD000008380240DC
:103300000024F40000127A007401002070B5054614
:103310000C4600269DB1012D11D0022D0FD0032D9A
:103320000DD0042D0BD0052D09D0062D07D0072D6B
:1033300005D0082D03D0092D01D00A2D00D103E0BE
:10334000AD2121A001F066FEECB1012C1BD0022CB6
:1033500019D0032C17D0042C15D0052C13D0062C13
:1033600011D0072C0FD0082C0DD0092C0BD00A2C13
:1033700009D00B2C07D00C2C05D00D2C03D00E2C13
:1033800001D00F2C00D103E0AE210FA001F042FECE
:10339000A007010F0F2000FA01F61548A11050F800
:1033A0002100B0431249A21041F822000846A110A2
:1033B00050F82100A107090F05FA01F108430C4953
:1033C000A21041F8220070BD5374645F50657269A9
:1033D00070684472697665725C7372635C73746D55
:1033E0003332663478785F7379736366672E63006F
:1033F000083801400CB50020019000903448006866
:1034000040F480303249086000BF3148006800F461
:10341000003000900198401C0190009818B9019864
:10342000B0F5A04FF1D12A48006800F4003010B187
:103430000120009001E0002000900098012846D172
:1034400023484030006840F08050214940310860F6
:103450002048006840F440401E4908601C4808307D
:1034600000681B49083108600846006840F40040C5
:1034700008600846006840F4A05008601648091F1C
:103480000860081F006840F08070091F086000BFD6
:103490000F48006800F000700028F9D040F2057075
:1034A0000E4908600A480830006820F00300084907
:1034B000083108600846006840F00200086000BF5C
:1034C00003480830006800F00C000828F8D10CBD53
:1034D0000038024000700040042A4004003C0240D2
:1034E00010B500BF502080F31188BFF34F8FBFF39A
:1034F0006F8F00BF05F0E2FB18B14FF08050044918
:10350000086000BF002080F3118800BF10BD0000DC
:1035100004ED00E010B51548006840F47000134950
:1035200008601348006840F001001149086000205D
:103530000F49083108600E4800680E4908400C49E0
:1035400008600D48091D0860081F006820F48020ED
:10355000091F0860002006490C310860FFF74AFF88
:103560004FF0006001498039086010BD88ED00E02F
:1035700000380240FFFFF6FE103000240EB5012196
:103580000846FFF7D9FD0020ADF802005320ADF842
:1035900000004FF0FF3001900020ADF808008DF8DA
:1035A0000A0069464FF0804000F09AF9012188072F
:1035B00000F040F80EBD00000EB501210220FFF71B
:1035C000BBFD0020ADF802005320ADF800004FF61F
:1035D000FF7001900020ADF808008DF80A006946E0
:1035E000034800F07DF90121014800F023F80EBDE9
:1035F000000400400EB501210820FFF79DFD0020CA
:10360000ADF802004AF20F40ADF800004FF0FF3075
:1036100001900020ADF808008DF80A0069460448C2
:1036200000F05EF90121024800F004F80EBD000030
:10363000000C004070B504460D462248844226D056
:10364000B4F1804F23D02048844220D01F488442C8
:103650001DD01F4884421AD01E48844217D01E48ED
:10366000844214D01D48844211D01D4884420ED09B
:103670001C4884420BD01C48844208D01B4884421A
:1036800005D01B48844202D01A48844200D104E08D
:1036900040F2532118A001F0BDFC0DB1012D00D165
:1036A00004E04FF4157114A001F0B4FC25B120889A
:1036B00040F00100208004E020884FF6FE710840B1
:1036C000208070BD00000140000400400008004060
:1036D000000C0040001000400014004000040140B5
:1036E00000400140004401400048014000180040F3
:1036F000001C0040002000402E2E5C467265655282
:10370000544F535C5374645F5065726970684472BF
:10371000697665725C7372635C73746D33326634A0
:1037200078785F74696D2E630000000010B5FFF7B4
:1037300025FFFFF75FFFFFF73FFF10BD10B5044601
:103740001848844226D0B4F1804F23D016488442D2
:1037500020D0164884421DD0154884421AD01548FE
:10376000844217D01448844214D01448844211D0A3
:10377000134884420ED0134884420BD0124884422E
:1037800008D01248844205D01148844202D0114822
:10379000844200D104E040F2B9110FA001F03AFCDC
:1037A000606A10BD000001400004004000080040B5
:1037B000000C0040001000400014004000040140D4
:1037C0000040014000440140004801400018004012
:1037D000001C0040002000402E2E5C4672656552A1
:1037E000544F535C5374645F5065726970684472DF
:1037F000697665725C7372635C73746D33326634C0
:1038000078785F74696D2E630000000070B504461F
:103810000D461948844226D0B4F1804F23D0174872
:10382000844220D0164884421DD0164884421AD0C3
:103830001548844217D01548844214D01448844255
:1038400011D0144884420ED0134884420BD0134840
:10385000844208D01248844205D01248844202D0E3
:103860001148844200D104E04FF4CE710FA001F062
:10387000D1FB656270BD0000000001400004004003
:1038800000080040000C0040001000400014004000
:103890000004014000400140004401400048014054
:1038A00000180040001C0040002000402E2E5C4606
:1038B00072656552544F535C5374645F506572690E
:1038C00070684472697665725C7372635C73746D60
:1038D0003332663478785F74696D2E6300000000BF
:1038E00070B504460D4600264348844226D0B4F104
:1038F000804F23D04148844220D0414884421DD08B
:10390000404884421AD04048844217D03F488442FD
:1039100014D03F48844211D03E4884420ED03E48E5
:1039200084420BD03D48844208D03D48844205D0B3
:103930003C48844202D03C48844200D104E040F23A
:1039400025113AA001F066FB688858B168881028F4
:1039500008D06888202805D06888402802D0688868
:10396000602800D104E04FF4937130A001F052FBC5
:10397000288938B12889B0F5807F03D02889B0F52F
:10398000007F00D104E040F2271128A001F042FBA3
:103990002688194884420ED01D4884420BD0B4F1C9
:1039A000804F08D01548844205D01548844202D083
:1039B0001448844204D14FF68F700640688806434D
:1039C0001148844207D01148844204D04FF6FF408A
:1039D00006402889064326806868E062288820859A
:1039E0000548844202D00A48844201D1A87A208640
:1039F0000120A08270BD00000000014000040040D2
:103A000000080040000C004000100040001400407E
:103A100000040140004001400044014000480140D2
:103A200000180040001C0040002000402E2E5C4684
:103A300072656552544F535C5374645F506572698C
:103A400070684472697665725C7372635C73746DDE
:103A50003332663478785F74696D2E63000000003D
:103A600000B587B001210846FFF72AFB012110208D
:103A7000FFF79CFB07220A211E48FEF705FF0722DD
:103A800009211C48FEF700FF02208DF808000320E2
:103A90008DF8090000208DF80A0001208DF80B0038
:103AA0008002019001A91348FEF714FE4FF4007044
:103AB000019001A90F48FEF70DFE01210E4800F00C
:103AC000FBFC4FF4165003900020ADF81000ADF849
:103AD0001200ADF81400ADF818000C20ADF8160077
:103AE00003A9054800F0C6FB0121034800F0E0F9F6
:103AF00007B000BD000002400010014000B587B0D3
:103B000001210846FFF7DCFA01214804FFF714FB06
:103B1000072202212848FEF7B7FE07220321264884
:103B2000FEF7B2FE02208DF8080003208DF8090090
:103B300000208DF80A0001208DF80B000420019070
:103B400001A91D48FEF7C6FD0820019001A91A48E9
:103B5000FEF7C0FD0121194800F0AEFC4FF41650ED
:103B600003900020ADF81000ADF81200ADF814007D
:103B7000ADF818000C20ADF8160003A90F4800F0AE
:103B800079FB26208DF8000007208DF80100002029
:103B90008DF8020001208DF803006846FFF7F0F968
:103BA000012240F22551054800F0AEFA01210348F8
:103BB00000F07EF907B000BD000002400044004064
:103BC00010B500201049086040F225510F4800F060
:103BD000DBF901280BD10E48007840B90A490D489D
:103BE000006804F0DFFD2021084800F0EDF80648E9
:103BF000006838B14FF0805007490860BFF34F8F1D
:103C0000BFF36F8F10BD000058010020004400403A
:103C1000C3000020D000002004ED00E000B587B014
:103C200001210820FFF74CFA01218804FFF784FAEC
:103C3000072208212B48FEF727FE072209212948E1
:103C4000FEF722FE02208DF8080003208DF80900FF
:103C500000208DF80A0001208DF80B000002019071
:103C600001A92048FEF736FD4FF40070019001A92C
:103C70001C48FEF72FFD01211B4800F01DFC4FF4EE
:103C8000165003900020ADF81000ADF81200ADF80A
:103C90001400ADF818000C20ADF8160003A9124866
:103CA00000F0E8FA0121104800F002F94FF44070EA
:103CB000FFF7D2F927208DF8000006208DF80100CB
:103CC00000208DF8020001208DF803006846FFF700
:103CD00057F9012240F22551034800F015FA07B0C8
:103CE00000BD0000000C02400048004010B500205C
:103CF0002349086040F22551224800F045F9012887
:103D000031D12148007870BB1E4800F039FC1F49B2
:103D10001F4A1278885408461D490978405CFF28DC
:103D200018D11B480078401E1849085CFF2811D1A3
:103D300017480078801E085CFF280BD1012012492B
:103D400008700020124908700D491248006804F0FC
:103D500029FD04E00E480078401C0D490870202120
:103D6000084800F031F80648006838B14FF080503C
:103D700009490860BFF34F8FBFF36F8F10BD00007C
:103D80005401002000480040C3000020A012002081
:103D9000C4000020C800002004ED00E010B5044677
:103DA0000CE000BF0748008800F040000028F9D070
:103DB0002178044800F036FC14F8010B2078002824
:103DC000EFD110BD0048004070B504460D462448B0
:103DD00084421AD02348844217D02348844214D006
:103DE0002248844211D0224884420ED02148844285
:103DF0000BD02148844208D02048844205D0204876
:103E0000844202D01F48844200D104E040F2455170
:103E10001DA001F0FFF84FF69F40284008B905B1FA
:103E200004E040F2465118A001F0F4F805F40070E7
:103E3000B0F5007F11D10A48844208D00948844275
:103E400005D00948844202D00A48844200D104E0E7
:103E500040F24B510CA001F0DDF8E843208070BD2A
:103E6000001001400044004000480040004C004069
:103E7000005000400014014000780040007C0040E9
:103E800000180140001C01405374645F5065726962
:103E900070684472697665725C7372635C73746D8A
:103EA0003332663478785F75736172742E63000004
:103EB00070B504460D461C4884421AD01B48844203
:103EC00017D01B48844214D01A48844211D01A4893
:103ED00084420ED0194884420BD01948844208D03D
:103EE0001848844205D01848844202D017488442BA
:103EF00000D104E04FF4D87115A001F08BF80DB19A
:103F0000012D00D104E040F2B11111A001F082F8BE
:103F100025B1A08940F40050A08104E0A0894DF6AD
:103F2000FF710840A08170BD0010014000440040B6
:103F300000480040004C0040005000400014014088
:103F400000780040007C004000180140001C014047
:103F50005374645F50657269706844726976657203
:103F60005C7372635C73746D3332663478785F753A
:103F7000736172742E63000010B5FFF74FFEFFF7F8
:103F80006FFDFFF7BBFD10BD2DE9F04704460D4660
:103F900000270026B046B146474884421AD0474819
:103FA000844217D04648844214D04648844211D0F7
:103FB000454884420ED0454884420BD04448844250
:103FC00008D04448844205D04348844202D0434844
:103FD000844200D104E040F2695141A001F01AF896
:103FE000282D27D040F22770854223D040F226604A
:103FF00085421FD040F2255085421BD040F224401C
:10400000854217D040F64600854213D040F66A102C
:1040100085420FD0B5F5587F0CD040F2253085424F
:1040200008D0B5F5587F05D0B5F5187F02D0B5F5A5
:10403000B07F00D104E040F26A5129A000F0EAFF0D
:1040400040F66A10854211D11B48844208D01B48B3
:10405000844205D01A48844202D01C48844200D1D0
:1040600004E040F26F511EA000F0D4FFC5F34218E7
:1040700005F01F06012000FA06F6B8F1010F02D183
:10408000A089064007E0B8F1020F02D1208A06405D
:1040900001E0A08A06402F12012000FA07F72088CD
:1040A00007401EB117B14FF0010901E04FF00009C0
:1040B0004846BDE8F0870000001001400044004081
:1040C00000480040004C00400050004000140140F7
:1040D00000780040007C004000180140001C0140B6
:1040E0005374645F50657269706844726976657272
:1040F0005C7372635C73746D3332663478785F75A9
:10410000736172742E6300002DE9F04704460D467A
:1041100017464FF00008C246C14600264148844277
:104120001AD04148844217D04048844214D04048B5
:10413000844211D03F4884420ED03F4884420BD085
:104140003E48844208D03E48844205D03D488442DF
:1041500002D03D48844200D104E040F2D6413BA069
:1041600000F058FF282D19D040F22770854215D055
:1041700040F22660854211D040F2255085420DD094
:1041800040F22440854209D040F64600854205D0E1
:1041900040F66A10854201D0602D00D104E040F263
:1041A000D7412AA000F036FF0FB1012F00D104E063
:1041B0004FF49B6125A000F02DFF40F66A10854268
:1041C00011D11848844208D01748844205D01748B6
:1041D000844202D01848844200D104E040F2DD411C
:1041E0001AA000F017FF2646C5F3421805F01F0A73
:1041F000012000FA0AF9B8F1010F01D10C3605E0EF
:10420000B8F1020F01D1103600E0143627B1306842
:1042100040EA0900306003E0306820EA09003060BD
:10422000BDE8F08700100140004400400048004015
:10423000004C004000500040001401400078004055
:10424000007C004000180140001C01405374645F72
:104250005065726970684472697665725C737263E6
:104260005C73746D3332663478785F757361727421
:104270002E6300002DE9FF4704460D460026B14697
:1042800000BFB046774884421AD07748844217D09E
:104290007648844214D07648844211D075488442CE
:1042A0000ED0754884420BD07448844208D07448BC
:1042B000844205D07348844202D07348844200D1BE
:1042C00004E04FF4807171A000F0A4FE286820B1D2
:1042D00078492868884200D204E040F201116BA0BE
:1042E00000F098FEA88818B1A888B0F5805F00D1CA
:1042F00004E04FF4817165A000F08CFEE88858B1AD
:10430000E888B0F5805F07D0E888B0F5005F03D09B
:10431000E888B0F5405F00D104E040F203115BA0F3
:1043200000F078FE288938B12889B0F5806F03D075
:104330002889B0F5C06F00D104E04FF4827153A01A
:1043400000F068FE68894FF6F371084010B968897B
:1043500000B104E040F205114CA000F05BFEA8891A
:1043600058B1A889B0F5807F07D0A889B0F5007F43
:1043700003D0A889B0F5407F00D104E04FF48371E9
:1043800042A000F047FEA88988B13648844208D090
:104390003548844205D03548844202D036488442AC
:1043A00000D104E040F20B1138A000F033FE268A61
:1043B00026F44056E88806432682A68941F20C601E
:1043C0008643A88829890843698908430643A6814A
:1043D000A68A26F44076A8890643A6826846FEF798
:1043E00021FF2048844202D02348844202D1DDF8D4
:1043F0000C9001E0DDF80890A08900F4004040B185
:1044000009EBC90000EB091029684900B0FBF1F77E
:1044100007E009EBC90000EB091029688900B0FB2F
:10442000F1F76420B7FBF0F006013009642101FBCD
:104430001078A08900F4004040B1322000EBC800A1
:10444000B0FBF1F000F00700064308E0322000EB7B
:1044500008106421B0FBF1F000F00F000643268144
:10446000BDE8FF87001001400044004000480040C4
:10447000004C004000500040001401400078004013
:10448000007C004000180140001C01405374645F30
:104490005065726970684472697665725C737263A4
:1044A0005C73746D3332663478785F7573617274DF
:1044B0002E630000E170720070B504460D461C4882
:1044C00084421AD01B48844217D01B48844214D01F
:1044D0001A48844211D01A4884420ED019488442A6
:1044E0000BD01948844208D01848844205D0184897
:1044F000844202D01748844200D104E040F2DF1128
:1045000015A000F087FD0DB1012D00D104E04FF49E
:10451000F07111A000F07EFD25B1A08940F40040AB
:10452000A08103E0A089C0F30E00A08170BD00004F
:10453000001001400044004000480040004C004092
:10454000005000400014014000780040007C004012
:1045500000180140001C01405374645F506572698B
:1045600070684472697665725C7372635C73746DB3
:104570003332663478785F75736172742E6300002D
:1045800010B50446134884421AD01348844217D009
:104590001248844214D01248844211D011488442F7
:1045A0000ED0114884420BD01048844208D01048E5
:1045B000844205D00F48844202D00F48844200D183
:1045C00004E040F242210DA000F024FDA088C0F3D9
:1045D000080010BD001001400044004000480040A9
:1045E000004C0040005000400014014000780040A2
:1045F000007C004000180140001C01405374645FBF
:104600005065726970684472697665725C73726332
:104610005C73746D3332663478785F75736172746D
:104620002E63000070B504460D46184884421AD027
:104630001748844217D01748844214D01648844241
:1046400011D0164884420ED0154884420BD015482C
:10465000844208D01448844205D01448844202D0D1
:104660001348844200D104E040F2322111A000F04E
:10467000D1FCB5F5007F00DA04E040F233210DA053
:1046800000F0C8FCC5F30800A08070BD0010014018
:104690000044004000480040004C004000500040F2
:1046A0000014014000780040007C004000180140E8
:1046B000001C01405374645F5065726970684472F5
:1046C000697665725C7372635C73746D33326634E1
:1046D00078785F75736172742E63000000BFFEE727
:1046E00003B401984100009850EAC12018BF04208B
:1046F0004A0D18BF40F0010040F2FF72B2EB515F6B
:1047000008BF40F00200012808BF052002B0704732
:104710004100080218BF04200A0E18BF40F0010033
:104720004FF07F4232EA010108BF40F00200012849
:1047300008BF05207047000010B510EE100A2DEDDF
:10474000068BB7EE001A10EE901AB0EE418A0022E6
:10475000A0F5000CDFEDFE9A4FF00073BCF1FE4FA8
:104760004FF07F4403EB410C80F0B481BCF1804FEB
:10477000C0F02082F74901449FEDF73AB1F5005FA0
:1047800040F2D48200F58021CB0C03F00F0101EE42
:10479000901AC3F307137F3BA0EBC350B8EEE12A96
:1047A00000EE100A1A44DFEDED2AF0EE411A42EE57
:1047B000221AF0EE613A70EE232A30EE632A12EEEE
:1047C000900A00F500606FF30B0001EE900A73EEA3
:1047D000E13A33EE804AC1EE223A22EE230A10EE8D
:1047E000100A00F500606FF30B0000EE100A00EEF7
:1047F000612A00EE442A62EE232A70EE221A21EE8C
:10480000A12ADFEDD73A02EE233A23EE023A20EE58
:10481000012A22EE811A03EE211A32EE010A10EE6D
:10482000100A00F500606FF30B0000EE100A72EE44
:10483000401A31EE812A9FEDCB1A60EE011A9FEDEE
:10484000CA1A20EE011A9FEDC90A02EE001A31EED3
:10485000810A10EE100A00F500606FF30B0000EE05
:10486000100AC34871EEC01A31EE812A784400EB79
:10487000C10090ED003AD0ED011A100101EE100ACE
:10488000F8EEC12A32EE211A31EE001A31EE031A87
:1048900031EE221A11EE100A00F500606FF30B00E2
:1048A00009EE100A39EE621A31EE431A31EE400A6F
:1048B00030EE610A32EE40AA10EE900A002100F5B7
:1048C00000606FF30B0008EE900A084670EEE8AA4D
:1048D0004FF0000029EE280A00F00C01F0EEC00AAB
:1048E00010EE900AB0F18B4F0DDD10EE900AB4EB94
:1048F000400F08D310EE100A4FF08B4262F31E00F7
:1049000008EE900A13E069EE2A0A38EEAA1A4AEE77
:10491000010A30EE201A11EE100A00F500606FF364
:104920000B0008EE900A30EE680A70EE209A0C2018
:104930004FF0000038EEA90AB5EEC00AF1EE10FA09
:1049400034BFFEEE000AF6EE000A30EE800ABDEE3D
:10495000C00A10EE100A011100EE101AF8EEC00A9B
:1049600000EE100AB8EEC00A38EEC00A30EE290A8E
:10497000DFED801A9FED801A00EE211ADFED7F1A1D
:104980007F4900F00F0040EE011A21EE800A7944C1
:1049900001EB800191ED001A7A49794401EB800125
:1049A000D1ED001A784901EE801A794401EB8000BC
:1049B000764990ED000A31EE001AB0EEE00A10EEF2
:1049C000100A884215DA10EE100AB4EB400F10D32B
:1049D0009FED6F0A30EE800ADFED6E0A20EE200AAE
:1049E00068EE010ABDEC068BBCEEC00A20EE200A80
:1049F00010BD10EE100A6849884243DA10EE100A22
:104A0000B4EB400F3ED3BDEEE00A68EE010A10EEB3
:104A1000100A00EBD0725110C90501F17E5100EE71
:104A2000101AA0EB6200C00560EE200A00F17E5073
:104A300000EE100A60EE808A18EE900AB4EB400F88
:104A40000FD10220FBF708FE00F0BEF910EE101A9D
:104A500018EE100ABDEC068B61F31E0000EE100A82
:104A600010BD18EE900A400011D018EE900AFFF722
:104A70004FFE042808BF00F0AFF9B0EE680ABDECA5
:104A8000068B10BDF5EEC00AF1EE10FA0FD202202F
:104A9000FBF7E2FD00F0A0F910EE101A18EE100A74
:104AA000BDEC068B61F31E0000EE100A10BD022063
:104AB000FBF7D2FD00F088F910EE101AB0EE480AAC
:104AC00010EE100ABDEC068B61F31E0000EE100A1A
:104AD00010BD00BFBCF1804F6CD300BF00F1FF439D
:104AE000B3F1FE4F24D200BFB0EEC00A10EE100AA0
:104AF000C1F3C7537F2B0DDB972BBFF63BAEC3F142
:104B000096034FF0010C0CFA03F3A3F1010C1CEA1D
:104B1000010F08D00120FBF79FFDBDEC068BBDE81F
:104B2000104000F049B90B4218BFBFEE008A21E6E1
:104B300043001CBF4FF08073B3EB400F34D96FF0CC
:104B40001A02DFED161A20EE210A10EE100A27E0F5
:104B500000000000001080C0ABAAAA3E0000803D0B
:104B60007EE24C3E00B03842D49AB8BB3BAA3842F1
:104B700030530000FC596337C9FF753A1872313D54
:104B8000CE52000002530000725200000000FC42AE
:104B90000000FE420000004B000040430000004DBA
:104BA00010F0004FA0D1E5E5A0F50003B3F1FE4FF2
:104BB00021D2DFE503EB4103B3F1007F11D3F5EE22
:104BC000C00AF1EE10FA05D1430018BFB4EB400F54
:104BD00076D883E701F0004141F0FC5100EE901AD5
:104BE0007CE7B3F1807F06D210EE903AA3F5000384
:104BF00000EE903A72E720F000426FF0FF4C604CFC
:104C000002EB0C03A34210D321F000439C44A445C3
:104C10000BD3B0F17E5F18BF5FEA410C50D0B2F108
:104C2000FF4F98BFB3F1FF4F05D9BDEC068BBDE830
:104C3000104000F0BDB8B0F1FF4F0FD0C1F3C75224
:104C40007F2A09DB972A11DAC2F19602012303FABF
:104C500002F2531E0B4205D0002208E011F0004F73
:104C600055D128E00A4218BF012200D1022210F5D6
:104C7000000F13D028B3B0F1004F26D010F1814FB0
:104C80004FD04FF0FE42B2EB400F94BF0120002006
:104C9000012202EBE171884239D10CE011F0004FA2
:104CA00002D0012A38D032E0012A02BF9FED350A36
:104CB000BDEC068B10BD9FED340ABDEC068B10BD1C
:104CC0002FE011F0004F0CD121E0B1F1FF4F1ED0C9
:104CD00011F5000F05D011F0004F15D00AB1012ACF
:104CE00008D00220FBF7B8FCBDEC068BBDE81040F5
:104CF00000F054B80220FBF7AFFC00F04FF8BDEC19
:104D0000068BB1EE400A10BD0AB1012A04D0B0EE04
:104D1000690ABDEC068B10BDBDEC068B9FED1B0A2E
:104D200010BDBDEC068BB7EE000A10BD30EE410A97
:104D3000B5EE001A9FED172A00EE413AB6EE001AC2
:104D400060EE001A00EE431A61EEC11A9FED101AD0
:104D500020EE011A20EE020A9FED0F2A01EE820AD0
:104D600071EE001A11EE900A00F500606FF30B006F
:104D700009EE100A31EE491A31EE00AA9CE5000056
:104D8000FFFF3F00000080FF0000807F00000080E8
:104D900000B0B841D49A38BB3BAAB841DFED030A52
:104DA000B7EE001A81EE200A7047000000000000F4
:104DB00030EE200A70470000DFED020A80EEA00A04
:104DC00070470000000000009FED020A20EE000A7C
:104DD00070470000000000709FED020A20EE000AFC
:104DE000704700000000001030380A2801D201206E
:104DF00070470020704700002DED108B86B09FEDAE
:104E0000710A10EE105A9FED6F0A10EE104A9FEDD6
:104E10006D0A10EE106AD4E06B48408800EE100A6C
:104E2000B8EE400AF0EE080A20EE200ADFED670A2D
:104E300080EE201A11EE105A654890ED030AF3EE49
:104E4000090A30EE600A10EE101A084604F022FE3D
:104E500041EC1C0B9FED5F0B53EC102B04F032FC6C
:104E600041EC1B0B9FED5D0B53EC102B04F016FA7D
:104E700041EC190B284604F00DFE41EC1A0B53ECE3
:104E8000192B04F0B3FA41EC180B04F0D5F90446E1
:104E9000204604F0FFFD41EC1B0B9FED520B53EC41
:104EA000102B04F00FFC41EC1A0B204604F0F2FD2D
:104EB00041EC1C0B204604F0EDFD41EC1E0B9FED78
:104EC0004B0B53EC102B04F0FDFB41EC1D0B53EC92
:104ED0001C2B04F0F7FB41EC1B0B204604F0DAFD21
:104EE00041EC1C0B204604F0D5FD41EC1E0B204686
:104EF00004F0D0FD41EC1F0B9FED3E0B53EC102B4B
:104F000004F0E0FB53EC1E2BCDE900019DED000BFE
:104F100051EC100B04F0D6FB41EC1D0B53EC1C2B99
:104F200004F0D0FB53EC1B2BCDE902019DED020BED
:104F300051EC100B04F0C4FC53EC1A2BCDE9040126
:104F40009DED040B51EC100B04F0A8F941EC190B8A
:104F50009FED2A0B53EC102B04F0B4FB41EC180B23
:104F600004F06AF91A4908601748008800EE100A30
:104F7000B8EE400AF0EE080A20EE200ADFED130A30
:104F800080EE201A11EE106A304604F083FD41ECE9
:104F90001A0B9FED1C0B53EC102B04F093FB41EC10
:104FA000190B9FED1A0B53EC102B04F077F941EC21
:104FB000180B04F041F9064948604FF4FA7002F00A
:104FC000AFFE29E7000000000000002000F07F4550
:104FD000000200207B14AE47E17A943F00000000FD
:104FE0000000F03F85EB51B81ECB8A40EC51B81E53
:104FF00085FB6F403D0AD7A370AD60400000000004
:105000000000E03F0000000000000C403333333369
:105010003333F33F00BFFEE710B5002204211248EE
:10502000FDF798FD4FF4167000F0EAFE012204210E
:105030000D48FDF78FFD642000F0E2FE04210A48D0
:10504000FDF7FCFC50B94FF4FA7000F0D9FE0122D4
:1050500051030648FDF77EFD012010BD4FF4FA70A4
:1050600000F0CEFE0020F8E700040240000C0240F1
:1050700010B5002204210E48FDF76CFD022000F05F
:10508000BFFE012204210A48FDF764FD0A2000F05A
:10509000B7FE04210648FDF7D1FC20B93A2000F004
:1050A000AFFE002010BD3A2000F0AAFE0120F9E773
:1050B0000004024070B50025002406E0FFF7D8FF89
:1050C000A0402843C5B2601CC4B2082CF6DB2846B9
:1050D00070BD00002DE9F0412DED028B01259FED03
:1050E000150AB0EE408AFFF7E5FF0646FFF7E2FF3C
:1050F000074646EA07286C1F14E008EA050058B185
:1051000000EE104AF8EEC00AB0EE000AFFF714FBFA
:1051100030EE080AB0EE408A4FF6FF7000EA45050F
:10512000601C44B2072CE8DBB0EE480ABDEC028BF1
:10513000BDE8F0810000000010B50446204600F0F4
:1051400013F8442C06D100BF04210348FDF776FC78
:105150000028F9D010BD00000004024010B504463C
:10516000204600F001F810BD2DE9F041044601256C
:1051700004EA0507002627E087B10022042114482D
:10518000FDF7E8FC032000F03BFE0122042110485B
:10519000FDF7E0FC5A2000F033FE0FE0002204216E
:1051A0000B48FDF7D7FC5A2000F02AFE012204210B
:1051B0000748FDF7CFFC032000F022FE6806050E2D
:1051C00004EA0507701CC6B2082ED5DBBDE8F081E5
:1051D000000402409BE14FF0FF31CD48006803F02E
:1051E00005FC0128F6D100231A461946C948006873
:1051F00003F086F9C84800781C286ED2DFE800F07A
:105200000E13181D22272C31363B40454A4F545966
:105210005E63686E9673787D82878C91BF48006864
:1052200002F07CFF83E0BE48006802F077FF7EE07A
:10523000BC48006802F072FF79E0BB48006802F0E9
:105240006DFF74E0B948006802F068FF6FE0B8488D
:10525000006802F063FF6AE0B648006802F05EFF93
:1052600065E0B548006802F059FF60E0B3480068A7
:1052700002F054FF5BE0B248006802F04FFF56E0D6
:10528000B048006802F04AFF51E0AF48006802F001
:1052900045FF4CE0AD48006802F040FF47E0AC48F5
:1052A000006802F03BFF42E0AA48006802F036FFC7
:1052B0003DE0A948006802F031FF38E0A7480068E7
:1052C00002F02CFF33E0A648006802F027FF2EE032
:1052D000A448006802F022FF29E027E0A248006805
:1052E00002F01CFF23E0A148006802F017FF1EE057
:1052F0009F48006802F012FF19E09E48006802F023
:105300000DFF14E09C48006802F008FF0FE09B4886
:10531000006802F003FF0AE09948006802F0FEFE10
:1053200005E09848006802F0F9FE00E000BF00BF09
:10533000954800781C286FD2DFE800F00E161E2674
:105340002E363E464E565E666F777F878F979FA7B5
:10535000E7AFB7BFC7CFD7DF01208C4908706F48D0
:10536000006802F049FED1E00120884908706C48CD
:10537000006802F041FEC9E00120844908706948D4
:10538000006802F039FEC1E00120804908706648DB
:10539000006802F031FEB9E001207C4908706348E2
:1053A000006802F029FEB1E00120784908706048E9
:1053B000006802F021FEA9E00120744908705D48F0
:1053C000006802F019FEA1E00120704908705A48F7
:1053D000006802F011FE99E001206C4908705748FE
:1053E000006802F009FE91E0012068490870544805
:1053F000006802F001FE89E001206449087051480C
:10540000006802F0F9FD81E00120604908704E4813
:10541000006802F0F1FD79E077E001205B49087057
:105420004A48006802F0E8FD70E001205749087022
:105430004748006802F0E0FD68E001205349087029
:105440004448006802F0D8FD60E001204F49087030
:105450004148006802F0D0FD58E001204B49087037
:105460003E48006802F0C8FD50E00120474908703E
:105470003B48006802F0C0FD48E001204349087045
:105480003848006802F0B8FD40E001203F4908704C
:105490003548006802F0B0FD38E001203B49087053
:1054A0003248006802F0A8FD30E00120374908705A
:1054B0002F48006802F0A0FD28E001203349087061
:1054C0002C48006802F098FD20E001202F49087068
:1054D0002948006802F090FD18E001202B4908706F
:1054E0002648006802F088FD10E001202749087076
:1054F0002348006802F080FD08E00120234908707D
:105500002048006802F078FD00E000BF00BF62E6BE
:10551000CC000020DC000020C1000020E8000020BA
:10552000EC000020F0000020F4000020F800002033
:10553000FC000020000100200401002008010020E0
:105540000C0100201001002014010020180100208F
:105550001C0100202001002024010020280100203F
:105560002C010020300100203401002038010020EF
:105570003C0100204001002044010020480100209F
:105580004C01002050010020C0000020B400002089
:1055900064219B48FBF731F830E14FF0FF31994827
:1055A000006803F023FA0128F6D197480078012813
:1055B000F2D193480078662802D0F5282AD114E069
:1055C0008F4800F02CFC052803D100208F4908707B
:1055D0000AE002208D49087064218948FBF70DF824
:1055E00000208949087020E01FE0854800F017FC82
:1055F000052803DB0120854908700AE00220834961
:10560000087064217E48FAF7F8FF00207E49087090
:105610000BE00AE002207D49087064217848FAF71F
:10562000ECFF00207849087000BF00BF7748007881
:1056300000286FD1724840781C287DD2DFE800F046
:105640000E12161A1E22262A2E32363A3E42464A9A
:105650004E52565A7C5E62666C70747800206C49BB
:1056600008706DE001206A49087069E0022068490D
:10567000087065E003206649087061E00420644911
:1056800008705DE005206249087059E00620604915
:10569000087055E007205E49087051E008205C4919
:1056A00008704DE009205A49087049E00A2058491D
:1056B000087045E00B205649087041E00C20544921
:1056C00008703DE00D205249087039E00E20504925
:1056D000087035E00F204E49087031E010204C4929
:1056E00008702DE011204A49087029E0122048492D
:1056F000087025E013204649087021E01520444930
:1057000008701DE016204249087019E01720404932
:10571000087015E02AE00FE018203D4908700FE0FE
:1057200019203B4908700BE01A203949087007E03E
:105730001B203749087003E01C203549087000BF62
:1057400000BF00203049087000231A46194631482E
:10575000006802F0D5FE64212948FAF74EFF642163
:105760002D48FAF74AFF00202C4908702748007896
:10577000012843D142F210712948006803F036F93C
:1057800001283BD11E4840782149097888422ED112
:105790001B4880782149087064211F48FAF72DFFC3
:1057A000002000BF164AC11C515CFF2908D1011D11
:1057B000515CFF2904D1411D515CFF2900D106E055
:1057C0000F4AC11C515C144A1154401CEAE700BF47
:1057D00000231A4619461348006802F091FE002083
:1057E0000949087064210648FAF707FF06E000201F
:1057F0000549087064210248FAF7FFFECDE6000073
:10580000A0120020C8000020C3000020C200002019
:10581000C0000020CC00002004130020C60000209F
:10582000DC000020E00000201CB5FEF7A5FBFCF723
:10583000DBFEFDF7B3FAFCF7D3F8FDF777FFFCF7D3
:1058400087FD03220021012002F0E4FDC049086029
:1058500003220021012002F0DDFDBE490860032281
:105860000021012002F0D6FDBB490860032200217F
:10587000012002F0CFFDB949086003220021012078
:1058800002F0C8FDB649086003220021012002F0A1
:10589000C1FDB449086003220021012002F0BAFDD5
:1058A000B149086003220021012002F0B3FDAF4995
:1058B000086001220421AE48FDF74CF901220821BD
:1058C000AB48FDF747F90020012103468222CDE9CC
:1058D0000010A8A1AD4803F0ABF900200121034658
:1058E0008222CDE90010AAA1AC4803F0A1F9AC488E
:1058F000012100238222CDE90010AAA1AC4803F0C7
:1059000097F9AC48012100238222CDE90010AAA119
:10591000AC4803F08DF9AC48012100238222CDE987
:105920000010AAA1AC4803F083F9AC480121002380
:105930008222CDE90010AAA1AB4803F079F9AB4867
:10594000012100238222CDE90010A9A1AB4803F078
:105950006FF9AB48012100238222CDE90010A9A1F3
:10596000AA4803F065F9AA48012100238222CDE963
:105970000010A8A1AA4803F05BF9AA48012100235E
:105980008222CDE90010A8A1AA4803F051F9AA4843
:10599000012100238222CDE90010A8A1AA4803F02A
:1059A00047F9AA48012100238222CDE90010A8A1CD
:1059B000AA4803F03DF9AA48012100238222CDE93B
:1059C0000010A8A1AB4803F033F9AB480121002334
:1059D0008222CDE90010A9A1AB4803F029F9AB4818
:1059E000012100238222CDE90010A9A1AB4803F0D8
:1059F0001FF9AB48012100238222CDE90010A9A1A3
:105A0000AB4803F015F9AB48012100238222CDE910
:105A10000010A9A1AB4803F00BF9AB48012100230A
:105A20008222CDE90010A9A1AB4803F001F9AB48EF
:105A3000012100238222CDE90010A9A1AB4803F087
:105A4000F7F8AB48012100238222CDE90010A9A17B
:105A5000AB4803F0EDF8AB48012100238222CDE9E9
:105A60000010A9A1AC4803F0E3F8AC4801210023E1
:105A70008222CDE90010AAA1AD4803F0D9F8AD48C3
:105A8000012100238222CDE90010ABA1AD4803F033
:105A9000CFF8AD48012100238222CDE90010ABA14F
:105AA000AD4803F0C5F8AD48012100238222CDE9BD
:105AB0000010ABA1AD4803F0BBF8AD4801210023B5
:105AC0008222CDE90010ABA1AE4803F0B1F8AE4898
:105AD000012100238222CDE90010ACA1AE4803F0E1
