:020000040800F2
:10000000700B0020290300088D12000885120008DB
:10001000891200085B060008D522000800000000D5
:10002000000000000000000000000000690200085D
:10003000010E000800000000C5020008911600082B
:100040004303000843030008430300084303000878
:100050004303000843030008430300084303000868
:100060004303000843030008430300084303000858
:100070004303000843030008430300084303000848
:100080004303000843030008430300084303000838
:100090004303000843030008430300084303000828
:1000A0004303000843030008430300084303000818
:1000B0004303000843030008430300084303000808
:1000C00043030008430300084303000843030008F8
:1000D00043030008430300082D17000843030008EA
:1000E00043030008430300084303000843030008D8
:1000F00043030008430300084303000843030008C8
:1001000043030008430300084303000843030008B7
:1001100043030008430300084303000843030008A7
:100120004303000843030008430300084303000897
:100130004303000843030008430300084303000887
:100140004303000843030008430300084303000877
:100150004303000843030008430300084303000867
:100160004303000843030008430300084303000857
:100170004303000843030008430300084303000847
:10018000430300084303000800F002F800F05CF8A5
:100190000AA090E8000C82448344AAF10107DA45E2
:1001A00001D100F051F8AFF2090EBAE80F0013F0D8
:1001B000010F18BFFB1A43F0010318473C2400004D
:1001C0005C2400000A444FF0000C10F8013B13F0CF
:1001D000070408BF10F8014B1D1108BF10F8015BA0
:1001E000641E05D010F8016B641E01F8016BF9D193
:1001F00013F0080F1EBF10F8014BAD1C0C1B09D1EA
:100200006D1E58BF01F801CBFAD505E014F8016B5B
:1002100001F8016B6D1EF9D59142D6D370470000ED
:100220000023002400250026103A28BF78C1FBD8FF
:10023000520728BF30C148BF0B6070471FB502F09E
:10024000D5F91FBD10B510BD00F0CDF91146FFF76F
:10025000F5FF02F043F800F0EBF903B4FFF7F2FF0B
:1002600003BC00F0F3F900002C4B19680868B0E8F3
:10027000F04F80F30988BFF36F8F4FF0000080F3D9
:10028000118870470000000008480068006880F38B
:1002900008884FF0000080F3148862B661B6BFF39F
:1002A0004F8FBFF36F8F00DF00BF00BF08ED00E08E
:1002B000DFF80C00016841F470010160704700BF75
:1002C00088ED00E0EFF30980BFF36F8F134B1A68DE
:1002D0001EF0100F08BF20ED108A20E9F04F1060CB
:1002E00009B44FF0500080F31188BFF34F8FBFF374
:1002F0006F8F02F091F84FF0000080F3118809BC75
:1003000019680868B0E8F04F1EF0100F08BFB0EC95
:10031000108A80F30988BFF36F8F704708040020AC
:10032000EFF30580704700000948804709480047FF
:10033000FEE7FEE7FEE7FEE7FEE7FEE7FEE7FEE795
:10034000FEE7FEE704480549054A064B70470000F2
:10035000C51600088901000870050020700B0020F8
:10036000700700207007002010B5431C02E010F851
:10037000011B71B18107FAD14FF0013202C88C1A0A
:100380008C4314EAC211F9D0C01A0A0603D0C01E69
:1003900010BDC01A10BD0A0401D0801E10BD090294
:1003A000FCD0401E10BD032A40F2308010F0030C38
:1003B00000F0158011F8013BBCF1020F624498BFB8
:1003C00011F801CB00F8013B38BF11F8013BA2F155
:1003D000040298BF00F801CB38BF00F8013B11F0D0
:1003E000030300F09180083AC0F0088051F8043B04
:1003F000083A51F804CBA0E80810F5E7121D5CBFDD
:1004000051F8043B40F8043BAFF30080D20724BF0F
:1004100011F8013B11F801CB48BF11F8012B24BFA3
:1004200000F8013B00F801CB48BF00F8012B7047F2
:10043000431A28BF9A427FF6B6AF032A10441144EC
:1004400040F2268010F0030F1EBF11F8013D521E2E
:1004500000F8013D10F0030F7FF4F6AF11F0030335
:1004600000F09780083AC0F00B8051F8043D083A3C
:1004700051F804CD40F8043D40F804CDFFF7F3BF38
:10048000121D5CBF51F8043D40F8043DAFF30080FD
:10049000D20724BF11F8013D11F801CD48BF11F872
:1004A000012C24BF00F8013D00F801CD48BF00F841
:1004B000012C70474FF0000200B513469446964653
:1004C000203922BFA0E80C50A0E80C50B1F1200167
:1004D000BFF4F7AF090728BFA0E80C5048BF0CC015
:1004E0005DF804EB890028BF40F8042B08BF704773
:1004F00048BF20F8022B11F0804F18BF00F8012BE5
:10050000704770477047704710B5203AC0F00B80B5
:10051000B1E81850203AA0E81850B1E81850A0E807
:100520001850BFF4F5AF5FEA027C24BFB1E8185061
:10053000A0E8185044BF18C918C0BDE810405FEAD1
:10054000827C24BF51F8043B40F8043B08BF70474D
:10055000D20728BF31F8023B48BF11F8012B28BF52
:1005600020F8023B48BF00F8012B7047431A28BF10
:100570009A427FF6C9AF104410F0030F11441EBF1A
:1005800011F8013D521E00F8013D10F0030F7FF4F9
:10059000F6AF103AC0F00A8010B531E91850103AA1
:1005A00020E91850BFF4F9AFBDE81040530724BF4D
:1005B00031E9081020E9081044BF51F8043D40F823
:1005C000043D12F0030F08BF7047D20728BF31F86F
:1005D000023D48BF11F8012C28BF20F8023D48BF5A
:1005E00000F8012C7047754600F02CF8AE46050067
:1005F0006946534620F00700854618B020B5FFF73E
:10060000A1FEBDE820404FF000064FF000074FF07C
:1006100000084FF0000B21F00701AC46ACE8C00920
:10062000ACE8C009ACE8C009ACE8C0098D46704729
:1006300010B50446AFF300802046BDE81040FFF738
:100640000CBE0000004870470C050020014918202E
:10065000ABBEFEE726000200704700BFFEE70000C9
:100660001CB50121082000F0B3FE4FF4405000906B
:1006700001208DF8040003208DF8050000208DF87E
:1006800006008DF8070069460A4800F0BBFB012010
:10069000009000208DF8040003208DF80500002054
:1006A0008DF806008DF807006946034800F0AAFBA4
:1006B0001CBD0000000C02400000024070B5044662
:1006C0000D46344884423AD032481830844236D0FD
:1006D00030483030844232D02E48483084422ED0C8
:1006E0002C48603084422AD02A487830844226D070
:1006F00028489030844222D02648A83084421ED018
:10070000254884421BD024481830844217D0224800
:100710003030844213D02048483084420FD01E48E5
:10072000603084420BD01C487830844207D01A488D
:100730009030844203D01848A830844200D104E0AD
:1007400040F2344115A001F0C7FD05F04050B0F172
:10075000405F07D005F0405020B11D48284008B93F
:1007600005B104E040F235410CA001F0B5FD0A48A6
:10077000844202D2074E103E01E0074E103E05F0C3
:10078000005018B113482840F06002E0114828409A
:10079000B06070BD10600240106402402E2E5C46B6
:1007A00072656552544F535C5374645F506572694F
:1007B00070684472697665725C7372635C73746DA1
:1007C0003332663478785F646D612E630000000018
:1007D00082F002C07D0F7D0F70B504460D462C4897
:1007E00084423AD02A481830844236D028483030E3
:1007F000844232D02648483084422ED0244860308B
:1008000084422AD022487830844226D02048903032
:10081000844222D01E48A83084421ED01D48844203
:100820001BD01C481830844217D01A4830308442FC
:1008300013D01848483084420FD0164860308442A4
:100840000BD014487830844207D01248903084424C
:1008500003D01048A830844200D104E040F2E111F6
:100860000DA001F039FD0DB1012D00D104E04FF4D0
:10087000F17109A001F030FD25B1206840F00100C0
:10088000206003E0206820F00100206070BD0000BF
:1008900010600240106402402E2E5C467265655264
:1008A000544F535C5374645F50657269706844724E
:1008B000697665725C7372635C73746D333266342F
:1008C00078785F646D612E63000000002DE9F041CF
:1008D00005460C464FF000080027724885423AD082
:1008E00070481830854236D06E483030854232D05C
:1008F0006C48483085422ED06A48603085422AD004
:1009000068487830854226D066489030854222D0AB
:100910006448A83085421ED0634885421BD0624897
:100920001830854217D060483030854213D05E4879
:10093000483085420FD05C48603085420BD05A4821
:100940007830854207D058489030854203D05648C9
:10095000A830854200D104E040F2F33153A001F009
:10096000BBFC5F4884427CD05D481038844278D01C
:100970005B481838844274D05A48844271D0C01EF3
:1009800084426ED0584884426BD05848844268D024
:100990005748844265D05248E030844261D0504884
:1009A000203084425DD0B4F1815F5AD051488442F6
:1009B00057D05148844254D05048844251D0504876
:1009C00084424ED0B4F1C05F4BD0B4F1A05F48D0A8
:1009D000B4F1905F45D0B4F1885F42D0B4F1825F4A
:1009E0003FD0484884423CD046481038844238D0F2
:1009F00044481838844234D0001F844231D0C01E8D
:100A000084422ED0404884422BD04048844228D093
:100A10003F48844225D03B48E030844221D03948C9
:100A2000203084421DD03B4884421AD03A48844248
:100A300017D03A48844214D03948844211D03948FA
:100A400084420ED0B4F1205F0BD0B4F1105F08D017
:100A5000B4F1085F05D0B4F1045F02D0B4F1015FD6
:100A600000D104E04FF47D7110A001F035FC0E4878
:100A7000854202D20B4E103E01E00B4E103E04F0B8
:100A8000005008B1776800E037682748074007EA58
:100A9000040010B14FF0010801E04FF0000840469B
:100AA000BDE8F08110600240106402402E2E5C46CA
:100AB00072656552544F535C5374645F506572693C
:100AC00070684472697665725C7372635C73746D8E
:100AD0003332663478785F646D612E630000000005
:100AE0002000001004008010000800100004001016
:100AF0000002001000001010000008100000041098
:100B00000000011020000020000800200004002048
:100B1000000200200000202000001020000008201B
:100B200000000420000001207D0F7D0F70B50546F8
:100B30000C460026A24885423AD0A148183085428A
:100B400036D09F483030854232D09D48483085426B
:100B50002ED09B48603085422AD099487830854213
:100B600026D097489030854222D09548A8308542BB
:100B70001ED0944885421BD092481830854217D029
:100B800090483030854213D08E48483085420FD08F
:100B90008C48603085420BD08A487830854207D037
:100BA00088489030854203D08648A830854200D1DD
:100BB00004E04FF4A27184A001F08EFB2068D8B14C
:100BC0002068B0F1007F17D02068B0F1806F13D09B
:100BD0002068B0F1C06F0FD02068B0F1006F0BD06B
:100BE0002068B0F1206F07D02068B0F1406F03D0CB
:100BF0002068B0F1606F00D104E040F2451172A0AE
:100C000001F06AFBE06828B1E068402802D0E068A3
:100C1000802800D104E04FF4A3716BA001F05CFBCD
:100C2000206920B12069B0F5803F00D204E040F295
:100C3000471165A001F050FB6069B0F5007F01D05D
:100C4000606900B904E04FF4A4715FA001F044FBB7
:100C5000A069B0F5806F01D0A06900B904E040F24E
:100C6000491159A001F038FBE06938B1E069B0F5ED
:100C7000006F03D0E069B0F5805F00D104E04FF46D
:100C8000A57151A001F028FB206A38B1206AB0F5A7
:100C9000005F03D0206AB0F5804F00D104E040F23D
:100CA0004B1149A001F018FB606A18B1606AB0F5F9
:100CB000807F00D104E04FF4A67143A001F00CFB4B
:100CC000A06A58B1A06AB0F5803F07D0A06AB0F51D
:100CD000003F03D0A06AB0F5403F00D104E040F2ED
:100CE0004D1139A001F0F8FAE06A10B1E06A042869
:100CF00000D104E04FF4A77133A001F0EDFA206BAE
:100D000040B1206B012805D0206B022802D0206B57
:100D1000032800D104E040F24F112BA001F0DCFACF
:100D2000606B58B1606BB0F5000F07D0606BB0F12D
:100D3000807F03D0606BB0F1C07F00D104E04FF43E
:100D4000A87121A001F0C8FAA06B58B1A06BB0F552
:100D5000001F07D0A06BB0F5800F03D0A06BB0F5DB
:100D6000C00F00D104E040F2511117A001F0B4FA15
:100D70002E6822480640E1682068084361690843FC
:100D8000A1690843E1690843216A0843616A08438D
:100D9000A16A0843616B0843A16B084306432E60B8
:100DA0006E6926F00706D4E90B01084306436E611D
:100DB000206968606068A860A068E86070BD000095
:100DC00010600240106402402E2E5C46726565522F
:100DD000544F535C5374645F506572697068447219
:100DE000697665725C7372635C73746D33326634FA
:100DF00078785F646D612E63000000003F801CF016
:100E0000704700002DE9F04104460D4600260027FA
:100E1000B046544884421DD0534884421AD05348A7
:100E2000844217D05248844214D05248844211D090
:100E3000514884420ED0514884420BD050488442DD
:100E400008D05048844205D04F48844202D04F48D1
:100E5000844200D103E0D1214DA001F03DFA288861
:100E600080B200B103E0D22149A001F035FA28791F
:100E700040B12879012805D02879022802D02879A4
:100E8000032800D103E0D32141A001F025FAE8793D
:100E900028B1E879012802D0E879022800D103E0DE
:100EA000D4213BA001F018FA002657E0012000FAF7
:100EB00006F7286800EA0708B8454ED12068720096
:100EC000032191408843206028797100884021687F
:100ED000084320602879012802D02879022830D1DF
:100EE000687940B16879012805D06879022802D074
:100EF0006879032800D103E0E62125A001F0ECF990
:100F0000A0687200032191408843A0606879710055
:100F10008840A1680843A060A87910B1A879012889
:100F200000D103E0ED211AA001F0D6F9616801209B
:100F3000B040814361606168A879B04080B20143EC
:100F40006160E0687200032191408843E060E879C5
:100F500071008840E1680843E060761C102EA5D33C
:100F6000BDE8F08100000240000402400008024099
:100F7000000C024000100240001402400018024021
:100F8000001C0240002002400024024000280240D1
:100F90005374645F506572697068447269766572F3
:100FA0005C7372635C73746D3332663478785F6738
:100FB00070696F2E630000002DE9F04106460D4672
:100FC00014460027B846544886421DD053488642EE
:100FD0001AD05348864217D05248864214D05248FD
:100FE000864211D0514886420ED0514886420BD0DD
:100FF0005048864208D05048864205D04F48864225
:1010000002D04F48864200D104E040F24B214DA06F
:1010100001F062F9EDB1012D1BD0022D19D0032D85
:1010200017D0042D15D0052D13D0062D11D0072D66
:101030000FD0082D0DD0092D0BD00A2D09D00B2D66
:1010400007D00C2D05D00D2D03D00E2D01D00F2D66
:1010500000D104E04FF413713AA001F03DF9A4B3BC
:10106000092C32D08CB384B37CB374B3012C2CD054
:101070002BD0022C29D028D027D0032C25D0042C0B
:1010800023D022D021D0052C1FD01ED0092C1CD05B
:10109000062C1AD0092C18D0072C16D015D014D035
:1010A000082C12D011D010D0092C0ED00DD00A2C43
:1010B0000BD00AD00B2C08D00C2C06D005D00D2C50
:1010C00003D00F2C01D00C2C00D104E040F24D21B4
:1010D0001CA001F001F96807C00E04FA00F7E9103E
:1010E00006F1200050F821006907CA0E0F21914037
:1010F0008843EA1006F1200141F82200E91006F1C8
:10110000200050F8210040EA0708E91006F120000D
:1011100040F82180BDE8F081000002400004024058
:1011200000080240000C024000100240001402407F
:1011300000180240001C024000200240002402402F
:10114000002802405374645F50657269706844728D
:10115000697665725C7372635C73746D3332663486
:1011600078785F6770696F2E6300000070B5054680
:101170000C4600262E4885421DD02E4885421AD0A6
:101180002D48854217D02D48854214D02C488542E1
:1011900011D02C4885420ED02B4885420BD02B48CD
:1011A000854208D02A48854205D02A48854202D087
:1011B0002948854200D104E04FF4A57127A001F031
:1011C0008BF8012C25D0022C23D0042C21D0082C04
:1011D0001FD0102C1DD0202C1BD0402C19D0802CBF
:1011E00017D0B4F5807F14D0B4F5007F11D0B4F5DA
:1011F000806F0ED0B4F5006F0BD0B4F5805F08D0CF
:10120000B4F5005F05D0B4F5804F02D0B4F5004FBF
:1012100000D104E040F24B1110A001F05DF8286904
:10122000204008B1012600E00026304670BD0000D5
:10123000000002400004024000080240000C02408E
:10124000001002400014024000180240001C02403E
:101250000020024000240240002802405374645FD2
:101260005065726970684472697665725C73726306
:101270005C73746D3332663478785F6770696F2E93
:101280006300000000BFFEE700BFFEE770470000FC
:101290002DE9F0410446002500270F26E07810B123
:1012A000E078012800D103E08D2122A001F014F89C
:1012B0006078102800DA03E08E211EA001F00CF8FF
:1012C000A078102800DA03E08F211AA001F004F8BA
:1012D000E07818B32148006800F4E060C0F5E060F1
:1012E000C0F30725C5F10400C7B22E416078B840AD
:1012F000C5B2A078304005432807050E184821786C
:101300004554207800F01F010120884021784911C0
:10131000890001F1E021C1F8000109E0207800F026
:101320001F01012088400F492278521141F8220004
:10133000BDE8F0812E2E5C4672656552544F535CB9
:101340005374645F5065726970684472697665723F
:101350005C7372635C6D6973632E63000CED00E077
:1013600000E400E080E100E010B50446B4F5E06F71
:101370000BD0B4F5C06F08D0B4F5A06F05D0B4F5AC
:10138000806F02D0B4F5407F00D103E0792104A042
:1013900000F0A2FF0C4820430C49086010BD00007B
:1013A0002E2E5C4672656552544F535C5374645FD5
:1013B0005065726970684472697665725C737263B5
:1013C0005C6D6973632E63000000FA050CED00E0AC
:1013D00070B504460D461048204008B904B104E039
:1013E00040F63C010DA000F077FF0DB1012D00D1BA
:1013F00004E040F63E0109A000F06EFF2DB1114857
:10140000006820430F49086004E00E480068A043CC
:101410000C49086070BD000000E80B015374645F64
:101420005065726970684472697665725C73726344
:101430005C73746D3332663478785F7263632E63E5
:10144000000000003038024070B504460D4604F438
:10145000585008B904B104E040F6B3010CA000F004
:101460003BFF0DB1012D00D104E040F6B40108A00E
:1014700000F032FF2DB11048006820430E4908608B
:1014800004E00D480068A0430B49086070BD0000EF
:101490005374645F506572697068447269766572EE
:1014A0005C7372635C73746D3332663478785F7228
:1014B00063632E630000000040380240F0B5002155
:1014C00000220024022500260223324F3F6807F045
:1014D0000C0121B1042905D0082937D105E02E4F90
:1014E000076036E02D4F076033E02A4F3F1F3F680B
:1014F000C7F38056274F3F1F3F6807F03F036EB189
:10150000264FB7FBF3F7DFF88CC0ACF1040CDCF826
:1015100000C0CCF3881C07FB0CF40CE01E4FB7FB9B
:10152000F3F7DFF870C0ACF1040CDCF800C0CCF3CA
:10153000881C07FB0CF4174F3F1F3F68C7F3014798
:101540007F1C7D00B4FBF5F7076002E0124F0760D7
:1015500000BF00BF0F4F3F6807F0F0010909104FAF
:101560007A5C0768D74047600A4F3F6807F4E0514C
:10157000890A0B4F7A5C4768D7408760054F3F6800
:1015800007F46041490B064F7A5C4768D740C76053
:10159000F0BD0000083802400024F40000127A0078
:1015A000F70300200CB5002001900090344800683B
:1015B00040F480303249086000BF3148006800F4D0
:1015C000003000900198401C0190009818B90198D3
:1015D000B0F5A04FF1D12A48006800F4003010B1F6
:1015E0000120009001E0002000900098012846D1E1
:1015F00023484030006840F0805021494031086065
:101600002048006840F440401E4908601C480830EB
:1016100000681B49083108600846006840F4004033
:1016200008600846006840F4A05008601648091F8A
:101630000860081F006840F08070091F086000BF44
:101640000F48006800F000700028F9D040F20570E3
:101650000E4908600A480830006820F00300084975
:10166000083108600846006840F00200086000BFCA
:1016700003480830006800F00C000828F8D10CBDC1
:101680000038024000700040042A4004003C024040
:1016900010B500BF502080F31188BFF34F8FBFF308
:1016A0006F8F00BF00F0FEFE18B14FF0805004496C
:1016B000086000BF002080F3118800BF10BD00004B
:1016C00004ED00E010B51548006840F470001349BF
:1016D00008601348006840F00100114908600020CC
:1016E0000F49083108600E4800680E4908400C494F
:1016F00008600D48091D0860081F006820F480205C
:10170000091F0860002006490C310860FFF74AFFF6
:101710004FF0006001498039086010BD88ED00E09D
:1017200000380240FFFFF6FE1030002410B540F2F2
:1017300025510E4800F080FA01280BD10B4800F02B
:1017400077FD0B490B4A127888540A480078401CF0
:101750000849087007480078072806D10020054985
:1017600008702021014800F007F810BD0044004037
:10177000ED030020F503002070B504460D46244813
:1017800084421AD02348844217D02348844214D07C
:101790002248844211D0224884420ED021488442FB
:1017A0000BD02148844208D02048844205D02048EC
:1017B000844202D01F48844200D104E040F24551E7
:1017C0001DA000F089FD4FF69F40284008B905B1E3
:1017D00004E040F2465118A000F07EFD05F40070D0
:1017E000B0F5007F11D10A48844208D009488442EC
:1017F00005D00948844202D00A48844200D104E05E
:1018000040F24B510CA000F067FDE843208070BD12
:10181000001001400044004000480040004C0040DF
:10182000005000400014014000780040007C00405F
:1018300000180140001C01405374645F50657269D8
:1018400070684472697665725C7372635C73746D00
:101850003332663478785F75736172742E6300007A
:1018600070B504460D461C4884421AD01B48844279
:1018700017D01B48844214D01A48844211D01A4809
:1018800084420ED0194884420BD01948844208D0B3
:101890001848844205D01848844202D01748844230
:1018A00000D104E04FF4D87115A000F015FD0DB182
:1018B000012D00D104E040F2B11111A000F00CFDA7
:1018C00025B1A08940F40050A08104E0A0894DF624
:1018D000FF710840A08170BD00100140004400402D
:1018E00000480040004C00400050004000140140FF
:1018F00000780040007C004000180140001C0140BE
:101900005374645F50657269706844726976657279
:101910005C7372635C73746D3332663478785F75B0
:10192000736172742E63000000B597B00121084600
:10193000FFF74EFD01214804FFF786FD0121480510
:10194000FFF746FD072202213B48FFF735FB072240
:1019500003213948FFF730FB02208DF848000320AF
:101960008DF8490000208DF84A0001208DF84B00C9
:101970000420119011A93048FFF744FA0820119073
:1019800011A92D48FFF73EFA01212C4800F0ECFB8D
:101990004FF4165013900020ADF85000ADF85200EF
:1019A000ADF85400ADF858000C20ADF8560013A95E
:1019B000224800F0B7FA2248FEF7D6FC0590002036
:1019C0000C900D900E9009904FF4806007900020CD
:1019D0000A901A48001D029000200F90089006906F
:1019E0004FF400300B908002019040200490144886
:1019F000039001A91348FFF799F801210F48FFF759
:101A00002FFF4FF44070FFF7AFFC26208DF8400009
:101A100001208DF8410000208DF8420001208DF852
:101A2000430010A8FFF734FC012240F2255103487F
:101A300000F0C2F917B000BD0000024000440040B1
:101A400004000020A060024070B504460D46164612
:101A5000204884421AD02048844217D01F4884422C
:101A600014D01F48844211D01E4884420ED01E4814
:101A700084420BD01D48844208D01D48844205D0C2
:101A80001C48844202D01C48844200D104E04FF438
:101A90008A611AA000F020FC4FF63F70284008B978
:101AA00005B104E040F2514114A000F015FC0EB164
:101AB000012E00D104E040F2524110A000F00CFCD5
:101AC0001EB1A08A2843A08202E0A08AA843A08277
:101AD00070BD00000010014000440040004800407C
:101AE000004C0040005000400014014000780040CD
:101AF000007C004000180140001C01405374645FEA
:101B00005065726970684472697665725C7372635D
:101B10005C73746D3332663478785F757361727498
:101B20002E63000070B504460D4600262E48844200
:101B30001AD02E48844217D02D48844214D02D4804
:101B4000844211D02C4884420ED02C4884420BD0C1
:101B50002B48844208D02B48844205D02A4884422E
:101B600002D02A48844200D104E040F2155128A056
:101B700000F0B2FB012D13D0802D11D0402D0FD0DD
:101B8000202D0DD0102D0BD0B5F5807F08D0B5F5E8
:101B9000007F05D0082D03D0042D01D0022D00D1E7
:101BA00004E040F216511AA000F096FBB5F5007F54
:101BB00011D10D48844208D00C48844205D00C480D
:101BC000844202D00D48844200D104E040F21B510F
:101BD0000FA000F081FB2088284008B1012600E01A
:101BE0000026304670BD0000001001400044004057
:101BF00000480040004C00400050004000140140EC
:101C000000780040007C004000180140001C0140AA
:101C10005374645F50657269706844726976657266
:101C20005C7372635C73746D3332663478785F759D
:101C3000736172742E6300002DE9F04704460D466F
:101C400000270026B046B146474884421AD047488C
:101C5000844217D04648844214D04648844211D06A
:101C6000454884420ED0454884420BD044488442C3
:101C700008D04448844205D04348844202D04348B7
:101C8000844200D104E040F2695141A000F024FBFD
:101C9000282D27D040F22770854223D040F22660BD
:101CA00085421FD040F2255085421BD040F224408F
:101CB000854217D040F64600854213D040F66A10A0
:101CC00085420FD0B5F5587F0CD040F225308542C3
:101CD00008D0B5F5587F05D0B5F5187F02D0B5F519
:101CE000B07F00D104E040F26A5129A000F0F4FA7C
:101CF00040F66A10854211D11B48844208D01B4827
:101D0000844205D01A48844202D01C48844200D143
:101D100004E040F26F511EA000F0DEFAC5F3421855
:101D200005F01F06012000FA06F6B8F1010F02D1F6
:101D3000A089064007E0B8F1020F02D1208A0640D0
:101D400001E0A08A06402F12012000FA07F7208840
:101D500007401EB117B14FF0010901E04FF0000933
:101D60004846BDE8F08700000010014000440040F4
:101D700000480040004C004000500040001401406A
:101D800000780040007C004000180140001C014029
:101D90005374645F506572697068447269766572E5
:101DA0005C7372635C73746D3332663478785F751C
:101DB000736172742E6300002DE9F04704460D46EE
:101DC00017464FF00008C246C146002641488442EB
:101DD0001AD04148844217D04048844214D0404829
:101DE000844211D03F4884420ED03F4884420BD0F9
:101DF0003E48844208D03E48844205D03D48844253
:101E000002D03D48844200D104E040F2D6413BA0DC
:101E100000F062FA282D19D040F22770854215D0C3
:101E200040F22660854211D040F2255085420DD007
:101E300040F22440854209D040F64600854205D054
:101E400040F66A10854201D0602D00D104E040F2D6
:101E5000D7412AA000F040FA0FB1012F00D104E0D1
:101E60004FF49B6125A000F037FA40F66A108542D6
:101E700011D11848844208D01748844205D0174829
:101E8000844202D01848844200D104E040F2DD418F
:101E90001AA000F021FA2646C5F3421805F01F0AE1
:101EA000012000FA0AF9B8F1010F01D10C3605E062
:101EB000B8F1020F01D1103600E0143627B13068B6
:101EC00040EA0900306003E0306820EA0900306031
:101ED000BDE8F08700100140004400400048004089
:101EE000004C0040005000400014014000780040C9
:101EF000007C004000180140001C01405374645FE6
:101F00005065726970684472697665725C73726359
:101F10005C73746D3332663478785F757361727494
:101F20002E6300002DE9FF4704460D460026B1460A
:101F300000BFB046774884421AD07748844217D011
:101F40007648844214D07648844211D07548844241
:101F50000ED0754884420BD07448844208D074482F
:101F6000844205D07348844202D07348844200D131
:101F700004E04FF4807171A000F0AEF9286820B140
:101F800078492868884200D204E040F201116BA031
:101F900000F0A2F9A88818B1A888B0F5805F00D138
:101FA00004E04FF4817165A000F096F9E88858B11B
:101FB000E888B0F5805F07D0E888B0F5005F03D00F
:101FC000E888B0F5405F00D104E040F203115BA067
:101FD00000F082F9288938B12889B0F5806F03D0E4
:101FE0002889B0F5C06F00D104E04FF4827153A08E
:101FF00000F072F968894FF6F371084010B96889EA
:1020000000B104E040F205114CA000F065F9A88988
:1020100058B1A889B0F5807F07D0A889B0F5007FB6
:1020200003D0A889B0F5407F00D104E04FF483715C
:1020300042A000F051F9A88988B13648844208D0FE
:102040003548844205D03548844202D0364884421F
:1020500000D104E040F20B1138A000F03DF9268ACF
:1020600026F44056E88806432682A68941F20C6091
:102070008643A88829890843698908430643A681BD
:10208000A68A26F44076A8890643A6826846FFF70A
:1020900015FA2048844202D02348844202D1DDF858
:1020A0000C9001E0DDF80890A08900F4004040B1F8
:1020B00009EBC90000EB091029684900B0FBF1F7F2
:1020C00007E009EBC90000EB091029688900B0FBA3
:1020D000F1F76420B7FBF0F006013009642101FB41
:1020E0001078A08900F4004040B1322000EBC80015
:1020F000B0FBF1F000F00700064308E0322000EBEF
:1021000008106421B0FBF1F000F00F0006432681B7
:10211000BDE8FF8700100140004400400048004037
:10212000004C004000500040001401400078004086
:10213000007C004000180140001C01405374645FA3
:102140005065726970684472697665725C73726317
:102150005C73746D3332663478785F757361727452
:102160002E630000E170720070B504460D461C48F5
:1021700084421AD01B48844217D01B48844214D092
:102180001A48844211D01A4884420ED01948844219
:102190000BD01948844208D01848844205D018480A
:1021A000844202D01748844200D104E040F2DF119B
:1021B00015A000F091F80DB1012D00D104E04FF40D
:1021C000F07111A000F088F825B1A08940F400401A
:1021D000A08103E0A089C0F30E00A08170BD0000C3
:1021E000001001400044004000480040004C004006
:1021F000005000400014014000780040007C004086
:1022000000180140001C01405374645F50657269FE
:1022100070684472697665725C7372635C73746D26
:102220003332663478785F75736172742E630000A0
:1022300010B50446134884421AD01348844217D07C
:102240001248844214D01248844211D0114884426A
:102250000ED0114884420BD01048844208D0104858
:10226000844205D00F48844202D00F48844200D1F6
:1022700004E040F242210DA000F02EF8A088C0F347
:10228000080010BD0010014000440040004800401C
:10229000004C004000500040001401400078004015
:1022A000007C004000180140001C01405374645F32
:1022B0005065726970684472697665725C737263A6
:1022C0005C73746D3332663478785F7573617274E1
:1022D0002E63000000BFFEE700BFFEE7FFF724FB10
:1022E000FEF7BEF92948002101604160012128481C
:1022F000FEF772FA012280212648FFF7A5FB00BFF6
:1023000040212448FFF70EFC0028F9D000BF2249E5
:102310001F48FEF7DBFA0028F9D01F491C48FEF7DA
:10232000CDF940211B48FFF727FA2DE001211B487A
:10233000FEF71CFF012827D14FF47A711848FEF7E9
:10234000B9F8082211491648FEF772F80121104821
:10235000FEF742FA00BF40210E48FFF7E3FB0028DA
:10236000F9D000BF0C490A48FEF7B0FA0028F9D0AE
:1023700000210748FEF730FA07490548FEF79EF9A5
:1023800040210448FFF7F8F9D0E70000ED030020F2
:10239000A0600240004400400000202000000240F5
:1023A000040000200A490968096809B9012100E010
:1023B000002121B14FF0FF31064A116006E00449C7
:1023C0000968C968C868034A41681160704700001D
:1023D0000C0400203804002001460A69D1E90130CC
:1023E0009860D1E9010358605068884201D188683B
:1023F0005060002008611068401E1060106870472F
:1024000042684A6093688B60936859609160086184
:1024100003685B1C036070471D48006818B1012009
:102420001C49086032E000201A4908601A48006818
:10243000B0FA80F0C0F11F0101EB8100174A52F899
:10244000200008B1012000E0002050B900BF50205A
:1024500080F31188BFF34F8FBFF36F8F00BF00BFB2
:10246000FEE701EB81020D4B03EB820042685268EC
:10247000426000F108024368934202D14268526808
:1024800042604268D268064B1A6000BF7047000085
:10249000400400202C0400202004002044040020DC
:1024A000080400202DE9F0414FF00008444800687E
:1024B00000287CD143480068451C4248056015BB94
:1024C00041480068006808B9012000E0002050B9C8
:1024D00000BF502080F31188BFF34F8FBFF36F8F81
:1024E00000BF00BFFEE73848076838480068364933
:1024F00008603648076036480068401C3449086068
:10250000FFF750FF00BF3348006885423CD300BF4F
:102510002D480068006808B9012000E0002020B1C3
:102520004FF0FF302B4908602DE027480068C06855
:10253000C4686668B54202D22648066023E0201DC2
:10254000FFF74AFFA06A18B104F11800FFF744FF33
:1025500094F82C10012088401F49096808431E493F
:102560000860E16A01EB81011C4A02EB8100211D38
:10257000FFF746FF1A49E06A0968C96A8842C7D36B
:102580004FF00108C4E700BF15480068C06A00EBBF
:102590008000124951F82000012801D94FF00108AC
:1025A0001048006808B14FF0010805E0FFE70E4849
:1025B0000068401C0C4908604046BDE8F0810000FE
:1025C000400400201C0400200C0400201004002003
:1025D000300400203804002020040020440400209F
:1025E000080400202C040020280400204FF0407034
:1025F000E1EE100A704700001826000800000020D5
:1026000044040000C40100086826000844040020B7
:102610002C0700002002000841482E555341525417
:1026200020444D41204578616D706C653A20436FC0
:102630006D6D756E69636174696F6E206265747724
:1026400065656E2074776F202D2E7573696E673304
:1026500001FF01FF01FF01AFE2052D0102030404A8
:08266000053D06070809000012
:0400000508000329C3
:00000001FF
