:020000040800F2
:10000000C844012049030008253E00083931000892
:10001000213E0008F11E00083160000800000000C9
:10002000000000000000000000000000890200083D
:100030001527000800000000E502000889430008B9
:1000400063030008630300086303000863030008F8
:100050006303000863030008630300082D270008FA
:1000600063030008630300086303000863030008D8
:1000700063030008630300086303000863030008C8
:1000800063030008630300086303000863030008B8
:1000900063030008630300086303000863030008A8
:1000A0002544000863030008630300086303000895
:1000B0006303000863030008594500086303000850
:1000C0006303000863030008630300086303000878
:1000D0006303000863030008630300085154000829
:1000E0006303000863030008630300086303000858
:1000F0006303000863030008630300086303000848
:100100006303000863030008630300086303000837
:100110006303000863030008630300086303000827
:100120006303000863030008630300086303000817
:100130006303000863030008630300086303000807
:1001400063030008630300086303000863030008F7
:1001500063030008630300086303000863030008E7
:1001600063030008630300086303000863030008D7
:1001700063030008630300086303000863030008C7
:10018000630300086303000800F002F800F06CF855
:100190000AA090E8000C82448344AAF10107DA45E2
:1001A00001D100F061F8AFF2090EBAE80F0013F0C8
:1001B000010F18BFFB1A43F0010318479CE300002E
:1001C000BCE300000A444FF0000C10F8013B13F0B0
:1001D000070408BF10F8014B1D1108BF10F8015BA0
:1001E000641E05D010F8016B641E01F8016BF9D193
:1001F00013F0080F1EBF10F8014BAD1C0C1B09D1EA
:100200006D1E58BF01F801CBFAD505E014F8016B5B
:1002100001F8016B6D1EF9D59142D6D370470000ED
:100220000023002400250026103A28BF78C1FBD8FF
:10023000520728BF30C148BF0B60704766290EF0D7
:100240009680642900F0B480002070471FB50EF03E
:1002500084F800F0E1FC0400002000210DF0C8FB50
:10026000E0601FBD10B510BD00F0DAFD1146FFF7CC
:10027000EDFF07F021FB00F0F8FD03B4FFF7F2FFFC
:1002800003BC00F03BFE00002C4B19680868B0E886
:10029000F04F80F30988BFF36F8F4FF0000080F3B9
:1002A000118870470000000008480068006880F36B
:1002B00008884FF0000080F3148862B661B6BFF37F
:1002C0004F8FBFF36F8F00DF00BF00BF08ED00E06E
:1002D000DFF80C00016841F470010160704700BF55
:1002E00088ED00E0EFF30980BFF36F8F134B1A68BE
:1002F0001EF0100F08BF20ED108A20E9F04F1060AB
:1003000009B44FF0500080F31188BFF34F8FBFF353
:100310006F8F0CF077FB4FF0000080F3118809BC61
:1003200019680868B0E8F04F1EF0100F08BFB0EC75
:10033000108A80F30988BFF36F8F7047E0010020B7
:10034000EFF30580704700000948804709480047DF
:10035000FEE7FEE7FEE7FEE7FEE7FEE7FEE7FEE775
:10036000FEE7FEE704480549054A064B70470000D2
:10037000BD43000889010008C83E0120C84401208F
:10038000C8400120C84001200FB41CB5074B06AA85
:100390007B4469460090059800F025FC00206946E2
:1003A00000F034FC1CBC5DF814FB00007908000070
:1003B0002DE9F0410646002410687529314616A53E
:1003C00010D0AFF30080002802DA404213A507E006
:1003D00031688A0701D512A502E0490704D511A5A5
:1003E000012401E0AFF3008000210A2206F1240776
:1003F00009E0B0FBF2FCB0FBF2F302FB1C00303072
:1004000078541846491C0028F3D123462A46304622
:10041000BDE8F04100F07AB9000000002D000000B6
:100420002B000000200000002DE9F05F8946044603
:100430004FF0000ADFF824B1FB44C0F820A02046AA
:10044000E168884700287DD0252806D0D4E901211D
:100450009047206A401C2062F1E700255F46204655
:10046000E16888472028064607DB312E05D2B819F7
:1004700010F8200C08B10543F1E7A80701D525F0D5
:100480000405C4F81CA00027C4F818A02A2E09D01F
:10049000304606F0BFFA38B304EB8708303EC8F8A0
:1004A000186019E059F8041B204604EB870291619B
:1004B000E1688847012F064618D1E069002820DA54
:1004C00025F020051DE0D8F8180000EB800006EBB1
:1004D00040003038C8F818002046E16888470646D2
:1004E00006F098FA0028EED1012F0AD02E2E08D15E
:1004F0002046E16888477F1C0646022F45F020050C
:10050000C4DBA069002803DA404245F00105A06180
:10051000E80701D025F01005A6B1A6F14100192881
:1005200002D8203645F400654A463146204625600B
:100530004D46FFF783FE60B1012807D0ED1D25F081
:10054000070000E007E000F1080978E705F1040979
:1005500075E730467AE7206ABDE8F09F36DF000095
:10056000032A40F2308010F0030C00F0158011F8DF
:10057000013BBCF1020F624498BF11F801CB00F8B7
:10058000013B38BF11F8013BA2F1040298BF00F80B
:1005900001CB38BF00F8013B11F0030300F02580C8
:1005A000083AC0F0088051F8043B083A51F804CBEF
:1005B000A0E80810F5E7121D5CBF51F8043B40F8B5
:1005C000043BAFF30080D20724BF11F8013B11F8C0
:1005D00001CB48BF11F8012B24BF00F8013B00F804
:1005E00001CB48BF00F8012B704710B5203AC0F08E
:1005F0000B80B1E81850203AA0E81850B1E8185024
:10060000A0E81850BFF4F5AF5FEA027C24BFB1E860
:100610001850A0E8185044BF18C918C0BDE81040D1
:100620005FEA827C24BF51F8043B40F8043B08BFDA
:100630007047D20728BF31F8023B48BF11F8012BA1
:1006400028BF20F8023B48BF00F8012B704702F09A
:10065000FF0343EA032242EA024200F002B84FF0ED
:1006600000020429C0F0128010F0030C00F01B807F
:10067000CCF1040CBCF1020F18BF00F8012BA8BF8D
:1006800020F8022BA1EB0C0100F00DB85FEAC17C51
:1006900024BF00F8012B00F8012B48BF00F8012B04
:1006A00070474FF0000200B5134694469646203935
:1006B00022BFA0E80C50A0E80C50B1F12001BFF41B
:1006C000F7AF090728BFA0E80C5048BF0CC05DF881
:1006D00004EB890028BF40F8042B08BF704748BFCF
:1006E00020F8022B11F0804F18BF00F8012B704743
:1006F00070477047704710B500F092FA006810BD5F
:1007000010B5044600F08CFA046010BD2DE9F047E6
:100710000D4699469246044600F124080168880671
:1007200004D5E06921F01001216000E00120A84219
:1007300001DD471B00E00027A1697A1902EB0900DF
:10074000081AA0612078C00602D42046AFF30080CA
:10075000002608E0D4E901211AF806009047206A33
:10076000401C761C20624E45F4DB2078C0060AD57A
:100770002046AFF3008006E0D4E901213020904705
:10078000206A401C2062381EA7F10107F4DC07E054
:10079000D4E9012118F805009047206A401C206226
:1007A000281EA5F10105F3DC2046AFF30080207878
:1007B000000602D50220BDE8F0870120FBE7704764
:1007C0002DE9FF4F0C461E464FF0FF378BB0D2E9A4
:1007D0000001DDF860800A908A46C1F30A5505B928
:1007E0003D46002108464FF00000BAF1000F00F42A
:1007F000400005DA00EB80004FF4400101EA5000B0
:100800004FEA9059B9F1010F00DDB9460A9850EA54
:100810004A000ED044F61050A5F2FF3545432F1480
:10082000B8F1000F1ED07542291E1EDDC9F100026D
:100830001CE0B8F1010F4FF0000001D0302103E0BF
:10084000F24305E02154401CB042FBDB304600225D
:10085000002121540B99C1F80880C1E900200FB094
:10086000BDE8F08FBD1B6D1CDEE74A4600DA694229
:1008700006A800F05FFA06AB93E8070003AB83E835
:10088000070050460A9900F040FB8DE80700A0F5EC
:1008900000501F3800900398002D0ADD42F21F011E
:1008A0004A460844002303A90390684600F0A9FDC6
:1008B00009E0A0F500504A461F38002303A9039021
:1008C000684600F0B3FD8DE807000004000C03D07B
:1008D0004FF0FF30410800E01046B8F1000F03D0A0
:1008E0000022009215461EE0751E05D400F09CF90A
:1008F000303262556D1EF9D5B3460122084302D04D
:1009000000227F1C04E02078302801D100227F1EC5
:10091000002A099784D01DE0112D07DA00F084F930
:10092000303262556D1C50EA0102F5D1084302D005
:100930000098C8B10EE00021681E05E0235C625CEF
:1009400063542254401E491C8142F7DBAB46A81B6E
:10095000401E0990002004F80B000B98099AC0F87B
:100960000880C0E9002B7AE711264FF0000857E70E
:100970002DE9F04F88460446D21D22F0070191B0C0
:10098000D1E90001CDE90A0105F0C0FC02460B984F
:10099000C00F01D02D2007E02068810701D52B2052
:1009A00002E0202101EAC000032A099001D0072AB1
:1009B00005DB03464146204600F07CF90BE1207838
:1009C000800601D5E06900E00620B8F1650F814698
:1009D00006D0B8F1660F18D0B8F1670F70D131E0CA
:1009E0000020B9F1110F009001DB112301E009F1A2
:1009F00001030AAA01A90CA8FFF7E2FEDDE90C70C9
:100A0000002609F10105834647E001204B4600908E
:100A10004FF000470AAA01A90CA8FFF7D1FEDDE9B3
:100A20000DB00C995D46002610B909F101000D18B2
:100A3000B9EB050003D4C0F1FF3609F10105A5EBC0
:100A400009002BE0B9F1010F01DA4FF00109002094
:100A5000B9F1110F0090484601DD112300E0034673
:100A60000AAA01A90CA8FFF7ABFEDDE90C704D4600
:100A700000268346207800070AD4AB4500DA5D469D
:100A800001A8012D04DD411911F8011C302907D0FE
:100A90004F4502DA17F1040F04DA012082460FE015
:100AA0006D1EEEE7002F02DCED1B3E4403E0781CD8
:100AB000A84200DD7D1CB81B00F1010A4FF0004781
:100AC0002078000703D4AA4501DB4FF0FF3A00214C
:100AD000B7F1004F0DF143088DF8431024D00220E8
:100AE0002B23002F01DA7F422D230A21021EA0F1C1
:100AF000010000DC5FB197FBF1FC97FBF1F201FB19
:100B00001C7C17460CF1300C08F801CDEEE7A8F17B
:100B1000010003702188090501D5452100E0652108
:100B2000A0F1010800F8011C09980FA9A1EB080722
:100B3000FF1D00B10120411901EBEA70A1693844A1
:100B4000081A401EA0612078C00602D42046AFF3E8
:100B50000080099828B1D4E901219047206A401CFF
:100B600020622078C00622D52046AFF300801EE028
:100B7000002E04DBB34502DD01A8805D00E03020DB
:100B8000D4E901219047206A401C2062761CAAF11A
:100B900001005FEA000A0AD100F03EF8C06801686F
:100BA000405CD4E901219047206A401C2062281E45
:100BB000A5F10105DCDC07E0D4E9012118F8010BFF
:100BC0009047206A401C2062381EA7F10107F3DC21
:100BD0002046AFF30080032011B041E601694A1CB2
:100BE00002610878704700B58FB0CDE9013100216E
:100BF000059105497944CDE9031011466846FFF790
:100C000013FC0FB000BD0000E5FFFFFF0A6802F80B
:100C1000010B0A607047000000487047843E0120C5
:100C200000487047643E012030B5B0F10A024FEA37
:100C3000900E71F100034EEA817EB0EB0E0061EB85
:100C400091014FEA101E4EEA017E10EB0E0041EBBF
:100C500011114FEA102E4EEA016E10EB0E0041EB1F
:100C600011214FEA104E4EEA014E10EB0E0041EBFF
:100C70001141401841F100014FEAD00040EA4170B3
:100C80004FEAD10110EB80054FEA810444EA9074E9
:100C900044EB01046D1944EB0404521BA3414FF0D3
:100CA000000348BF0A3200D530BD401C41F10001AD
:100CB00030BD00002DE9F0411F46044603260168BF
:100CC000072A01F4006004DB08B116A505E016A5AB
:100CD00003E008B115A500E015A521F01000206083
:100CE000A069C01EA0610FB1401EA0612046AFF3F5
:100CF00000804FB1D4E9012138469047206A401C5A
:100D00002062C01C206206E0206AFAE7D4E90121D3
:100D100015F8010B9047761EF8D22046AFF30080FD
:100D2000BDE8F0814E414E006E616E00494E4600B6
:100D3000696E66002DE9F047814616468AB035484F
:100D400078440DC88DE80D0032487844801C03AC0F
:100D50000DC884E80D0041F69B300844372190FB14
:100D6000F1F290FBF1F5A5F1800501FB12041B3CAB
:100D700002D56442012000E00020DFF898A0804600
:100D80000027FA44AAF1BE0A0EE0E0070AD0324674
:100D9000684607EB470101230AEB810100F046FB9F
:100DA0008DE8070064107F1C002CEED1194F7F44A2
:100DB000AE3F19E0E80715D007EB04100DF1180A53
:100DC00090E80E008AE80E00C068F04201D1981940
:100DD00008903246012306A903A800F027FB03ABC5
:100DE00083E807006D10641C002DE3D14FF0010370
:100DF00032466946B8F1000F03A802D000F001FBAB
:100E000001E000F013FBC9E90001C9F808200AB0AD
:100E1000BDE8F087FCD7000000487047643E012021
:100E20007546FFF7F9FFAE4605006946534620F0C8
:100E30000700854618B020B5FFF794FABDE82040BA
:100E40004FF000064FF000074FF000084FF0000B86
:100E500021F00701AC46ACE8C009ACE8C009ACE839
:100E6000C009ACE8C0098D46704710B50446AFF321
:100E700000802046BDE81040FFF7FFB94FF0013C6D
:100E800050F8042B51F8043B9A4221D1A2EB0C03F9
:100E9000934313EACC1317D150F8042B51F8043BB9
:100EA0009A4215D1A2EB0C03934313EACC130BD156
:100EB00050F8042B51F8043B9A4209D1A2EB0C03E1
:100EC000934313EACC13DBD04FF00000704700BF10
:100ED000D01A01BAB1FA81F101F0180122FA01F039
:100EE000CB40C1F12001DBB2C0B2C01A2CFA01F331
:100EF000D11A914311EAC311E6D170470149182074
:100F0000ABBEFEE72600020070475FEA400C08BF58
:100F100091F0000F4FEA8C234FEAC12243EA51516E
:100F20004FEA1C5018BF00F5F0404FEA300018BFE0
:100F300041F000415FEA6C5C00F02980BCF1FF3FAA
:100F400008BF40F080407047130C06BF12044FF0FA
:100F5000100C4FF0000C130E04BF12020CF1080C21
:100F6000130F04BF12010CF1040C930F04BF920085
:100F70000CF1020CD30F04BF52000CF1010C11460E
:100F80004FF00002A0F11F00A0EB0C00704711F021
:100F9000004F08BF704731F000413FF4D5AF0B0C54
:100FA00006BF09044FF0100C4FF0000C0B0E04BFED
:100FB00009020CF1080C0B0F04BF09010CF1040C21
:100FC0008B0F04BF89000CF1020CCB0F04BF49004A
:100FD0000CF1010CCCF12003A0EB0C0022FA03F37E
:100FE00002FA0CF241EA030100F10100704720F01F
:100FF0007F4C80EA030023F07F47ACEB070303F547
:101000007C5300F0004003F1FF032DE980494FEAD3
:10101000154B09B44FEA144325EA0B4E24EA034862
:101020000FF2042606EB132749083E785FEA3202E6
:1010300003FB0667C7F5000707FB06F64FEA5437C0
:101040004FEAD64606F1020607FB066CCCF1005CBF
:101050004FEA1C472CEA074C07FB06F40CFB06F58D
:1010600004EB15464FEA961634BF00204FF00040BF
:101070004FEAD13706FB07FC4FEA1C4C0CFB0BF781
:10108000D21B03FB0CF761EB07010CFB0EF7B0EB77
:10109000074072EB17420CFB08F734BFA2EB074284
:1010A000B2EB074261EB17414FEA0C444FEA91075C
:1010B00006FB07FC4FEA1C4C0CFB0BF7B0EBC740E0
:1010C00072EB573203FB0CF734BFA2EBC742B2EB13
:1010D000C74261EB57310CFB0EF7B0EBC70072EB68
:1010E00057720CFB08F734BFA2EBC702B2EBC70282
:1010F00061EB5771039F4FEA816141EA921104EB62
:10110000CC044FEAD1374FEA826206FB07FC42EA81
:1011100090124FEA80604FEA1C4C0CFB0BF7D21B7D
:1011200003FB0CF761EB07010CFB0EF7B0EB07407C
:1011300072EB17420CFB08F734BFA2EB0742B2EB8D
:10114000074261EB17414FEA8C554FEA910704EBD8
:101150009C2406FB07FC4FEA1C4C0CFB0BF7B0EB86
:10116000C74072EB573203FB0CF734BFA2EBC74208
:10117000B2EBC74261EB57310CFB0EF7B0EBC70087
:1011800072EB57720CFB08F734BFA2EBC702B2EB4D
:10119000C70261EB577115EB4C254FEA816141EABB
:1011A00092114FEA82624FEAD13742EA901206FB6F
:1011B00007FC44F100044FEA80604FEA1C4C0CFB32
:1011C0000BF7D21B03FB0CF761EB07010CFB0EF7CF
:1011D000B0EB074072EB17420CFB08F734BFA2EBF1
:1011E0000742B2EB074261EB174115EB1C154FEAC2
:1011F000813141EA92414FEA823242EA90424FEA1B
:1012000080304FEA0C7644F1000448EA03434EEA8A
:101210000B484FF0000EB2EB080C71EB030724BF34
:10122000624639464EEB0E0E4FF0000B001852414D
:1012300049414BEB0B0BB2EB080C71EB03077BF155
:10124000000B24BF624639464EEB0E0E4FF0000BEA
:101250000018524149414BEB0B0BB2EB080C71EB00
:1012600003077BF1000B24BF624639464EEB0E0E9E
:1012700051EA020718BF46F0010616EB0E7655F14B
:10128000000254F1000103D5BDE88901BDE80088E2
:10129000BDE88901BDE80048B619524141EB0101A2
:1012A000A3F10103704780807F7E7D7C7B7A797813
:1012B000777676757473727171706F6E6E6D6C6C1B
:1012C0006B6A6A69686867666665646463636261BD
:1012D0006160605F5F5E5E5D5D5C5C5B5B5A5A593E
:1012E00059585857575656555555545453535252AA
:1012F0005251515050504F4F4F4E4E4D4D4D4C4C02
:101300004C4B4B4B4A4A4A4949494848484747474A
:101310004746464645454544444444434343434287
:10132000424242414141002B9C4630D477002BD0B1
:101330001CB54FEA370703B44FF010004FF010010F
:10134000BAF1000F06D0BCF1000FDCBF40F008007E
:1013500040F008014FF000000FBCBDE810400BF159
:10136000010BBBF1010F08BF5FEA170722BF12F1A3
:10137000010211F101014FF0004143F1000300F0BF
:10138000004043EA00007047F9D35708D0E746EA27
:10139000064613F1400F4FEA16461FDD13F1200FEA
:1013A000DFBF16430A46002120335B42BED0C3F1A3
:1013B000200746EA064602FA07F74FEA164646EACB
:1013C0000706C3F1200722FA03F201FA07F721FA10
:1013D00003F14FF0000342EA0702A7E746EA0206DC
:1013E00046EA06464FEA164646EA0106BCBF46EA0A
:1013F0000646360C4FF000034FF000024FF000019C
:1014000094E72DE9804C9A46934670B491E83800F1
:1014100007C831EA400C48BF34EA430C03D5FFF754
:10142000E6FDFFF780FFF0BCBDE8008C2DE9804CA5
:101430009A46934670B491E8380007C810F0804F80
:1014400008BF13F0804F03D100F005F8FFF76BFFE2
:10145000F0BCBDE8008C20F07F4780EA030023F059
:101460007F4C07EB0C03A3F57C5300F00040A3F185
:10147000FE0392F0000F00F0B38095F0000F00F033
:1014800077802DE901494FEA11404FEA144621EADD
:10149000004800FB06FC24EA064708FB06F607FBAB
:1014A00008F800FB07F718EB06484CEB164C4FEA20
:1014B000124B18EB07484FEA15464CEB174022EA4F
:1014C0000B4E0BFB06FC25EA06470EFB06F607FB58
:1014D0000EFE0BFB07F71EEB064E4CEB164C4FF0C7
:1014E00000061EEB074E4CEB174B18EB0B0840F1B8
:1014F000000018EB0E0B58EB000840F100008F1AAB
:101500004FF000013CBFC943661B14BFB5EB040C90
:1015100000213CBFC943F61B4FEA17444EEA8E0E2A
:1015200027EA04454FEA1C4704FB07622CEA074CF4
:1015300005FB07F70CFB05F604FB0CFC16EB074656
:1015400042EB174216EB0C4642EB1C421BEB060625
:1015500058EB0202414146EA9E0601D5BDE80189E9
:10156000B619524141EB0101A3F10103BDE8018924
:101570004FEA14454FEA114724EA054621EA074C91
:1015800005FB07F406FB07F70CFB06F105FB0CFC5B
:1015900011EB074144EB17444FEA124711EB0C41A2
:1015A00044EB1C4422EA074C05FB07F206FB07F755
:1015B0000CFB06F605FB0CFC16EB074642EB17424C
:1015C00016EB0C4642EB1C456A1854F1000148BF6B
:1015D0007047B619524141EB0101A3F10103704775
:1015E00095F0000F37D04FEA11424FEA144721EA35
:1015F000024624EA074C02FB07F106FB07F70CFB47
:1016000006F402FB0CFC14EB074441EB17414FEAD4
:10161000154714EB0C4441EB1C4125EA074C02FB37
:1016200007F506FB07F70CFB06F602FB0CFC16EBB6
:10163000074645EB174516EB0C4645EB1C421219C5
:1016400051F1000148BF7047B619524141EB010109
:10165000A3F1010370474FEA14454FEA114724EA0A
:10166000054621EA074C05FB07F106FB07F70CFBD3
:1016700006F24FF0000605FB0CFC12EB074241EBB3
:10168000174112EB0C4251EB1C4148BF70479218B6
:1016900041EB0101A3F101037047000000B59BB0CD
:1016A0000121880502F060FC0121084602F05CFC83
:1016B0000121042002F058FC0121080202F0CAFCBA
:1016C000002002903E4803903E4804900020059080
:1016D00003200690002007904FF48060089040009F
:1016E000099080000A9040110B9040020C9000205D
:1016F0000D900E900F90109002A9334800F0A0FEBC
:101700000220009003208DF8040000208DF80700CF
:1017100069462E4801F0E6F90120009069462C4800
:1017200001F0E0F9022000906946294801F0DAF959
:1017300000201190129013904FF4A060149011A803
:1017400000F088F80020159001208DF858008DF8E1
:101750005900002017901890199003208DF8680008
:1017600015A917484C3800F0C5F901231A46194647
:1017700013484C3800F0A6FA072302220A21104829
:101780004C3800F09FFA012303220B210C484C38FF
:1017900000F098FA01210A484C3800F06BF9012159
:1017A00007484C3800F026F9012105484C3800F074
:1017B00011F80121044800F02BFC1BB000BD000013
:1017C0004C20014000000020106402400000024054
:1017D0000008024070B504460D461148844205D009
:1017E0001048844202D01048844200D104E04FF4F3
:1017F000C9710EA005F015F90DB1012D00D104E05D
:1018000040F2931109A005F00CF925B1A06840F051
:101810000100A06003E0A06820F00100A06070BD9E
:101820000020014000210140002201405374645F08
:101830005065726970684472697665725C73726330
:101840005C73746D3332663478785F6164632E63E1
:101850000000000070B504460025206818B3206819
:10186000012820D0206802281DD0206805281AD021
:101870002068062817D02068072814D02068092877
:1018800011D0206811280ED0206812280BD02068B3
:10189000152808D02068162805D02068172802D0FF
:1018A0002068192800D104E040F259113FA005F04A
:1018B000B8F8606858B16068B0F5803F07D06068DC
:1018C000B0F5003F03D06068B0F5403F00D104E0C0
:1018D0004FF4AD7135A005F0A4F8A06858B1A06828
:1018E000B0F5804F07D0A068B0F5004F03D0A068D6
:1018F000B0F5404F00D104E040F25B112BA005F0A1
:1019000090F8E068D8B3E068B0F5807F37D0E06841
:10191000B0F5007F33D0E068B0F5407F2FD0E068AD
:10192000B0F5806F2BD0E068B0F5A06F27D0E068ED
:10193000B0F5C06F23D0E068B0F5E06F1FD0E0686D
:10194000B0F5006F1BD0E068B0F5106F17D0E068FD
:10195000B0F5206F13D0E068B0F5306F0FD0E068BD
:10196000B0F5406F0BD0E068B0F5506F07D0E0687D
:10197000B0F5606F03D0E068B0F5706F00D104E09F
:101980004FF4AE7109A005F04CF8124805681248F2
:101990000540D4E900010843A1680843E168084311
:1019A00005430E48C0F8045370BD00005374645FD3
:1019B0005065726970684472697665725C737263AF
:1019C0005C73746D3332663478785F6164632E6360
:1019D0000000000004230140E030FCFF0020014033
:1019E00010B5FFF75BFE024800F052FA10BD000090
:1019F0000020014070B504460D461148844205D0D0
:101A00001048844202D01048844200D104E040F2E1
:101A10001F410EA005F005F80DB1012D00D104E025
:101A20004FF4846109A004F0FCFF25B1A06840F4E4
:101A30008070A06003E0A06820F48070A06070BD9A
:101A40000020014000210140002201405374645FE6
:101A50005065726970684472697665725C7372630E
:101A60005C73746D3332663478785F6164632E63BF
:101A70000000000070B504460D461148844205D0B0
:101A80001048844202D01048844200D104E040F261
:101A900037410EA004F0C5FF0DB1012D00D104E0C7
:101AA0004FF4876109A004F0BCFF25B1A06840F4A1
:101AB0000070A06003E0A06820F40070A06070BD1A
:101AC0000020014000210140002201405374645F66
:101AD0005065726970684472697665725C7372638E
:101AE0005C73746D3332663478785F6164632E633F
:101AF000000000002DE9F04105460C4600260027B5
:101B00006148854205D06148854202D060488542DF
:101B100000D103E0F0215FA004F083FF206858B1FA
:101B20002068B0F1807F07D02068B0F1007F03D03B
:101B30002068B0F1407F00D103E0F12155A004F00E
:101B400070FF207910B12079012800D103E0F22143
:101B500050A004F066FF607910B16079012800D1CF
:101B600003E0F3214BA004F05CFFA06858B1A0682B
:101B7000B0F1805F07D0A068B0F1005F03D0A0682B
:101B8000B0F1405F00D103E0F42142A004F049FF2E
:101B9000E068D8B3E068B0F1807F37D0E068B0F19A
:101BA000007F33D0E068B0F1407F2FD0E068B0F123
:101BB000806F2BD0E068B0F1A06F27D0E068B0F163
:101BC000C06F23D0E068B0F1E06F1FD0E068B0F1E3
:101BD000006F1BD0E068B0F1106F17D0E068B0F173
:101BE000206F13D0E068B0F1306F0FD0E068B0F133
:101BF000406F0BD0E068B0F1506F07D0E068B0F1F3
:101C0000606F03D0E068B0F1706F00D103E0F521A0
:101C100020A004F006FF206918B12069B0F5006F1C
:101C200000D103E0F6211BA004F0FBFE207D01287B
:101C300003DB207D102800DC03E0F72115A004F071
:101C4000F0FE6E681D4806402179206840EA0120B8
:101C500006436E60AE681A480640D4E90310084394
:101C6000A1680843617940EA41000643AE60EE6A2C
:101C700026F47006207D401EC0B2074346EA075690
:101C8000EE62BDE8F081000000200140002101402B
:101C9000002201405374645F506572697068447239
:101CA000697665725C7372635C73746D333266342B
:101CB00078785F6164632E6300000000FFFEFFFC24
:101CC000FDF7FFC02DE9F04706460C46174698463B
:101CD0000025A9466148864205D06148864202D067
:101CE0006048864200D104E040F2CF215EA004F0BB
:101CF00098FE1CB3012C21D0022C1FD0032C1DD028
:101D0000042C1BD0052C19D0062C17D0072C15D06D
:101D1000082C13D0092C11D00A2C0FD00B2C0DD06D
:101D20000C2C0BD00D2C09D00E2C07D00F2C05D06D
:101D3000102C03D0112C01D0122C00D104E04FF450
:101D4000347149A004F06DFE012F02DB102F00DC7E
:101D500004E040F2D12144A004F063FEB8F1000F8A
:101D600014D0B8F1010F11D0B8F1020F0ED0B8F1B4
:101D7000030F0BD0B8F1040F08D0B8F1050F05D050
:101D8000B8F1060F02D0B8F1070F00D104E040F21D
:101D9000D22135A004F045FE092C13DDF568A4F12D
:101DA0000A0000EB4001072000FA01F925EA0905C5
:101DB000A4F10A0000EB400008FA00F945EA090521
:101DC000F5600EE0356904EB4401072000FA01F9E3
:101DD00025EA090504EB440008FA00F945EA09057B
:101DE0003561072F11DA756B781E00EB80011F201B
:101DF00000FA01F925EA0905781E00EB800004FAD3
:101E000000F945EA0905756326E00D2F11DA356BF7
:101E1000F81F00EB80011F2000FA01F925EA0905EF
:101E2000F81F00EB800004FA00F945EA0905356364
:101E300012E0F56AA7F10D0000EB80011F2000FA07
:101E400001F925EA0905A7F10D0000EB800004FA6D
:101E500000F945EA0905F562BDE8F0870020014078
:101E600000210140002201405374645F5065726993
:101E700070684472697665725C7372635C73746DCA
:101E80003332663478785F6164632E63000000004B
:101E900010B504460948844205D00948844202D05E
:101EA0000848844200D104E040F2463106A004F024
:101EB000B8FDA06840F08040A06010BD0020014047
:101EC00000210140002201405374645F5065726933
:101ED00070684472697665725C7372635C73746D6A
:101EE0003332663478785F6164632E6300000000EB
:101EF00000BFFEE770B504460D46344884423AD030
:101F000032481830844236D030483030844232D0A3
:101F10002E48483084422ED02C48603084422AD04B
:101F20002A487830844226D028489030844222D0F3
:101F30002648A83084421ED0254884421BD024481D
:101F40001830844217D022483030844213D02048C1
:101F5000483084420FD01E48603084420BD01C4869
:101F60007830844207D01A489030844203D0184811
:101F7000A830844200D104E040F2344115A004F0BE
:101F800050FD05F04050B0F1405F07D005F04050E3
:101F900020B11D48284008B905B104E040F23541A0
:101FA0000CA004F03EFD0A48844202D2074E103EC7
:101FB00001E0074E103E05F0005018B113482840CC
:101FC000F06002E011482840B06070BD106002402F
:101FD000106402402E2E5C4672656552544F535C6D
:101FE0005374645F50657269706844726976657293
:101FF0005C7372635C73746D3332663478785F64DB
:102000006D612E630000000082F002C07D0F7D0F25
:1020100070B504460D462C4884423AD02A48183000
:10202000844236D028483030844232D02648483066
:1020300084422ED02448603084422AD0224878300E
:10204000844226D020489030844222D01E48A830B6
:1020500084421ED01D4884421BD01C481830844244
:1020600017D01A483030844213D018484830844280
:102070000FD01648603084420BD014487830844228
:1020800007D012489030844203D01048A8308442D0
:1020900000D104E040F2E1110DA004F0C2FC0DB14A
:1020A000012D00D104E04FF4F17109A004F0B9FC56
:1020B00025B1206840F00100206003E0206820F096
:1020C0000100206070BD00001060024010640240FA
:1020D0002E2E5C4672656552544F535C5374645F98
:1020E0005065726970684472697665725C73726378
:1020F0005C73746D3332663478785F646D612E631F
:102100000000000070B504460025264884423AD0FD
:1021100024481830844236D022483030844232D0AD
:102120002048483084422ED01E48603084422AD055
:102130001C487830844226D01A489030844222D0FD
:102140001848A83084421ED0174884421BD0164835
:102150001830844217D014483030844213D01248CB
:10216000483084420FD01048603084420BD00E4873
:102170007830844207D00C489030844203D00A481B
:10218000A830844200D104E04FF46D7107A004F040
:1021900048FC206800F0010008B1012500E000259E
:1021A000284670BD10600240106402402E2E5C462E
:1021B00072656552544F535C5374645F5065726925
:1021C00070684472697665725C7372635C73746D77
:1021D0003332663478785F646D612E6300000000EE
:1021E0002DE9F04105460C464FF0000800277248E3
:1021F00085423AD070481830854236D06E4830302B
:10220000854232D06C48483085422ED06A486030D2
:1022100085422AD068487830854226D0664890307A
:10222000854222D06448A83085421ED0634885424A
:102230001BD062481830854217D060483030854244
:1022400013D05E48483085420FD05C4860308542EC
:102250000BD05A487830854207D058489030854294
:1022600003D05648A830854200D104E040F2F33153
:1022700053A004F0D6FB5F4884427CD05D48103800
:10228000844278D05B481838844274D05A488442DB
:1022900071D0C01E84426ED0584884426BD05848DA
:1022A000844268D05748844265D05248E030844226
:1022B00061D05048203084425DD0B4F1815F5AD063
:1022C0005148844257D05148844254D050488442A7
:1022D00051D0504884424ED0B4F1C05F4BD0B4F1DD
:1022E000A05F48D0B4F1905F45D0B4F1885F42D090
:1022F000B4F1825F3FD0484884423CD04648103811
:10230000844238D044481838844234D0001F844274
:1023100031D0C01E84422ED0404884422BD0404849
:10232000844228D03F48844225D03B48E030844254
:1023300021D03948203084421DD03B4884421AD0F5
:102340003A48844217D03A48844214D039488442EB
:1023500011D0394884420ED0B4F1205F0BD0B4F1D3
:10236000105F08D0B4F1085F05D0B4F1045F02D06B
:10237000B4F1015F00D104E04FF47D7110A004F0CE
:1023800050FB0E48854202D20B4E103E01E00B4E30
:10239000103E04F0005008B1776800E03768274825
:1023A000074007EA040010B14FF0010801E04FF0C8
:1023B00000084046BDE8F081106002401064024011
:1023C0002E2E5C4672656552544F535C5374645FA5
:1023D0005065726970684472697665725C73726385
:1023E0005C73746D3332663478785F646D612E632C
:1023F0000000000020000010040080100008001001
:10240000000400100002001000001010000008106E
:10241000000004100000011020000020000800202F
:1024200000040020000200200000202000001020F6
:102430000000082000000420000001207D0F7D0F17
:1024400070B505460C460026A24885423AD0A14800
:102450001830854236D09F483030854232D09D4872
:10246000483085422ED09B48603085422AD099481A
:102470007830854226D097489030854222D09548C2
:10248000A83085421ED0944885421BD0924818300F
:10249000854217D090483030854213D08E4848305E
:1024A00085420FD08C48603085420BD08A48783006
:1024B000854207D088489030854203D08648A830AE
:1024C000854200D104E04FF4A27184A004F0A9FA7F
:1024D0002068D8B12068B0F1007F17D02068B0F133
:1024E000806F13D02068B0F1C06F0FD02068B0F1BA
:1024F000006F0BD02068B0F1206F07D02068B0F1DA
:10250000406F03D02068B0F1606F00D104E040F26A
:10251000451172A004F085FAE06828B1E06840280F
:1025200002D0E068802800D104E04FF4A3716BA0D2
:1025300004F077FA206920B12069B0F5803F00D21D
:1025400004E040F2471165A004F06BFA6069B0F551
:10255000007F01D0606900B904E04FF4A4715FA06E
:1025600004F05FFAA069B0F5806F01D0A06900B9EE
:1025700004E040F2491159A004F053FAE06938B17F
:10258000E069B0F5006F03D0E069B0F5805F00D17D
:1025900004E04FF4A57151A004F043FA206A38B169
:1025A000206AB0F5005F03D0206AB0F5804F00D1FB
:1025B00004E040F24B1149A004F033FA606A18B10C
:1025C000606AB0F5807F00D104E04FF4A67143A0AB
:1025D00004F027FAA06A58B1A06AB0F5803F07D08E
:1025E000A06AB0F5003F03D0A06AB0F5403F00D12B
:1025F00004E040F24D1139A004F013FAE06A10B182
:10260000E06A042800D104E04FF4A77133A004F07D
:1026100008FA206B40B1206B012805D0206B0228FE
:1026200002D0206B032800D104E040F24F112BA010
:1026300004F0F7F9606B58B1606BB0F5000F07D08C
:10264000606BB0F1807F03D0606BB0F1C07F00D1D0
:1026500004E04FF4A87121A004F0E3F9A06B58B195
:10266000A06BB0F5001F07D0A06BB0F5800F03D0B2
:10267000A06BB0F5C00F00D104E040F2511117A0DB
:1026800004F0CFF92E6822480640E168206808432C
:1026900061690843A1690843E1690843216A084365
:1026A000616A0843A16A0843616B0843A16B084350
:1026B00006432E606E6926F00706D4E90B01084335
:1026C00006436E61206968606068A860A068E86081
:1026D00070BD000010600240106402402E2E5C4667
:1026E00072656552544F535C5374645F50657269F0
:1026F00070684472697665725C7372635C73746D42
:102700003332663478785F646D612E6300000000B8
:102710003F801CF07047000000200349087002E071
:10272000002009F01DFFFBE7FF00002010B500208E
:102730000D49086002210D4800F088FB012807D1EF
:1027400009490B4800680AF01FFC022000F014F849
:102750000548006838B14FF0805006490860BFF363
:102760004F8FBFF36F8F10BDB801002000040240EF
:102770003001002004ED00E010B50446E00DC00576
:1027800008B904B104E040F2231103A004F049F9B0
:102790000B48046010BD00005374645F506572699B
:1027A00070684472697665725C7372635C73746D91
:1027B0003332663478785F657874692E6300000080
:1027C000143C014010B500F0B5F810BD10B504463A
:1027D000E00DC00508B904B103E0C82104A004F06D
:1027E00020F90D48006820430B49086010BD000027
:1027F0005374645F5065726970684472697665727B
:102800005C7372635C73746D3332663478785F65C1
:102810007874692E63000000103C014070B50446D6
:102820000025207910B12079042800D103E083210C
:1028300035A004F0F6F86079082805D060790C28F6
:1028400002D06079102800D103E084212EA004F08A
:10285000E8F820686FF3160010B9206800B103E0B3
:10286000852129A004F0DDF8A07910B1A079012814
:1028700000D103E0862124A004F0D3F82C4DA079E8
:1028800090B3284600682168884329460860081DDF
:10289000006821688843291D08602079054428685C
:1028A000216808432860224808300068216888436E
:1028B0001F4908310860081D0068216888431C49C9
:1028C0000C310860607910280FD1081F006821685A
:1028D0000843174908310860081D0068216808434B
:1028E00013490C3108600EE007E0114D6079054492
:1028F000286821680843286005E020790544286895
:1029000021688843286070BD5374645F50657269A4
:1029100070684472697665725C7372635C73746D1F
:102920003332663478785F657874692E630000000E
:10293000003C01400EB50121880301F08BFB012111
:10294000084601F037FC0220019000208DF80800B5
:1029500008208DF8090001208DF80A0001A8FFF772
:102960005DFF07208DF8000005208DF80100012093
:102970008DF802008DF80300684601F055FA0EBD8F
:1029800008B503A000680090684602F0B9FD08BDD4
:10299000FFFFFF001FB50121082001F0E5FA4FF409
:1029A0007040029001208DF80C0003208DF80D007E
:1029B00000208DF80E008DF80F0002A9474800F0A6
:1029C00091F800224FF48051444800F023FB00228C
:1029D0004FF40051414800F01DFB00224FF48041AC
:1029E0003E4800F017FB00224FF400413B4800F046
:1029F00011FB0C20029001208DF80C0003208DF8B3
:102A00000D0000208DF80E008DF80F0002A933484C
:102A100000F068F800220421304800F0FBFA0022A0
:102A200008212E4800F0F6FA4FF44C600290012085
:102A30008DF80C0003208DF80D0000208DF80E009D
:102A40008DF80F0002A9254800F04CF800224FF441
:102A50000061224800F0DEFA00224FF480611F4836
:102A600000F0D8FA002240211C4800F0D3FA0022DE
:102A700080211A4800F0CEFA3320029001208DF810
:102A80000C0003208DF80D0000208DF80E008DF84D
:102A90000F0002A9114800F025F80121022001F0E1
:102AA00063FA0420009001208DF8040003208DF8C3
:102AB000050000208DF806008DF8070069460848DB
:102AC00000F010F800208DF804008DF807000220B7
:102AD00000906946024800F005F81FBD000C024056
:102AE000000402402DE9F04104460D46002600276F
:102AF000B046544884421DD0534884421AD05348AB
:102B0000844217D05248844214D05248844211D093
:102B1000514884420ED0514884420BD050488442E0
:102B200008D05048844205D04F48844202D04F48D4
:102B3000844200D103E0D1214DA003F072FF288828
:102B400080B200B103E0D22149A003F06AFF2879E6
:102B500040B12879012805D02879022802D02879A7
:102B6000032800D103E0D32141A003F05AFFE87904
:102B700028B1E879012802D0E879022800D103E0E1
:102B8000D4213BA003F04DFF002657E0012000FABE
:102B900006F7286800EA0708B8454ED12068720099
:102BA0000321914088432060287971008840216882
:102BB000084320602879012802D02879022830D1E2
:102BC000687940B16879012805D06879022802D077
:102BD0006879032800D103E0E62125A003F021FF56
:102BE000A0687200032191408843A0606879710059
:102BF0008840A1680843A060A87910B1A87901288D
:102C000000D103E0ED211AA003F00BFF6168012061
:102C1000B040814361606168A879B04080B20143EF
:102C20006160E0687200032191408843E060E879C8
:102C300071008840E1680843E060761C102EA5D33F
:102C4000BDE8F0810000024000040240000802409C
:102C5000000C024000100240001402400018024024
:102C6000001C0240002002400024024000280240D4
:102C70005374645F506572697068447269766572F6
:102C80005C7372635C73746D3332663478785F673B
:102C900070696F2E630000002DE9F04106460D4675
:102CA00014460027B846544886421DD053488642F1
:102CB0001AD05348864217D05248864214D0524800
:102CC000864211D0514886420ED0514886420BD0E0
:102CD0005048864208D05048864205D04F48864228
:102CE00002D04F48864200D104E040F24B214DA073
:102CF00003F097FEEDB1012D1BD0022D19D0032D4D
:102D000017D0042D15D0052D13D0062D11D0072D69
:102D10000FD0082D0DD0092D0BD00A2D09D00B2D69
:102D200007D00C2D05D00D2D03D00E2D01D00F2D69
:102D300000D104E04FF413713AA003F072FEA4B383
:102D4000092C32D08CB384B37CB374B3012C2CD057
:102D50002BD0022C29D028D027D0032C25D0042C0E
:102D600023D022D021D0052C1FD01ED0092C1CD05E
:102D7000062C1AD0092C18D0072C16D015D014D038
:102D8000082C12D011D010D0092C0ED00DD00A2C46
:102D90000BD00AD00B2C08D00C2C06D005D00D2C53
:102DA00003D00F2C01D00C2C00D104E040F24D21B7
:102DB0001CA003F036FE6807C00E04FA00F7E91005
:102DC00006F1200050F821006907CA0E0F2191403A
:102DD0008843EA1006F1200141F82200E91006F1CB
:102DE000200050F8210040EA0708E91006F1200011
:102DF00040F82180BDE8F08100000240000402405C
:102E000000080240000C0240001002400014024082
:102E100000180240001C0240002002400024024032
:102E2000002802405374645F506572697068447290
:102E3000697665725C7372635C73746D3332663489
:102E400078785F6770696F2E6300000070B5054683
:102E50000C4600262E4885421DD02E4885421AD0A9
:102E60002D48854217D02D48854214D02C488542E4
:102E700011D02C4885420ED02B4885420BD02B48D0
:102E8000854208D02A48854205D02A48854202D08A
:102E90002948854200D104E04FF4A57127A003F032
:102EA000C0FD012C25D0022C23D0042C21D0082CCD
:102EB0001FD0102C1DD0202C1BD0402C19D0802CC2
:102EC00017D0B4F5807F14D0B4F5007F11D0B4F5DD
:102ED000806F0ED0B4F5006F0BD0B4F5805F08D0D2
:102EE000B4F5005F05D0B4F5804F02D0B4F5004FC3
:102EF00000D104E040F24B1110A003F092FD2869CC
:102F0000204008B1012600E00026304670BD0000D8
:102F1000000002400004024000080240000C024091
:102F2000001002400014024000180240001C024041
:102F30000020024000240240002802405374645FD5
:102F40005065726970684472697665725C73726309
:102F50005C73746D3332663478785F6770696F2E96
:102F60006300000070B504460D46154884421DD02C
:102F7000144884421AD01448844217D0134884421B
:102F800014D01348844211D0124884420ED0124803
:102F900084420BD01148844208D01148844205D0A5
:102FA0001048844202D01048844200D104E040F22C
:102FB000F5110EA003F035FD60696840606170BDD9
:102FC000000002400004024000080240000C0240E1
:102FD000001002400014024000180240001C024091
:102FE0000020024000240240002802405374645F25
:102FF0005065726970684472697665725C73726359
:103000005C73746D3332663478785F6770696F2EE5
:103010006300000070B505460C46164631488542EF
:103020001DD0314885421AD03048854217D03048EB
:10303000854214D02F48854211D02F4885420ED0AA
:103040002E4885420BD02E48854208D02D48854217
:1030500005D02D48854202D02C48854200D104E09D
:103060004FF4E6712AA003F0DCFC012C25D0022CE1
:1030700023D0042C21D0082C1FD0102C1DD0202CA4
:103080001BD0402C19D0802C17D0B4F5807F14D0E1
:10309000B4F5007F11D0B4F5806F0ED0B4F5006F99
:1030A0000BD0B4F5805F08D0B4F5005F05D0B4F55F
:1030B000804F02D0B4F5004F00D104E040F2CD11B2
:1030C00013A003F0AEFC0EB1012E00D104E04FF4CA
:1030D000E7710FA003F0A5FC0EB12C8300E06C8318
:1030E00070BD0000000002400004024000080240E1
:1030F000000C024000100240001402400018024080
:10310000001C02400020024000240240002802402F
:103110005374645F50657269706844726976657251
:103120005C7372635C73746D3332663478785F6796
:1031300070696F2E6300000000BFFEE700B595B018
:103140000121480500F04CFF0121022000F00CFF96
:103150000121480500F008FF4020139002208DF85F
:10316000500003208DF8510001208DF852000020FE
:103170008DF8530013A92B48FFF7B4FC802013905F
:1031800013A92848FFF7AEFC042206212548FFF7C3
:1031900083FD042207212348FFF77EFD0020ADF8C0
:1031A00040004BF6FF70ADF842008020ADF84400BF
:1031B000C000ADF846001C480F904FF48040ADF8B9
:1031C00048000FA9194800F021FC0121174800F020
:1031D000C3F80F21154800F03FFA4FF0007000903F
:1031E000124810300190002005904FF48060069046
:1031F00000200790089009904FF400300A900420B6
:103200000B9003200C9000200D900E904020039016
:10321000074802902120049069460648FFF710F9FC
:1032200015B000BD00040240A0860100005400401B
:1032300048240020A060024000B587B00121880525
:1032400000F0CEFE0121022000F08EFE4FF440601F
:10325000059002208DF8180003208DF81900012038
:103260008DF81A008DF81B0005A91448FFF73AFCE9
:1032700004220A211148FFF70FFD04220B210F48F9
:10328000FFF70AFD0E4801900020ADF808004BF64C
:10329000FF70ADF80A000020ADF80C00ADF80E008C
:1032A0004FF48040ADF8100001A9064800F0AEFBD5
:1032B0000121044800F03AF907B000BD00040240C3
:1032C000A08601000058004070B504460D46124823
:1032D000844205D01148844202D01148844200D172
:1032E00004E040F2E1110FA003F09BFB0DB1012DB2
:1032F00000D104E04FF4F1710AA003F092FB25B174
:10330000208840F48060208004E020884FF6FF3160
:103310000840208070BD000000540040005800406C
:10332000005C00402E2E5C4672656552544F535C23
:103330005374645F5065726970684472697665722F
:103340005C7372635C73746D3332663478785F6972
:1033500032632E630000000070B504460D4612482B
:10336000844205D01148844202D01148844200D1E1
:1033700004E040F259110FA003F053FB0DB1012DF1
:1033800000D104E04FF4AD710AA003F04AFB2DB167
:10339000A08C4FF6EF710840A08403E0A08C40F0B1
:1033A0001000A08470BD0000005400400058004090
:1033B000005C00402E2E5C4672656552544F535C93
:1033C0005374645F5065726970684472697665729F
:1033D0005C7372635C73746D3332663478785F69E2
:1033E00032632E63000000002DE9F04705460C46CD
:1033F0000027B9460026B0463448854205D03448F7
:10340000854202D03348854200D104E040F28D412C
:1034100031A003F006FB3D4884423DD0B4F1021FC9
:103420003AD03B48844237D0B4F5020F34D0B4F5DB
:10343000901F31D0374884422ED0374884422BD059
:103440003648844228D03148801C844224D03048F9
:10345000001D844220D0324884421DD0102C1BD045
:103460003048844218D03048844215D02D48401C42
:10347000844211D02B483F3084420DD02A48801C12
:10348000844209D0001F844206D02648C01D8442D1
:1034900002D0B4F5806F00D104E040F28E410EA05E
:1034A00003F0BFFAB5F814902E8B360449EA0600F3
:1034B00020F07F4707EA0400A04202D14FF0010844
:1034C00001E04FF000084046BDE8F087005400409E
:1034D00000580040005C00402E2E5C46726565522C
:1034E000544F535C5374645F5065726970684472E2
:1034F000697665725C7372635C73746D33326634C3
:1035000078785F6932632E63000000008200060055
:10351000800086004000020040008200400012004F
:1035200084001600010003008200070070B5044605
:103530000D461248844205D01148844202D01148F9
:10354000844200D104E04FF49E710FA003F069FAA9
:103550000DB1012D00D104E040F23D110AA003F0AD
:1035600060FA25B1208840F00100208004E0208826
:103570004FF6FE710840208070BD000000540040EE
:1035800000580040005C00402E2E5C46726565527B
:10359000544F535C5374645F506572697068447231
:1035A000697665725C7372635C73746D3332663412
:1035B00078785F6932632E630000000010B5FFF772
:1035C0003BFEFFF7BBFD10BD70B504460D4612482B
:1035D000844205D01148844202D01148844200D16F
:1035E00004E040F291310FA003F01BFA0DB1012D60
:1035F00000D104E040F292310AA003F012FA25B1A2
:10360000A08840F40060A08004E0A0884FF2FF7121
:103610000840A08070BD00000054004000580040E9
:10362000005C00402E2E5C4672656552544F535C20
:103630005374645F5065726970684472697665722C
:103640005C7372635C73746D3332663478785F696F
:1036500032632E630000000070B504460D4600265C
:103660000F48844205D00F48844202D00E4884425D
:1036700000D104E04FF4BC710CA003F0D2F90F2D7F
:1036800000DC04E040F2791108A003F0CAF9A68C2E
:103690004FF6F070064005F00F000643A68470BD9B
:1036A0000054004000580040005C00402E2E5C4654
:1036B00072656552544F535C5374645F5065726910
:1036C00070684472697665725C7372635C73746D62
:1036D0003332663478785F6932632E63000000000D
:1036E00052E001212948FFF76FFF00BF2849274812
:1036F000FFF77AFE0028F9D001212648FEF788FC62
:103700001E202549086000BF2248FEF7FBFC012867
:1037100003D0214800680028F6D11E201E49086009
:1037200000BF1E491B48FEF75BFD18B91A48006828
:103730000028F6D11E201849086000BF4FF48061B0
:103740001248FFF751FE18B9134800680028F5D158
:1037500000211048FEF75CFC1E200F49086000BFE6
:103760000C48FEF7CFFC18B10B4800680028F7D1D1
:1037700000210648FFF728FF09490648FEF7BAFB73
:103780004FF47A7008F0BEFEABE700000054004032
:1037900082000600A06002400C01002000002020F2
:1037A00000003D2070B504460D461248844205D005
:1037B0001148844202D01148844200D104E04FF401
:1037C000C9710FA003F02DF90DB1012D00D104E056
:1037D00040F293110AA003F024F925B1208840F4A7
:1037E0008070208004E020884FF6FF610840208030
:1037F00070BD00000054004000580040005C0040D4
:103800002E2E5C4672656552544F535C5374645F50
:103810005065726970684472697665725C73726330
:103820005C73746D3332663478785F6932632E630B
:103830000000000070B504460D461248844205D0D1
:103840001148844202D01148844200D104E04FF470
:10385000D5710FA003F0E5F80DB1012D00D104E002
:1038600040F2AB110AA003F0DCF825B1208840F447
:103870000070208004E020884FF6FF51084020802F
:1038800070BD00000054004000580040005C004043
:103890002E2E5C4672656552544F535C5374645FC0
:1038A0005065726970684472697665725C737263A0
:1038B0005C73746D3332663478785F6932632E637B
:1038C000000000007CB505460C4600260020019053
:1038D00000903848854205D03748854202D03748A5
:1038E000854200D104E040F2F34135A003F099F89D
:1038F000B4F5000F3FD0B4F5800F3CD0B4F5001FF5
:1039000039D0B4F5801F36D0B4F5802F33D0B4F55C
:10391000003F30D0B4F5803F2DD0364884422AD0C5
:103920003548844227D0B4F1102F24D03348844244
:1039300021D0334884421ED0324884421BD03248C2
:10394000844218D030488038844214D02E48C03881
:10395000844210D02C48F03884420CD02A48F838E1
:10396000844208D0001F844205D0801E844202D0C9
:10397000401E844200D104E040F2F44110A003F064
:1039800050F80095200F019024F07F44019818B161
:1039900000981430009003E0240C00981830009038
:1039A00000980068204008B1012600E0002630465B
:1039B0007CBD00000054004000580040005C004006
:1039C0002E2E5C4672656552544F535C5374645F8F
:1039D0005065726970684472697665725C7372636F
:1039E0005C73746D3332663478785F6932632E634A
:1039F00000000000008000100040001000080010CF
:103A00000004001000020010000100102DE9FF4723
:103A100005460C460026B1460427DFF874815D4850
:103A2000854205D05C48854202D05C48854200D181
:103A300003E0BB215AA002F0F4FF206820B16549E1
:103A40002068884200D803E0BC2155A002F0E9FFBD
:103A5000A08828B1A088022802D0A0880A2800D116
:103A600003E0BD214EA002F0DCFFE088B0F5804FFE
:103A700004D0E0884BF6FF71884200D103E0BE21FC
:103A800047A002F0CEFF2089B0F5806F00DA03E096
:103A9000BF2143A002F0C5FF6089B0F5806F01D05F
:103AA000608900B903E0C0213DA002F0BAFFA089FF
:103AB000B0F5804F03D0A089B0F5404F00D103E0AE
:103AC000C12137A002F0ADFFAE884FF6C0700640AE
:103AD000684600F0FBFADDF808803F48B8FBF0F0DC
:103AE0001FFA80F946EA0906AE8028884FF6FE7173
:103AF0000840288000263949206888420CD8206870
:103B00004000B8FBF0F087B2042F00DA04273E43F0
:103B100009F10100288427E0E0884BF6FF71884214
:103B200006D1206800EB4000B8FBF0F087B209E056
:103B3000206800EBC00101EB0010B8FBF0F087B289
:103B400047F48047C7F30B0008B947F0010747F473
:103B5000004006434FF4967009FB00F04FF47A7171
:103B600090FBF1F0401C2884AE83288840F00100CF
:103B700028802E884FF6F5300640A08861890843DA
:103B800006432E80A089218908432881BDE8FF874C
:103B900000127A000054004000580040005C0040D1
:103BA0002E2E5C4672656552544F535C5374645FAD
:103BB0005065726970684472697665725C7372638D
:103BC0005C73746D3332663478785F6932632E6368
:103BD00000000000801A060040420F00A08601008D
:103BE00010B504460848844205D00848844202D0F3
:103BF0000748844200D104E04FF4417105A002F06F
:103C000010FF208AC0B210BD005400400058004090
:103C1000005C00402E2E5C4672656552544F535C2A
:103C20005374645F50657269706844726976657236
:103C30005C7372635C73746D3332663478785F6979
:103C400032632E630000000070B504460E46154630
:103C50000F48844205D00F48844202D00E48844267
:103C600000D104E04FF4E3710CA002F0DAFE0DB1D4
:103C7000012D00D104E040F2C71108A002F0D1FEEE
:103C800015B146F0010601E006F0FE06268270BD81
:103C90000054004000580040005C00402E2E5C465E
:103CA00072656552544F535C5374645F506572691A
:103CB00070684472697665725C7372635C73746D6C
:103CC0003332663478785F6932632E630000000017
:103CD00070B504460D460848844205D00748844222
:103CE00002D00748844200D104E040F2F72105A049
:103CF00002F097FE258270BD00540040005800403D
:103D0000005C00402E2E5C4672656552544F535C39
:103D10005374645F50657269706844726976657245
:103D20005C7372635C73746D3332663478785F6988
:103D300032632E630000000070B5002400210E489D
:103D4000FFF7C2FA01210C48FFF774FD06E0601C82
:103D500084B24FF6FE70844200D105E00749064860
:103D6000FFF742FB0028F2D000BF0348FFF738FFFF
:103D70000546284670BD0000005800404000030082
:103D800070B505460C4600BF4FF400311448FFF7EC
:103D900099FD0028F8D101211148FFF703FD00BF6C
:103DA00010490F48FFF720FB0028F9D0224629468A
:103DB0000B48FFF749FF3CB900BF0B490848FFF724
:103DC00013FB0028F9D009E0012C07D100BF0549F9
:103DD000491C0348FFF708FB0028F8D070BD00001D
:103DE00000580040010003008200070010B50121C7
:103DF0000148FFF71FFD10BD0058004010B50446F4
:103E000021460548FFF764FF00BF04490248FFF759
:103E1000EBFA0028F9D010BD0058004084000700DC
:103E200000BFFEE7704700002DE9F0410446002581
:103E300000270F26E07810B1E078012800D103E0D8
:103E40008D2122A002F0EDFD6078102800DA03E059
:103E50008E211EA002F0E5FDA078102800DA03E014
:103E60008F211AA002F0DDFDE07818B32148006828
:103E700000F4E060C0F5E060C0F30725C5F1040080
:103E8000C7B22E416078B840C5B2A0783040054333
:103E90002807050E184821784554207800F01F01A6
:103EA0000120884021784911890001F1E021C1F801
:103EB000000109E0207800F01F01012088400F492F
:103EC0002278521141F82200BDE8F0812E2E5C4686
:103ED00072656552544F535C5374645F50657269E8
:103EE00070684472697665725C7372635C6D697345
:103EF000632E63000CED00E000E400E080E100E0F0
:103F000010B50446B4F5E06F0BD0B4F5C06F08D01F
:103F1000B4F5A06F05D0B4F5806F02D0B4F5407F42
:103F200000D103E0792104A002F07BFD0C4820437E
:103F30000C49086010BD00002E2E5C46726565526B
:103F4000544F535C5374645F506572697068447277
:103F5000697665725C7372635C6D6973632E63006E
:103F60000000FA050CED00E070B504460D4610485F
:103F7000204008B904B104E040F63C010DA002F075
:103F800050FD0DB1012D00D104E040F63E0109A025
:103F900002F047FD2DB11148006820430F49086029
:103FA00004E00E480068A0430C49086070BD0000A2
:103FB00000E80B015374645F506572697068447265
:103FC000697665725C7372635C73746D33326634E8
:103FD00078785F7263632E6300000000303802401F
:103FE00070B504460D4604F4585008B904B104E015
:103FF00040F6B3010CA002F014FD0DB1012D00D16B
:1040000004E040F6B40108A002F00BFD2DB1104809
:10401000006820430E49086004E00D480068A04392
:104020000B49086070BD00005374645F506572698D
:1040300070684472697665725C7372635C73746DE8
:104040003332663478785F7263632E630000000059
:104050004038024070B504460D461048204008B96B
:1040600004B104E040F6E7010DA002F0DAFC0DB166
:10407000012D00D104E040F6E80109A002F0D1FCD6
:104080002DB11148006820430F49086004E00E4834
:104090000068A0430C49086070BD00000C0008F0E7
:1040A0005374645F506572697068447269766572B2
:1040B0005C7372635C73746D3332663478785F72EC
:1040C00063632E630000000044380240F0B5002115
:1040D00000220024022500260223324F3F6807F009
:1040E0000C0121B1042905D0082937D105E02E4F54
:1040F000076036E02D4F076033E02A4F3F1F3F68CF
:10410000C7F38056274F3F1F3F6807F03F036EB14C
:10411000264FB7FBF3F7DFF88CC0ACF1040CDCF8EA
:1041200000C0CCF3881C07FB0CF40CE01E4FB7FB5F
:10413000F3F7DFF870C0ACF1040CDCF800C0CCF38E
:10414000881C07FB0CF4174F3F1F3F68C7F301475C
:104150007F1C7D00B4FBF5F7076002E0124F07609B
:1041600000BF00BF0F4F3F6807F0F0010909104F73
:104170007A5C0768D74047600A4F3F6807F4E05110
:10418000890A0B4F7A5C4768D7408760054F3F68C4
:1041900007F46041490B064F7A5C4768D740C76017
:1041A000F0BD0000083802400024F40000127A003C
:1041B000D001002070B505460C4600269DB1012DAA
:1041C00011D0022D0FD0032D0DD0042D0BD0052DB5
:1041D00009D0062D07D0072D05D0082D03D0092DB5
:1041E00001D00A2D00D103E0AD2121A002F019FC7D
:1041F000ECB1012C1BD0022C19D0032C17D0042CAD
:1042000015D0052C13D0062C11D0072C0FD0082C5C
:104210000DD0092C0BD00A2C09D00B2C07D00C2C5C
:1042200005D00D2C03D00E2C01D00F2C00D103E0B3
:10423000AE210FA002F0F5FBA007010F0F2000FA3E
:1042400001F61548A11050F82100B0431249A21000
:1042500041F822000846A11050F82100A107090FDB
:1042600005FA01F108430C49A21041F8220070BD83
:104270005374645F506572697068447269766572E0
:104280005C7372635C73746D3332663478785F7319
:1042900079736366672E6300083801400CB500200F
:1042A000019000903448006840F480303249086042
:1042B00000BF3148006800F4003000900198401CB5
:1042C0000190009818B90198B0F5A04FF1D12A4893
:1042D000006800F4003010B10120009001E00020DF
:1042E00000900098012846D123484030006840F0F3
:1042F00080502149403108602048006840F4404027
:104300001E4908601C48083000681B4908310860D5
:104310000846006840F4004008600846006840F421
:10432000A05008601648091F0860081F006840F088
:104330008070091F086000BF0F48006800F000701F
:104340000028F9D040F205700E4908600A4808308C
:10435000006820F00300084908310860084600683A
:1043600040F00200086000BF03480830006800F019
:104370000C000828F8D10CBD003802400070004045
:10438000042A4004003C024010B500BF502080F3D6
:104390001188BFF34F8FBFF36F8F00BF09F080F814
:1043A00018B14FF080500449086000BF002080F32E
:1043B000118800BF10BD000004ED00E010B51548E5
:1043C000006840F47000134908601348006840F02A
:1043D00001001149086000200F49083108600E48AB
:1043E00000680E4908400C4908600D48091D086026
:1043F000081F006820F48020091F0860002006497B
:104400000C310860FFF74AFF4FF000600149803926
:10441000086010BD88ED00E000380240FFFFF6FEA6
:104420001030002410B50024002012490860022139
:10443000114800F0D7FA88B102210F4800F01AF9AC
:1044400040210E48FEF78EFD0B4800F005FA84B2BD
:104450000B4800882118084800F040FD0548006816
:1044600038B14FF0805007490860BFF34F8FBFF35A
:104470006F8F10BDAC01002000400140000C0240D5
:10448000F400002004ED00E00EB501210846FFF71E
:10449000A7FD0020ADF802005320ADF800004FF05A
:1044A000FF3001900020ADF808008DF80A00694641
:1044B0004FF0804000F0DCFD0121880700F044F956
:1044C0000EBD00000EB501210220FFF789FD00207E
:1044D000ADF802005320ADF800004FF6FF700190D8
:1044E0000020ADF808008DF80A006946034800F086
:1044F000BFFD0121014800F027F90EBD0004004076
:104500001FB501210420FFF76BFD4FF6FF700290ED
:104510004EF65F20ADF804000020ADF80C00ADF8B9
:10452000060001A90B4800F0A3FD0121094800F095
:104530000BF91E208DF8000005208DF801000020E9
:104540008DF8020001208DF803006846FFF76CFC2F
:104550001FBD00000008004000200B4908600B4808
:10456000006820B109480068401E084908600648F4
:10457000006838B14FF0805005490860BFF34F8F95
:10458000BFF36F8F70470000B00100200C010020C6
:1045900004ED00E00EB501210820FFF721FD002009
:1045A000ADF802004AF20F40ADF800004FF0FF30C6
:1045B00001900020ADF808008DF80A006946044813
:1045C00000F056FD0121024800F0BEF80EBD0000CB
:1045D000000C004000B589B001210804FFF73AFD46
:1045E0000020ADF81A001E4800681E49B0FBF1F02B
:1045F000401E80B2ADF818004FF6FF700790002003
:10460000ADF820008DF8220006A9174800F030FD13
:104610000120ADF8060015480088039001A9144850
:1046200000F0F6FA0021124800F0EAFB0122022114
:104630000F4800F069FA01210D4800F085F81820B4
:104640008DF8000005208DF8010002208DF8020091
:1046500001208DF803006846FFF7E6FB09B000BDB6
:10466000BC010020808D5B0000040040F4000020AD
:104670000040014070B504460D461948844226D0DA
:10468000B4F1804F23D01748844220D0164884428A
:104690001DD0164884421AD01548844217D01548B8
:1046A000844214D01448844211D0144884420ED05D
:1046B000134884420BD01348844208D012488442E5
:1046C00005D01248844202D01148844200D104E04F
:1046D00040F6FD110FA002F0A4F9E843208270BD5E
:1046E000000001400004004000080040000C0040B1
:1046F0000010004000140040000401400040014050
:10470000004401400048014000180040001C0040E7
:10471000002000402E2E5C4672656552544F535C5B
:104720005374645F5065726970684472697665722B
:104730005C7372635C73746D3332663478785F7463
:10474000696D2E630000000070B504460D462248D6
:10475000844226D0B4F1804F23D02048844220D018
:104760001F4884421DD01F4884421AD01E488442EC
:1047700017D01E48844214D01D48844211D01D48D1
:1047800084420ED01C4884420BD01C48844208D07E
:104790001B48844205D01B48844202D01A488442F8
:1047A00000D104E040F2532118A002F03AF90DB113
:1047B000012D00D104E04FF4157114A002F031F97D
:1047C00025B1208840F00100208004E020884FF6C9
:1047D000FE710840208070BD0000014000040040D0
:1047E00000080040000C0040001000400014004091
:1047F00000040140004001400044014000480140E5
:1048000000180040001C0040002000402E2E5C4696
:1048100072656552544F535C5374645F506572699E
:1048200070684472697665725C7372635C73746DF0
:104830003332663478785F74696D2E63000000004F
:1048400010B5FFF721FEFFF7A5FEFFF759FEFFF7B2
:1048500039FEFFF7BFFE10BD10B50446154884426F
:1048600020D0B4F1804F1DD0134884421AD0134891
:10487000844217D01248844214D01248844211D086
:10488000114884420ED0114884420BD01048844213
:1048900008D01048844205D00F48844202D00F4807
:1048A000844200D104E040F2F3710DA002F0B9F8A7
:1048B000606B10BD00000140000400400008004093
:1048C000000C004000040140004001400044014051
:1048D0000048014000180040001C0040002000403B
:1048E0002E2E5C4672656552544F535C5374645F60
:1048F0005065726970684472697665725C73726340
:104900005C73746D3332663478785F74696D2E63CE
:104910000000000010B504461848844226D0B4F1C7
:10492000804F23D01648844220D0164884421DD0A0
:10493000154884421AD01548844217D0144884423E
:1049400014D01448844211D0134884420ED0134826
:1049500084420BD01248844208D01248844205D0C9
:104960001148844202D01148844200D104E040F250
:10497000B9110FA002F055F8606A10BD00000140A7
:104980000004004000080040000C004000100040FF
:104990000014004000040140004001400044014078
:1049A0000048014000180040001C0040002000406A
:1049B0002E2E5C4672656552544F535C5374645F8F
:1049C0005065726970684472697665725C7372636F
:1049D0005C73746D3332663478785F74696D2E63FE
:1049E000000000002DE9F04104460D460026002796
:1049F000B0462B48844226D0B4F1804F23D02948BA
:104A0000844220D0284884421DD0284884421AD0AD
:104A10002748844217D02748844214D0264884422D
:104A200011D0264884420ED0254884420BD0254818
:104A3000844208D02448844205D02448844202D0CD
:104A40002348844200D104E040F6D61121A001F0B1
:104A5000E8FF012D0DD0022D0BD0042D09D0082D1B
:104A600007D0102D05D0202D03D0402D01D0802D52
:104A700000D104E040F6D71116A001F0D2FF208A41
:104A800000EA0507A08900EA050827B1B8F1000F80
:104A900001D0012600E000263046BDE8F08100008C
:104AA000000001400004004000080040000C0040ED
:104AB000001000400014004000040140004001408C
:104AC000004401400048014000180040001C004024
:104AD000002000402E2E5C4672656552544F535C98
:104AE0005374645F50657269706844726976657268
:104AF0005C7372635C73746D3332663478785F74A0
:104B0000696D2E630000000070B504460D46164620
:104B10002548844226D0B4F1804F23D023488442D4
:104B200020D0234884421DD0224884421AD02248F3
:104B3000844217D02148844214D02148844211D0A5
:104B4000204884420ED0204884420BD01F48844223
:104B500008D01F48844205D01E48844202D01E4817
:104B6000844200D104E040F647111CA001F059FF37
:104B700005F47F4008B905B104E040F6481117A0DC
:104B800001F04FFF0EB1012E00D104E040F64911B3
:104B900012A001F046FF1EB1A0892843A08102E0C7
:104BA000A089A843A08170BD00000140000400401E
:104BB00000080040000C00400010004000140040BD
:104BC0000004014000400140004401400048014011
:104BD00000180040001C0040002000402E2E5C46C3
:104BE00072656552544F535C5374645F50657269CB
:104BF00070684472697665725C7372635C73746D1D
:104C00003332663478785F74696D2E63000000007B
:104C10002DE9F04105460C464FF00008002600271C
:104C20005F48854220D0B5F1804F1DD05D48854258
:104C30001AD05D48854217D05C48854214D05C4844
:104C4000854211D05B4885420ED05B4885420BD02F
:104C50005A48854208D05A48854205D0594885426D
:104C600002D05948854200D104E040F2A62157A065
:104C700001F0D7FE208870B1208810280BD0208842
:104C8000202808D02088302805D02088602802D02D
:104C90002088702800D104E040F2A7214BA001F049
:104CA000C0FE608810B16088012800D104E04FF494
:104CB0002A7146A001F0B5FEA08910B1A089022892
:104CC00000D104E040F2A92140A001F0AAFE288C06
:104CD0004FF6FE71084028842E8CAF88B5F81880F6
:104CE0004FF68F7008EA0008881E08EA000820883E
:104CF00040EA0808481E0640A0890643608806432B
:104D00002748854202D02A48854241D1A08810B167
:104D1000A088042800D104E040F2C6212BA001F0B5
:104D200080FEE08910B1E089082800D104E040F25B
:104D3000C72126A001F075FE608AB0F5007F01D082
:104D4000608A00B904E04FF4327120A001F069FEDE
:104D5000208AB0F5807F01D0208A00B904E040F2BB
:104D6000C9211AA001F05DFE4FF6F7700640E089F8
:104D700006434FF6FB700640A08806434FF6FF60DF
:104D800007404FF6FF500740208A0743608A0743D9
:104D9000AF80A5F81880A06868632E84BDE8F08114
:104DA000000001400004004000080040000C0040EA
:104DB000000401400040014000440140004801401F
:104DC00000180040001C0040002000402E2E5C46D1
:104DD00072656552544F535C5374645F50657269D9
:104DE00070684472697665725C7372635C73746D2B
:104DF0003332663478785F74696D2E63000000008A
:104E000070B504460D4600261C48844220D0B4F1FB
:104E1000804F1DD01A4884421AD01A48844217D0B5
:104E20001948844214D01948844211D01848844249
:104E30000ED0184884420BD01748844208D0174837
:104E4000844205D01648844202D01648844200D1DC
:104E500004E040F2DB4114A001F0E3FD082D00D096
:104E600005B904E040F2DC410FA001F0DAFD268B29
:104E70004FF6F77006402E43268370BD00000140B8
:104E80000004004000080040000C00400004014005
:104E9000004001400044014000480140001800402B
:104EA000001C0040002000402E2E5C4672656552BA
:104EB000544F535C5374645F5065726970684472F8
:104EC000697665725C7372635C73746D33326634D9
:104ED00078785F74696D2E630000000070B5044639
:104EE0000D461648844220D0B4F1804F1DD014489E
:104EF00084421AD01348844217D01348844214D0F5
:104F00001248844211D0124884420ED01148844283
:104F10000BD01148844208D01048844205D0104874
:104F2000844202D00F48844200D104E040F227417D
:104F30000DA001F076FD656370BD0000000001402A
:104F40000004004000080040000C00400004014044
:104F5000004001400044014000480140001800406A
:104F6000001C0040002000402E2E5C4672656552F9
:104F7000544F535C5374645F506572697068447237
:104F8000697665725C7372635C73746D3332663418
:104F900078785F74696D2E630000000070B5044678
:104FA0000D461948844226D0B4F1804F23D01748CB
:104FB000844220D0164884421DD0164884421AD01C
:104FC0001548844217D01548844214D014488442AE
:104FD00011D0144884420ED0134884420BD0134899
:104FE000844208D01248844205D01248844202D03C
:104FF0001148844200D104E04FF4CE710FA001F0BB
:1050000010FD656270BD000000000140000400401A
:1050100000080040000C0040001000400014004058
:1050200000040140004001400044014000480140AC
:1050300000180040001C0040002000402E2E5C465E
:1050400072656552544F535C5374645F5065726966
:1050500070684472697665725C7372635C73746DB8
:105060003332663478785F74696D2E630000000017
:1050700070B504460D4600264348844226D0B4F15C
:10508000804F23D04148844220D0414884421DD0E3
:10509000404884421AD04048844217D03F48844256
:1050A00014D03F48844211D03E4884420ED03E483E
:1050B00084420BD03D48844208D03D48844205D00C
:1050C0003C48844202D03C48844200D104E040F293
:1050D00025113AA001F0A5FC688858B1688810280D
:1050E00008D06888202805D06888402802D06888C1
:1050F000602800D104E04FF4937130A001F091FCDE
:10510000288938B12889B0F5807F03D02889B0F587
:10511000007F00D104E040F2271128A001F081FCBB
:105120002688194884420ED01D4884420BD0B4F121
:10513000804F08D01548844205D01548844202D0DB
:105140001448844204D14FF68F70064068880643A5
:105150001148844207D01148844204D04FF6FF40E2
:1051600006402889064326806868E06228882085F2
:105170000548844202D00A48844201D1A87A208698
:105180000120A08270BD000000000140000400402A
:1051900000080040000C00400010004000140040D7
:1051A000000401400040014000440140004801402B
:1051B00000180040001C0040002000402E2E5C46DD
:1051C00072656552544F535C5374645F50657269E5
:1051D00070684472697665725C7372635C73746D37
:1051E0003332663478785F74696D2E630000000096
:1051F00000B587B001210846FEF7B6FE0121102058
:10520000FEF728FF07220A211E48FDF745FD072269
:1052100009211C48FDF740FD02208DF808000320FD
:105220008DF8090000208DF80A0001208DF80B0090
:105230008002019001A91348FDF754FC4FF400705F
:10524000019001A90F48FDF74DFC01210E4800F027
:10525000DDFD4FF4165003900020ADF81000ADF8BE
:105260001200ADF81400ADF818000C20ADF81600CF
:1052700003A9054800F0A8FC0121034800F0CAF981
:1052800007B000BD000002400010014000B595B01D
:1052900001210846FEF768FE01214804FEF7A0FE42
:1052A000072202213448FDF7F7FC07220321324888
:1052B000FDF7F2FC02208DF8400003208DF841003C
:1052C00000208DF8420001208DF8430004200F904B
:1052D0000FA92948FDF706FC08200F900FA92648C2
:1052E000FDF700FC0121254800F090FD4FF4165019
:1052F00011900020ADF84800ADF84A00ADF84C0020
:10530000ADF850000C20ADF84E0011A91B4800F07C
:105310005BFC01214805FEF727FE042004900B905A
:1053200000200C900D9008904FF480600690801043
:1053300009901248001D019000200E9007900590E2
:105340004FF400300A9080020090002003900C4837
:10535000029069460B48FDF773F80121074800F0F9
:1053600059F901210748FCF753FE01224021034867
:1053700000F0BCF915B000BD000002400044004040
:10538000050100208860024000B587B00121082097
:10539000FEF7EAFD01218804FEF722FE072208211C
:1053A0002948FDF779FC072209212748FDF774FCFD
:1053B00002208DF8080003208DF8090000208DF8E8
:1053C0000A0001208DF80B000002019001A91E487F
:1053D000FDF788FB4FF40070019001A91A48FDF712
:1053E00081FB0121194800F011FD4FF41650039084
:1053F0000020ADF81000ADF81200ADF81400ADF8C3
:1054000018000C20ADF8160003A9104800F0DCFBD2
:1054100001210E4800F0FEF827208DF8000005203D
:105420008DF8010002208DF8020001208DF80300A4
:105430006846FEF7F9FC012240F22551034800F0CE
:105440000DFB07B000BD0000000C0240004800400A
:1054500010B500202349086040F22551224800F091
:105460003DFA012831D12148007870BB1E4800F078
:1054700031FD1F491F4A1278885408461D49097892
:10548000405CFF2818D11B480078401E1849085C72
:10549000FF2811D117480078801E085CFF280BD127
:1054A0000120124908700020124908700D49124865
:1054B000006807F069FD04E00E480078401C0D49C3
:1054C00008702021084800F031F80648006838B11B
:1054D0004FF0805009490860BFF34F8FBFF36F8FC3
:1054E00010BD0000B401002000480040140100205D
:1054F00069240020150100201801002004ED00E0BF
:1055000010B504460CE000BF0748008800F04000DA
:105510000028F9D02178044800F02EFD14F8010B82
:1055200020780028EFD110BD0048004070B5044637
:105530000D46244884421AD02348844217D0234879
:10554000844214D02248844211D0224884420ED092
:10555000214884420BD02148844208D0204884420C
:1055600005D02048844202D01F48844200D104E084
:1055700040F245511DA001F054FA4FF69F402840DB
:1055800008B905B104E040F2465118A001F049FA0B
:1055900005F40070B0F5007F11D10A48844208D0AC
:1055A0000948844205D00948844202D00A4884420E
:1055B00000D104E040F24B510CA001F032FAE84374
:1055C000208070BD001001400044004000480040B1
:1055D000004C0040005000400014014000780040A2
:1055E000007C004000180140001C01405374645FBF
:1055F0005065726970684472697665725C73726333
:105600005C73746D3332663478785F75736172746D
:105610002E63000070B504460D461C4884421AD023
:105620001B48844217D01B48844214D01A48844235
:1056300011D01A4884420ED0194884420BD0194820
:10564000844208D01848844205D01848844202D0C9
:105650001748844200D104E04FF4D87115A001F03E
:10566000E0F90DB1012D00D104E040F2B11111A01B
:1056700001F0D7F925B1A08940F40050A08104E0E1
:10568000A0894DF6FF710840A08170BD0010014057
:105690000044004000480040004C004000500040E2
:1056A0000014014000780040007C004000180140D8
:1056B000001C01405374645F5065726970684472E5
:1056C000697665725C7372635C73746D33326634D1
:1056D00078785F75736172742E63000010B5FFF700
:1056E00053FEFFF785FDFFF7D1FD10BD70B50446F1
:1056F0000D461646204884421AD02048844217D0CE
:105700001F48844214D01F48844211D01E4884424E
:105710000ED01E4884420BD01D48844208D01D483C
:10572000844205D01C48844202D01C48844200D1E7
:1057300004E04FF48A611AA001F073F94FF63F704C
:10574000284008B905B104E040F2514114A001F02D
:1057500068F90EB1012E00D104E040F2524110A0D0
:1057600001F05FF91EB1A08A2843A08202E0A08A5E
:10577000A843A08270BD000000100140004400401A
:1057800000480040004C0040005000400014014020
:1057900000780040007C004000180140001C0140DF
:1057A0005374645F5065726970684472697665729B
:1057B0005C7372635C73746D3332663478785F75D2
:1057C000736172742E63000070B504460D460026A6
:1057D0002E4884421AD02E48844217D02D48844245
:1057E00014D02D48844211D02C4884420ED02C482D
:1057F00084420BD02B48844208D02B48844205D0E9
:105800002A48844202D02A48844200D104E040F26F
:10581000155128A001F005F9012D13D0802D11D0CC
:10582000402D0FD0202D0DD0102D0BD0B5F5807F41
:1058300008D0B5F5007F05D0082D03D0042D01D088
:10584000022D00D104E040F216511AA001F0E9F84F
:10585000B5F5007F11D10D48844208D00C48844230
:1058600005D00C48844202D00D48844200D104E0A7
:1058700040F21B510FA001F0D4F82088284008B155
:10588000012600E00026304670BD000000100140F7
:105890000044004000480040004C004000500040E0
:1058A0000014014000780040007C004000180140D6
:1058B000001C01405374645F5065726970684472E3
:1058C000697665725C7372635C73746D33326634CF
:1058D00078785F75736172742E6300002DE9F0476C
:1058E00004460D4600270026B046B146474884428C
:1058F0001AD04748844217D04648844214D04648BC
:10590000844211D0454884420ED0454884420BD091
:105910004448844208D04448844205D043488442E5
:1059200002D04348844200D104E040F2695141A0D2
:1059300001F077F8282D27D040F22770854223D038
:1059400040F2266085421FD040F2255085421BD090
:1059500040F22440854217D040F64600854213D0DD
:1059600040F66A1085420FD0B5F5587F0CD040F252
:105970002530854208D0B5F5587F05D0B5F5187F9C
:1059800002D0B5F5B07F00D104E040F26A5129A001
:1059900001F047F840F66A10854211D11B48844255
:1059A00008D01B48844205D01A48844202D01C48C3
:1059B000844200D104E040F26F511EA001F031F8A2
:1059C000C5F3421805F01F06012000FA06F6B8F1EB
:1059D000010F02D1A089064007E0B8F1020F02D101
:1059E000208A064001E0A08A06402F12012000FA1A
:1059F00007F7208807401EB117B14FF0010901E0F9
:105A00004FF000094846BDE8F08700000010014053
:105A10000044004000480040004C0040005000405E
:105A20000014014000780040007C00400018014054
:105A3000001C01405374645F506572697068447261
:105A4000697665725C7372635C73746D333266344D
:105A500078785F75736172742E6300002DE9F047EA
:105A600004460D4617464FF00008C246C1460026C0
:105A7000414884421AD04148844217D04048844269
:105A800014D04048844211D03F4884420ED03F4851
:105A900084420BD03E48844208D03E48844205D020
:105AA0003D48844202D03D48844200D104E040F2A7
:105AB000D6413BA000F0B5FF282D19D040F2277049
:105AC000854215D040F22660854211D040F2255023
:105AD00085420DD040F22440854209D040F6460070
