:020000040800F2
:10000000C8340120E902000805090008FD080008BD
:1000100001090008330500082D1900080000000040
:10002000000000000000000000000000290200089D
:10003000370500080000000085020008810D000857
:100040000303000803030008030300080303000878
:100050000303000803030008030300080303000868
:100060000303000803030008030300080303000858
:100070000303000803030008030300080303000848
:100080000303000803030008030300080303000838
:100090000303000803030008030300080303000828
:1000A0000303000803030008030300080303000818
:1000B0000303000803030008030300080303000808
:1000C00003030008030300080303000803030008F8
:1000D000030300080303000803030008890F000856
:1000E00003030008030300080303000803030008D8
:1000F00003030008030300080303000803030008C8
:1001000003030008030300080303000803030008B7
:1001100003030008030300080303000803030008A7
:100120000303000803030008030300080303000897
:100130000303000803030008030300080303000887
:100140000303000803030008030300080303000877
:100150000303000803030008030300080303000867
:100160000303000803030008030300080303000857
:100170000303000803030008030300080303000847
:10018000030300080303000800F002F800F03CF845
:100190000AA090E8000C82448344AAF10107DA45E2
:1001A00001D100F031F8AFF2090EBAE80F0013F0F8
:1001B000010F18BFFB1A43F001031847543A00001F
:1001C000743A0000103A24BF78C878C1FAD85207B0
:1001D00024BF30C830C144BF04680C6070470000C1
:1001E0000023002400250026103A28BF78C1FBD840
:1001F000520728BF30C148BF0B6070471FB503F0DE
:1002000001FD1FBD10B510BD00F059F91146FFF7F3
:10021000F5FF01F0A7FC00F077F903B4FFF7F2FF58
:1002200003BC00F07FF900002C4B19680868B0E8A7
:10023000F04F80F30988BFF36F8F4FF0000080F319
:10024000118870470000000008480068006880F3CB
:1002500008884FF0000080F3148862B661B6BFF3DF
:100260004F8FBFF36F8F00DF00BF00BF08ED00E0CE
:10027000DFF80C00016841F470010160704700BFB5
:1002800088ED00E0EFF30980BFF36F8F134B1A681E
:100290001EF0100F08BF20ED108A20E9F04F10600B
:1002A00009B44FF0500080F31188BFF34F8FBFF3B4
:1002B0006F8F02F0B9FC4FF0000080F3118809BC89
:1002C00019680868B0E8F04F1EF0100F08BFB0ECD6
:1002D000108A80F30988BFF36F8F704734000020C5
:1002E000EFF3058070470000094880470948004740
:1002F000FEE7FEE7FEE7FEE7FEE7FEE7FEE7FEE7D6
:10030000FEE7FEE704480549054A064B7047000032
:10031000B50D000889010008C82E0120C83401204D
:10032000C8300120C8300120032A40F2308010F08C
:10033000030C00F0158011F8013BBCF1020F624480
:1003400098BF11F801CB00F8013B38BF11F8013B11
:10035000A2F1040298BF00F801CB38BF00F8013BBE
:1003600011F0030300F05780083AC0F0088051F8FC
:10037000043B083A51F804CBA0E80810F5E7121D39
:100380005CBF51F8043B40F8043BAFF30080D20758
:1003900024BF11F8013B11F801CB48BF11F8012B24
:1003A00024BF00F8013B00F801CB48BF00F8012B47
:1003B000704702F0FF0343EA032242EA024200F0E0
:1003C0005EB84FF0000200B51346944696462039B9
:1003D00022BFA0E80C50A0E80C50B1F12001BFF4FE
:1003E000F7AF090728BFA0E80C5048BF0CC05DF864
:1003F00004EB890028BF40F8042B08BF704748BFB2
:1004000020F8022B11F0804F18BF00F8012B704725
:1004100070477047704710B5203AC0F00B80B1E8C4
:100420001850203AA0E81850B1E81850A0E8185029
:10043000BFF4F5AF5FEA027C24BFB1E81850A0E832
:10044000185044BF18C918C0BDE810405FEA827C4C
:1004500024BF51F8043B40F8043B08BF7047D20763
:1004600028BF31F8023B48BF11F8012B28BF20F804
:10047000023B48BF00F8012B70474FF000020429EF
:10048000C0F0128010F0030C3FF49DAFCCF1040CCF
:10049000BCF1020F18BF00F8012BA8BF20F8022BF7
:1004A000A1EB0C01FFF78FBF5FEAC17C24BF00F80E
:1004B000012B00F8012B48BF00F8012B704775464F
:1004C00000F02CF8AE4605006946534620F00700C0
:1004D000854618B020B5FFF715FFBDE820404FF066
:1004E00000064FF000074FF000084FF0000B21F01E
:1004F0000701AC46ACE8C009ACE8C009ACE8C009EB
:10050000ACE8C0098D46704710B50446AFF30080D3
:100510002046BDE81040FFF780BE0000004870474D
:10052000642E012001491820ABBEFEE72600020020
:10053000704700BFFEE770471CB50121082000F09E
:1005400083FA4FF44050009001208DF804000320FE
:100550008DF8050000208DF806008DF8070069462B
:100560000A4800F017F80120009000208DF80400E0
:1005700003208DF8050000208DF806008DF8070097
:100580006946034800F006F81CBD0000000C02405C
:10059000000002402DE9F04104460D4600260027E8
:1005A000B046544884421DD0534884421AD0534820
:1005B000844217D05248844214D05248844211D009
:1005C000514884420ED0514884420BD05048844256
:1005D00008D05048844205D04F48844202D04F484A
:1005E000844200D103E0D1214DA001F0A1F9288877
:1005F00080B200B103E0D22149A001F099F9287935
:1006000040B12879012805D02879022802D028791C
:10061000032800D103E0D32141A001F089F9E87952
:1006200028B1E879012802D0E879022800D103E056
:10063000D4213BA001F07CF9002657E0012000FA0C
:1006400006F7286800EA0708B8454ED1206872000E
:1006500003219140884320602879710088402168F7
:10066000084320602879012802D02879022830D157
:10067000687940B16879012805D06879022802D0EC
:100680006879032800D103E0E62125A001F050F9A4
:10069000A0687200032191408843A06068797100CE
:1006A0008840A1680843A060A87910B1A879012802
:1006B00000D103E0ED211AA001F03AF961680120B0
:1006C000B040814361606168A879B04080B2014365
:1006D0006160E0687200032191408843E060E8793E
:1006E00071008840E1680843E060761C102EA5D3B5
:1006F000BDE8F08100000240000402400008024012
:10070000000C024000100240001402400018024099
:10071000001C024000200240002402400028024049
:100720005374645F5065726970684472697665726B
:100730005C7372635C73746D3332663478785F67B0
:1007400070696F2E630000002DE9F04106460D46EA
:1007500014460027B846544886421DD05348864266
:100760001AD05348864217D05248864214D0524875
:10077000864211D0514886420ED0514886420BD055
:100780005048864208D05048864205D04F4886429D
:1007900002D04F48864200D104E040F24B214DA0E8
:1007A00001F0C6F8EDB1012D1BD0022D19D0032D9B
:1007B00017D0042D15D0052D13D0062D11D0072DDF
:1007C0000FD0082D0DD0092D0BD00A2D09D00B2DDF
:1007D00007D00C2D05D00D2D03D00E2D01D00F2DDF
:1007E00000D104E04FF413713AA001F0A1F8A4B3D2
:1007F000092C32D08CB384B37CB374B3012C2CD0CD
:100800002BD0022C29D028D027D0032C25D0042C83
:1008100023D022D021D0052C1FD01ED0092C1CD0D3
:10082000062C1AD0092C18D0072C16D015D014D0AD
:10083000082C12D011D010D0092C0ED00DD00A2CBB
:100840000BD00AD00B2C08D00C2C06D005D00D2CC8
:1008500003D00F2C01D00C2C00D104E040F24D212C
:100860001CA001F065F86807C00E04FA00F7E91053
:1008700006F1200050F821006907CA0E0F219140AF
:100880008843EA1006F1200141F82200E91006F140
:10089000200050F8210040EA0708E91006F1200086
:1008A00040F82180BDE8F0810000024000040240D1
:1008B00000080240000C02400010024000140240F8
:1008C00000180240001C02400020024000240240A8
:1008D000002802405374645F506572697068447206
:1008E000697665725C7372635C73746D33326634FF
:1008F00078785F6770696F2E6300000000BFFEE7C5
:1009000000BFFEE7704700002DE9F04104460025D6
:1009100000270F26E07810B1E078012800D103E02D
:100920008D2122A001F004F86078102800DA03E09D
:100930008E211EA000F0FCFFA078102800DA03E052
:100940008F211AA000F0F4FFE07818B32148006866
:1009500000F4E060C0F5E060C0F30725C5F10400D5
:10096000C7B22E416078B840C5B2A0783040054388
:100970002807050E184821784554207800F01F01FB
:100980000120884021784911890001F1E021C1F856
:10099000000109E0207800F01F01012088400F4984
:1009A0002278521141F82200BDE8F0812E2E5C46DB
:1009B00072656552544F535C5374645F506572693D
:1009C00070684472697665725C7372635C6D69739A
:1009D000632E63000CED00E000E400E080E100E045
:1009E00010B50446B4F5E06F0BD0B4F5C06F08D075
:1009F000B4F5A06F05D0B4F5806F02D0B4F5407F98
:100A000000D103E0792104A000F092FF0C482043BC
:100A10000C49086010BD00002E2E5C4672656552C0
:100A2000544F535C5374645F5065726970684472CC
:100A3000697665725C7372635C6D6973632E6300C3
:100A40000000FA050CED00E070B504460D461048B4
:100A5000204008B904B104E040F63C010DA000F0CC
:100A600067FF0DB1012D00D104E040F63E0109A061
:100A700000F05EFF2DB11148006820430F49086067
:100A800004E00E480068A0430C49086070BD0000F7
:100A900000E80B015374645F5065726970684472BA
:100AA000697665725C7372635C73746D333266343D
:100AB00078785F7263632E63000000003038024074
:100AC00070B504460D4604F4585008B904B104E06A
:100AD00040F6B3010CA000F02BFF0DB1012D00D1A9
:100AE00004E040F6B40108A000F022FF2DB1104848
:100AF000006820430E49086004E00D480068A043E8
:100B00000B49086070BD00005374645F50657269E2
:100B100070684472697665725C7372635C73746D3D
:100B20003332663478785F7263632E6300000000AE
:100B30004038024070B504460D461048204008B9C0
:100B400004B104E040F6E7010DA000F0F1FE0DB1A4
:100B5000012D00D104E040F6E80109A000F0E8FE14
:100B60002DB11148006820430F49086004E00E4889
:100B70000068A0430C49086070BD00000C0008F03C
:100B80005374645F50657269706844726976657207
:100B90005C7372635C73746D3332663478785F7241
:100BA00063632E630000000044380240F0B500216A
:100BB00000220024022500260223324F3F6807F05E
:100BC0000C0121B1042905D0082937D105E02E4FA9
:100BD000076036E02D4F076033E02A4F3F1F3F6824
:100BE000C7F38056274F3F1F3F6807F03F036EB1A2
:100BF000264FB7FBF3F7DFF88CC0ACF1040CDCF840
:100C000000C0CCF3881C07FB0CF40CE01E4FB7FBB4
:100C1000F3F7DFF870C0ACF1040CDCF800C0CCF3E3
:100C2000881C07FB0CF4174F3F1F3F68C7F30147B1
:100C30007F1C7D00B4FBF5F7076002E0124F0760F0
:100C400000BF00BF0F4F3F6807F0F0010909104FC8
:100C50007A5C0768D74047600A4F3F6807F4E05165
:100C6000890A0B4F7A5C4768D7408760054F3F6819
:100C700007F46041490B064F7A5C4768D740C7606C
:100C8000F0BD0000083802400024F40000127A0091
:100C9000240000200CB5002001900090344800682A
:100CA00040F480303249086000BF3148006800F4E9
:100CB000003000900198401C0190009818B90198EC
:100CC000B0F5A04FF1D12A48006800F4003010B10F
:100CD0000120009001E0002000900098012846D1FA
:100CE00023484030006840F080502149403108607E
:100CF0002048006840F440401E4908601C48083005
:100D000000681B49083108600846006840F400404C
:100D100008600846006840F4A05008601648091FA3
:100D20000860081F006840F08070091F086000BF5D
:100D30000F48006800F000700028F9D040F20570FC
:100D40000E4908600A480830006820F0030008498E
:100D5000083108600846006840F00200086000BFE3
:100D600003480830006800F00C000828F8D10CBDDA
:100D70000038024000700040042A4004003C024059
:100D800010B500BF502080F31188BFF34F8FBFF321
:100D90006F8F00BF02F096FC18B14FF080500449ED
:100DA000086000BF002080F3118800BF10BD000064
:100DB00004ED00E010B51548006840F470001349D8
:100DC00008601348006840F00100114908600020E5
:100DD0000F49083108600E4800680E4908400C4968
:100DE00008600D48091D0860081F006820F4802075
:100DF000091F0860002006490C310860FFF74AFF10
:100E00004FF0006001498039086010BD88ED00E0B6
:100E100000380240FFFFF6FE1030002400B587B016
:100E200001210846FFF710FE01211020FFF782FE86
:100E300007220A211E48FFF787FC072209211C48C8
:100E4000FFF782FC02208DF8080003208DF80900CE
:100E500000208DF80A0001208DF80B00800201901F
:100E600001A91348FFF796FB4FF40070019001A908
:100E70000F48FFF78FFB01210E4800F02FFC4FF4C5
:100E8000165003900020ADF81000ADF81200ADF838
:100E90001400ADF818000C20ADF8160003A90548A1
:100EA00000F0FAFA0121034800F016F907B000BD7E
:100EB000000002400010014000B587B00121082069
:100EC000FFF7C2FD01218804FFF7FAFD0722082180
:100ED0002B48FFF739FC072209212948FFF734FC8A
:100EE00002208DF8080003208DF8090000208DF8FD
:100EF0000A0001208DF80B000002019001A9204892
:100F0000FFF748FB4FF40070019001A91C48FFF760
:100F100041FB01211B4800F0E1FB4FF41650039008
:100F20000020ADF81000ADF81200ADF81400ADF8D7
:100F300018000C20ADF8160003A9124800F0ACFA16
:100F40000121104800F0C8F84FF44070FFF748FD49
:100F500027208DF8000006208DF8010000208DF874
:100F6000020001208DF803006846FFF7CDFC012246
:100F700040F22551034800F0D9F907B000BD000048
:100F8000000C02400048004010B5002012490860E3
:100F900040F22551114800F009F901280FD10F48FE
:100FA00000F000FC0E490F4A127888540A490E4896
:100FB000006802F0FBF82021084800F019F8064804
:100FC000006838B14FF0805008490860BFF34F8F78
:100FD000BFF36F8F10BD00000C00002000480040E0
:100FE000D0000020020000200400002004ED00E0FA
:100FF00070B504460D46244884421AD023488442E2
:1010000017D02348844214D02248844211D0224869
:1010100084420ED0214884420BD02148844208D01B
:101020002048844205D02048844202D01F48844290
:1010300000D104E040F245511DA000F079FC4FF6CC
:101040009F40284008B905B104E040F2465118A07D
:1010500000F06EFC05F40070B0F5007F11D10A4875
:10106000844208D00948844205D00948844202D00D
:101070000A48844200D104E040F24B510CA000F039
:1010800057FCE843208070BD001001400044004040
:1010900000480040004C0040005000400014014057
:1010A00000780040007C004000180140001C014016
:1010B0005374645F506572697068447269766572D2
:1010C0005C7372635C73746D3332663478785F7509
:1010D000736172742E63000070B504460D461C489F
:1010E00084421AD01B48844217D01B48844214D033
:1010F0001A48844211D01A4884420ED019488442BA
:101100000BD01948844208D01848844205D01848AA
:10111000844202D01748844200D104E04FF4D871D1
:1011200015A000F005FC0DB1012D00D104E040F246
:10113000B11111A000F0FCFB25B1A08940F40050D2
:10114000A08104E0A0894DF6FF710840A08170BD28
:10115000001001400044004000480040004C0040A6
:10116000005000400014014000780040007C004026
:1011700000180140001C01405374645F506572699F
:1011800070684472697665725C7372635C73746DC7
:101190003332663478785F75736172742E63000041
:1011A00010B5FFF73BFEFFF787FE10BD2DE9F047B6
:1011B00004460D4600270026B046B1464748844203
:1011C0001AD04748844217D04648844214D0464833
:1011D000844211D0454884420ED0454884420BD009
:1011E0004448844208D04448844205D0434884425D
:1011F00002D04348844200D104E040F2695141A04A
:1012000000F096FB282D27D040F22770854223D08E
:1012100040F2266085421FD040F2255085421BD007
:1012200040F22440854217D040F64600854213D054
:1012300040F66A1085420FD0B5F5587F0CD040F2C9
:101240002530854208D0B5F5587F05D0B5F5187F13
:1012500002D0B5F5B07F00D104E040F26A5129A078
:1012600000F066FB40F66A10854211D11B488442AB
:1012700008D01B48844205D01A48844202D01C483A
:10128000844200D104E040F26F511EA000F050FBF8
:10129000C5F3421805F01F06012000FA06F6B8F162
:1012A000010F02D1A089064007E0B8F1020F02D178
:1012B000208A064001E0A08A06402F12012000FA91
:1012C00007F7208807401EB117B14FF0010901E070
:1012D0004FF000094846BDE8F087000000100140CB
:1012E0000044004000480040004C004000500040D6
:1012F0000014014000780040007C004000180140CC
:10130000001C01405374645F5065726970684472D8
:10131000697665725C7372635C73746D33326634C4
:1013200078785F75736172742E6300002DE9F04761
:1013300004460D4617464FF00008C246C146002637
:10134000414884421AD04148844217D040488442E0
:1013500014D04048844211D03F4884420ED03F48C8
:1013600084420BD03E48844208D03E48844205D097
:101370003D48844202D03D48844200D104E040F21E
:10138000D6413BA000F0D4FA282D19D040F22770A6
:10139000854215D040F22660854211D040F225509A
:1013A00085420DD040F22440854209D040F64600E7
:1013B000854205D040F66A10854201D0602D00D1EB
:1013C00004E040F2D7412AA000F0B2FA0FB1012F99
:1013D00000D104E04FF49B6125A000F0A9FA40F68B
:1013E0006A10854211D11848844208D017488442B7
:1013F00005D01748844202D01848844200D104E046
:1014000040F2DD411AA000F093FA2646C5F34218D7
:1014100005F01F0A012000FA0AF9B8F1010F01D105
:101420000C3605E0B8F1020F01D1103600E0143699
:1014300027B1306840EA0900306003E0306820EAF4
:1014400009003060BDE8F087001001400044004012
:1014500000480040004C0040005000400014014093
:1014600000780040007C004000180140001C014052
:101470005374645F5065726970684472697665720E
:101480005C7372635C73746D3332663478785F7545
:10149000736172742E6300002DE9FF4704460D4608
:1014A0000026B14600BFB046774884421AD077483C
:1014B000844217D07648844214D07648844211D0B2
:1014C000754884420ED0754884420BD074488442DB
:1014D00008D07448844205D07348844202D07348CF
:1014E000844200D104E04FF4807171A000F020FA32
:1014F000286820B178492868884200D204E040F288
:1015000001116BA000F014FAA88818B1A888B0F5F2
:10151000805F00D104E04FF4817165A000F008FA0B
:10152000E88858B1E888B0F5805F07D0E888B0F562
:10153000005F03D0E888B0F5405F00D104E040F2DE
:1015400003115BA000F0F4F9288938B12889B0F5BF
:10155000806F03D02889B0F5C06F00D104E04FF44C
:10156000827153A000F0E4F968894FF6F3710840E6
:1015700010B9688900B104E040F205114CA000F0F8
:10158000D7F9A88958B1A889B0F5807F07D0A88974
:10159000B0F5007F03D0A889B0F5407F00D104E00A
:1015A0004FF4837142A000F0C3F9A88988B136488E
:1015B000844208D03548844205D03548844202D060
:1015C0003648844200D104E040F20B1138A000F00C
:1015D000AFF9268A26F44056E88806432682A68973
:1015E00041F20C608643A888298908436989084329
:1015F0000643A681A68A26F44076A8890643A682D9
:101600006846FFF7D3FA2048844202D02348844238
:1016100002D1DDF80C9001E0DDF80890A08900F41B
:10162000004040B109EBC90000EB091029684900EE
:10163000B0FBF1F707E009EBC90000EB09102968DE
:101640008900B0FBF1F76420B7FBF0F00601300928
:10165000642101FB1078A08900F4004040B13220E1
:1016600000EBC800B0FBF1F000F00700064308E013
:10167000322000EB08106421B0FBF1F000F00F0005
:1016800006432681BDE8FF8700100140004400406A
:1016900000480040004C0040005000400014014051
:1016A00000780040007C004000180140001C014010
:1016B0005374645F506572697068447269766572CC
:1016C0005C7372635C73746D3332663478785F7503
:1016D000736172742E630000E170720070B504468D
:1016E0000D461C4884421AD01B48844217D01B4820
:1016F000844214D01A48844211D01A4884420ED031
:10170000194884420BD01948844208D018488442B2
:1017100005D01848844202D01748844200D104E022
:1017200040F2DF1115A000F003F90DB1012D00D139
:1017300004E04FF4F07111A000F0FAF825B1A0898F
:1017400040F40040A08103E0A089C0F30E00A08116
:1017500070BD0000001001400044004000480040FF
:10176000004C004000500040001401400078004050
:10177000007C004000180140001C01405374645F6D
:101780005065726970684472697665725C737263E1
:101790005C73746D3332663478785F75736172741C
:1017A0002E63000010B50446134884421AD0134833
:1017B000844217D01248844214D01248844211D077
:1017C000114884420ED0114884420BD01048844204
:1017D00008D01048844205D00F48844202D00F48F8
:1017E000844200D104E040F242210DA000F0A0F8B4
:1017F000A088C0F3080010BD001001400044004064
:1018000000480040004C00400050004000140140DF
:1018100000780040007C004000180140001C01409E
:101820005374645F5065726970684472697665725A
:101830005C7372635C73746D3332663478785F7591
:10184000736172742E63000070B504460D4618482B
:1018500084421AD01748844217D01748844214D0C3
:101860001648844211D0164884420ED0154884424E
:101870000BD01548844208D01448844205D014483F
:10188000844202D01348844200D104E040F2322165
:1018900011A000F04DF8B5F5007F00DA04E040F249
:1018A00033210DA000F044F8C5F30800A08070BDFE
:1018B000001001400044004000480040004C00403F
:1018C000005000400014014000780040007C0040BF
:1018D00000180140001C01405374645F5065726938
:1018E00070684472697665725C7372635C73746D60
:1018F0003332663478785F75736172742E630000DA
:1019000010B504460CE000BF0748008800F0400016
:101910000028F9D021780448FFF796FF14F8010B4E
:1019200020780028EFD110BD0010014000BFFEE775
:1019300000BFFEE703220021012001F06FFA844975
:10194000086000208349087064218348FEF739FD50
:10195000FCE000217E48006801F04CFD012876D1B2
:101960007C480078F8B97C487A490978405CD0B165
:10197000794878490978405C662802D0F5280DD16D
:1019800006E0002075490870012072490870DDE00A
:101990000120724908706F490870D7E002206F4932
:1019A000087000BF00BF6D480078002870D16A48F9
:1019B00068490978405CFF2818D0664800780528F7
:1019C00014DA64480078012810D0002061490870BA
:1019D0000220624908701C20614908705E48FFF7C8
:1019E0008FFF64215C48FEF7ECFCAFE059480078BB
:1019F000401C5849087058488078FF28D6D156486E
:101A0000C078FF28D2D154480079FF28CED10020D9
:101A100008700220514908704F48FFF771FF4E4887
:101A200040781C287ED2DFE800F00E13171B1F231E
:101A3000272B2F34383C4044484C5054585C7D6030
:101A400064686C7175790020454908706EE07CE02F
:101A500001204349087069E002204149087065E0AF
:101A600003203F49087061E004203D4908705DE0B3
:101A700005203B49087059E006203949087055E0B7
:101A800007203749087051E00820354908704DE0BB
:101A900051E009203249087048E00A2030490870B6
:101AA00044E00B202E49087040E00C202C490870BF
:101AB0003CE00D202A49087038E00E2028490870C3
:101AC00034E00F202649087030E0102024490870C7
:101AD0002CE011202249087028E0122020490870CB
:101AE00024E013201E49087020E015201C490870CE
:101AF0001CE016201A49087018E0172018490870D1
:101B000014E018201649087010E00BE01920144961
:101B100008700BE01A201249087007E01B201049DA
:101B2000087003E01C200E49087000BF00BF64214C
:101B30000948FEF746FC09480078012805D1054808
:101B40000078401C0349087000BF00BF01E7000097
:101B50000400002002000020D0000020010000202E
:101B6000000000201CB5FFF71BFBFEF7E5FC002082
:101B7000012103464FF47A72CDE9001003A1094810
:101B800001F05AFD00F0FEFF00BFFEE77875206C03
:101B9000792064617461207265762066726F6D20B1
:101BA000686D6900351900082DE9F04105460E46BB
:101BB0001C4807681C480068001D00F0B1FD50B9C2
:101BC0001948006890F82C100120884017490968CE
:101BD000814316480160681C38B936B11248016863
:101BE000091D134800F0DBFD1AE07C190E4800685F
:101BF0004460BC4207D20C480168091D0D480068CA
:101C000000F0B3FD0CE008480168091D0A480068AF
:101C100000F0ABFD09480068844201D20748046027
:101C2000BDE8F08148000020340000204C00002076
:101C3000280200203C000020380000206400002022
:101C400010B5044600F0B8FD24480068401C234944
:101C500008602348006840B92148046008460068CD
:101C600001280DD100F0E2F90AE01E48006838B9F9
:101C70001B480068C06AE16A884201D818480460BD
:101C800019480068401C184908600846006820642C
:101C900094F82C100120884014490968084313491E
:101CA0000860E16A01EB8101114A02EB8100211D0C
:101CB00000F075FD00F0AAFD0A48006868B1084808
:101CC0000068C06AE16A884207D24FF08050094933
:101CD0000860BFF34F8FBFF36F8F10BD440000202B
:101CE0003400002050000020600000204C00002044
:101CF0007401002004ED00E010B500F05DFD104817
:101D00000068D0B90F4800F020FD0F4800F01DFD1D
:101D10000C480E4908600C480D49086000220C214F
:101D20000A2001F07BF8064908600846006820B1E7
:101D300008A10348006800F029FE00F067FD10BD0F
:101D4000780000203C02002050020020700000209B
:101D500074000020546D72510000000010B516E0B0
:101D600000F02AFD0C48C068C468201D00F0D8FCB3
:101D70000A480068401E0949086009480068401E7A
:101D80000749086000F042FD204600F05FF8044873
:101D900000680028E4D110BD140200204400002097
:101DA0004000002070B504460D46206C70B1216CD7
:101DB000E0680144E160D4E90210884201D321685F
:101DC000E1602846226CE168FEF7AEFA70BD2DE9AD
:101DD000F04104460F4615464FF00008A66B206CF4
:101DE00048B9206800282CD1A06801F00FFD80467A
:101DF0000020A06025E07DB93946226C6068FEF7BE
:101E000093FA216C606808446060D4E9010188425B
:101E100017D32068606014E03946226CE068FEF752
:101E200083FA216CE068411AE1602168E068884229
:101E300003D2216CA068411AE160022D01D106B1E4
:101E4000761E701CA0634046BDE8F08110B50446C4
:101E5000206B00F0F9FC204600F0F6FC10BD0146B6
:101E60004A6A22B10A6B1268C2F1050000E0002044
:101E7000704700000146084A126812680AB9012238
:101E800000E000220A600A6822B9034A1268D26898
:101E9000106800E0002070477000002030B54FF45B
:101EA0009633174800F007042CB1C01D20F007003E
:101EB000134C041B1B1B0246124C22600024114DC4
:101EC0006C60D018083820F007000F4C2060002408
:101ED0000D4D2D686C600C4D2D682C601146441A18
:101EE0004C60094C24680C60084D4C682C60084D0F
:101EF0004C682C604FF00044064D2C6030BD000053
:101F0000640200209000002098000020A000002023
:101F10009C000020AC00002000BFFFF71FFF074817
:101F20000068012807D94FF0805005490860BFF3C9
:101F30004F8FBFF36F8F00F007FCEEE774010020B6
:101F400004ED00E02DE9F04106460D46174698469F
:101F5000069C0DB9246000E02760E663256401213A
:101F6000204600F085FF84F84C80BDE8F0812DE923
:101F7000F05F82460E4690469B460A9F0C9C4FEAB5
:101F80008801A522206BFEF714FAA8F10100216B4D
:101F900001EB800929F0070909F0070008B90120C1
:101FA00000E0002050B900BF502080F31188BFF33B
:101FB0004F8FBFF36F8F00BF00BFFEE786B10025D4
:101FC00007E0715D04F134004155705D00B902E035
:101FD0006D1C0A2DF5D300BF00213D20015502E004
:101FE000002084F83400052F00D30427E762A7649B
:101FF0000020E064201D00F0B5FB04F1180000F0A3
:10200000B1FB2461C7F10500A06164620020206576
:1020100084F854005A465146484600F06BFB206055
:102020000B9808B10B980460BDE8F09F10B5002430
:1020300007E004EB84010F4A02EB810000F085FB0E
:10204000641C052CF5D30C4800F07FFB0B4800F016
:102050007CFB0B4800F079FB0A4800F076FB0A484D
:1020600000F073FB04480949086004480849086007
:1020700010BD000074010020D8010020EC010020F8
:102080000002002014020020280200203800002056
:102090003C00002010B50146164800E000680368C7
:1020A0008B42FBD30246436813448B4204D14368FE
:1020B0004C682344436001460A464B681344046855
:1020C000A34211D10C4C03682468A34208D04B688A
:1020D0000468646823444B6003681B680B6005E078
:1020E000054B1B680B6001E003680B60884200D061
:1020F000016010BD90000020980000202DE9F04103
:1021000004460D4616461F464FF0000865602461E0
:10211000B5420CD8F01BA169884202D34FF00108E8
:1021200011E0211D0948006800F01FFB0BE0BE42D2
:1021300004D2BD4202D34FF0010804E0211D04483F
:10214000006800F012FB4046BDE8F08174000020FA
:102150007000002070B5054600F02EFBA86B08B992
:10216000012400E0002400F051FB204670BD70B552
:10217000054600F021FBA86BE96B884201D10124E0
:1021800000E0002400F042FB204670BDF8B5054693
:102190000F461A480068C068C468201D00F0C0FAE5
:1021A00094F8280000F00400E8B1A06941192B461A
:1021B0003A462046FFF7A2FFD8B1002003462A4640
:1021C00001460090204601F0DBFC064656B900BFF0
:1021D000502080F31188BFF34F8FBFF36F8F00BF84
:1021E00000BFFEE705E094F8280020F0010084F825
:1021F00028002046216A8847F8BD000070000020B2
:1022000070B586B08BE003980028FBDB059C606905
:1022100008B9012000E0002010B9201D00F080FA6C
:1022200002A800F0DDF8054603980A2875D2DFE819
:1022300000F009050739416306083A4200BF00BFB4
:1022400000BF00BF94F8280040F0010084F8280087
:102250000498A269811803462A462046FFF74EFFDC
:10226000F8B12046216A884794F8280000F004005D
:10227000B8B1002000900498A169421800231946C3
:10228000204601F07DFC064656B900BF502080F381
:102290001188BFF34F8FBFF36F8F00BF00BFFEE702
:1022A00000BF3BE000BF94F8280020F0010084F854
:1022B000280033E000BF94F8280040F0010084F8C3
:1022C00028000498A061A06908B1012000E0002066
:1022D00050B900BF502080F31188BFF34F8FBFF378
:1022E0006F8F00BF00BFFEE7A06941192B462A4649
:1022F0002046FFF703FF11E094F8280000F00200E9
:1023000018B9204600F0A0FA05E094F8280020F063
:10231000010084F8280001E0FFE700BF00BF0022B1
:1023200003A90448006800F0B1FF00287FF46BAFF8
:1023300006B070BD78000020F8B505460C4600F0E8
:102340006BFC684600F04CF80646009820BB44B988
:10235000B54206D801F066FB31462846FFF716FF66
:102360001CE03CB10E480068006808B9012000E09C
:1023700000200446A91B22460A48006800F01CFB06
:1023800001F050FB50B94FF0805007490860BFF38F
:102390004F8FBFF36F8F01E001F044FBF8BD0000E9
:1023A000740000207800002004ED00E00A4909686C
:1023B000096809B9012100E0002121B14FF0FF3186
:1023C000064A116006E004490968C968C868034AFA
:1023D0004168116070470000380000206400002050
:1023E00070B5044601F068F9054607480068854263
:1023F00004D200F00BF80120206001E000202060F2
:1024000001480560284670BD800000202DE9F84392
:1024100034E025480068C068056823480068C06843
:10242000C468201D00F07CF92046216A884794F892
:10243000280000F0040008B3A0694619AE4207D98D
:1024400066602461211D1848006800F08EF915E0CF
:10245000002003462A4601460090204601F090FBEA
:10246000074657B900BF502080F31188BFF34F8F44
:10247000BFF36F8F00BF00BFFEE700BF0A480068D0
:10248000006808B9012000E000200028C1D00648FB
:10249000D0F8008005480068034908600348C0F888
:1024A0000080BDE8F8830000700000207400002068
:1024B0000E480068401C08B9012000E0002050B917
:1024C00000BF502080F31188BFF34F8FBFF36F8F91
:1024D00000BF00BFFEE700BF502080F31188BFF3AC
:1024E0004F8FBFF36F8F00BF00BFFEE78400002057
:1024F00008B500BF6846FFF7BDFC044620460099BA
:10250000FFF71AFFFFF77CFEF4E770B5044600F012
:1025100053F994F9455010E0606A08B9012000E0D1
:10252000002038B904F1240001F030FA18B100F0AD
:1025300075FA00E003E0681E45B2002DECDC00BF38
:10254000FF2084F8450000F061F900F035F994F9B6
:10255000445010E0206908B9012000E0002048B98B
:1025600004F1100001F012FA08B100F057FA681EE9
:1025700045B200E001E0002DECDC00BFFF2084F854
:10258000440000F043F970BD2DE9F04104464FF0DE
:10259000000800F041FB4948006808B9FFF77EFCDD
:1025A000474800682040002870D1D4B1083404F0B6
:1025B0000700B0B104F00700C0F10800044404F0C3
:1025C000070008B9012000E0002050B900BF5020EA
:1025D00080F31188BFF34F8FBFF36F8F00BF00BF31
:1025E000FEE7002C52D03748006884424ED8364E61
:1025F0003046056801E02E462D686868A04202D288
:1026000028680028F7D12D48006885423ED0306800
:1026100000F10808286830606868001B102819D984
:102620002F1907F0070008B9012000E0002050B979
:1026300000BF502080F31188BFF34F8FBFF36F8F1F
:1026400000BF00BFFEE76868001B78606C6038461A
:10265000FFF720FD1B4968680968081A19490860D6
:102660000846006819490968884203D2154800687D
:1026700016490860124968680968084368600020C4
:10268000286013480068401C1149086001F0CAF92D
:1026900008F0070008B9012000E0002050B900BF91
:1026A000502080F31188BFF34F8FBFF36F8F00BFAF
:1026B00000BFFEE74046BDE8F08100009800002022
:1026C000AC0000209C00002090000020A000002012
:1026D000A40000200648006830B10549096801F1EE
:1026E0004C00C96C491C016001480068704700003B
:1026F00034000020001F4FF080730360001F21F0A2
:1027000001030360001F054B036014380260001FC3
:102710006FF002030360203870470000B124000806
:1027200001460A69D1E901309860D1E90103586096
:102730005068884201D188685060002008611068A4
:10274000401E106010687047704700F1080141603A
:102750004FF0FF31816000F10801C160016100218B
:102760000160704700210161704710B502460B6897
:102770005C1C0CB9106907E002F1080000E0406839
:10278000446824689C42FAD944684C604C68A16053
:10279000886041600A611468641C146010BD42685E
:1027A0004A6093688B609368596091600861036820
:1027B0005B1C03607047000000BF502080F311884D
:1027C000BFF34F8FBFF36F8F00BF0E480068401CF0
:1027D0000C49086008460068012812D10A480068C0
:1027E000C0B208B9012000E0002050B900BF50205D
:1027F00080F31188BFF34F8FBFF36F8F00BF00BF0F
:10280000FEE770478400002004ED00E00D480068FA
:1028100050B900BF502080F31188BFF34F8FBFF332
:102820006F8F00BF00BFFEE706480068401E0549E5
:1028300008600846006820B9002080F3118800BFB6
:1028400000BF70478400002070B506463546002E54
:1028500044D0083D2C46224960680968084008B108
:10286000012000E0002050B900BF502080F3118803
:10287000BFF34F8FBFF36F8F00BF00BFFEE720682D
:1028800008B9012000E0002050B900BF502080F3BB
:102890001188BFF34F8FBFF36F8F00BF00BFFEE7FC
:1028A0000F49606809680840C0B12068B0B90C4998
:1028B000606809688843606000F0AEF909496068A3
:1028C00009680844074908602046FFF7E3FB06480B
:1028D0000068401C0449086001F0A4F870BD0000C5
:1028E000AC0000209C000020A800002000204FF039
:1028F000E02108618861064800684FF47A71B0FBF6
:10290000F1F0401E4FF0E021486107200861704758
:102910001000002070B5FDF7E3FC0446102C16D320
:1029200004F1E02090F8F05315480078854201DB6F
:10293000012000E0002050B900BF502080F3118832
:10294000BFF34F8FBFF36F8F00BF00BFFEE70D488F
:10295000006800F4E0600C490968884201D8012051
:1029600000E0002050B900BF502080F31188BFF371
:102970004F8FBFF36F8F00BF00BFFEE770BD000039
:10298000880000200CED00E08C00002002460020B2
:102990000BE0084B53F8303033B9064B43F8301096
:1029A00003EBC0035A6002E0401C0828F1D300BFCB
:1029B00070470000340100202DE9F04105460E4625
:1029C00017462C46FFF7F8FE94F94400401C10B956
:1029D000002084F8440094F94500401C10B9002000
:1029E00084F84500FFF712FFA06B28B93A4631463C
:1029F00004F1240000F034F82046FFF786FDBDE81E
:102A0000F0810000034909680160034909684160D9
:102A1000704700005C0000204800002001200149B0
:102A2000086070475800002070B504460D4654B940
:102A300000BF502080F31188BFF34F8FBFF36F8F1B
:102A400000BF00BFFEE70548016818312046FFF7C8
:102A50008CFE01212846FFF7A7F870BD3400002046
:102A600070B505460E46144655B900BF502080F398
:102A70001188BFF34F8FBFF36F8F00BF00BFFEE71A
:102A80000648016818312846FFF789FE0CB14FF05F
:102A9000FF3621463046FFF787F870BD340000202E
:102AA0002DE9F04706460F4634464FF00109002E47
:102AB00060D0E06C50B900BF502080F31188BFF3A4
:102AC0004F8FBFF36F8F00BF00BFFEE7A06CB8420F
:102AD00001D23D4600E0A56CE06AA8424AD0E06C15
:102AE000012847D124480068844201D0012000E039
:102AF000002050B900BF502080F31188BFF34F8FE2
:102B0000BFF36F8F00BF00BFFEE7D4F82C80E562F3
:102B1000A06900F0004010B9C5F10500A06108EB04
:102B20008801164A02EB81016069884201D10120C7
:102B300000E00020F0B1201DFFF7F2FD40B994F84D
:102B40002C10012088400E49096881430C4801601F
:102B500094F82C1001208840094909680843084965
:102B60000860E16A01EB8101044A02EB8100211D4A
:102B7000FFF715FEBDE8F087340000207401002047
:102B80004C0000201CB51D4800210B468222CDE9D7
:102B900000101BA11C4800F04FFD0446012C02D17F
:102BA00000F0C2FF0446012C15D100BF502080F375
:102BB0001188BFF34F8FBFF36F8F00BF4FF0FF300F
:102BC000124908600120124908600020114908607C
:102BD00000F070F810E0601C08B1012000E0002057
:102BE00050B900BF502080F31188BFF34F8FBFF35F
:102BF0006F8F00BF00BFFEE71CBD00006800002013
:102C000049444C4500000000191F000864000020E2
:102C1000500000204800002002480068401C014984
:102C2000086070476C0000201D48006818B1012042
:102C30001C49086032E000201A4908601A48006800
:102C4000B0FA80F0C0F11F0101EB8100174A52F881
:102C5000200008B1012000E0002050B900BF502042
:102C600080F31188BFF34F8FBFF36F8F00BF00BF9A
:102C7000FEE701EB81020D4B03EB820042685268D4
:102C8000426000F108024368934202D142685268F0
:102C900042604268D268064B1A6000BF704700006D
:102CA0006C000020580000204C000020740100201F
:102CB000340000201CB5524800685249884201D0B7
:102CC000012000E0002050B900BF502080F311889F
:102CD000BFF34F8FBFF36F8F00BF00BFFEE74848C1
:102CE00000684849491E884201D0012000E00020C8
:102CF00050B900BF502080F31188BFF34F8FBFF34E
:102D00006F8F00BF00BFFEE73F4908460078019083
:102D1000FF200A4610700846007800909DF80000D9
:102D200000F0F0009DF80020904201D1012000E069
:102D3000002050B900BF502080F31188BFF34F8F9F
:102D4000BFF36F8F00BF00BFFEE79DF8000000F0EB
:102D500050002E4A107007202D4A106009E02C48C0
:102D60000068401E2A4A10609DF800004006000ED0
:102D700000909DF8000000F080008028EFD02448EB
:102D80000068C0F10700042801D1012000E0002004
:102D900050B900BF502080F31188BFF34F8FBFF3AD
:102DA0006F8F00BF00BFFEE7194800680002184A95
:102DB00010601046008800F4E0601060124A01982C
:102DC00010700F482030006840F470000C4920312A
:102DD00008600846006840F070400860FFF786FD14
:102DE00000200C490860FDF743FA0B48006840F0EA
:102DF000404009490860FDF727FA00201CBD00008B
:102E000000ED00E071C20F4100E400E08800002006
:102E10008C0000208400002034EF00E02DE9F8430E
:102E200005460E4617460DB1012000E0002050B9BE
:102E300000BF502080F31188BFF34F8FBFF36F8F17
:102E400000BF00BFFEE705FB06F808F15000FFF7E2
:102E50009BFB04464CB1A14609F150093B464A464A
:102E6000314628460094FFF76DF82046BDE8F88308
:102E700070B505460E462C4654B900BF502080F36D
:102E80001188BFF34F8FBFF36F8F00BF00BFFEE706
:102E9000FFF792FCD4E90F12206801FB0200A0604A
:102EA0000020A06320686060E06B401E226C2168F7
:102EB00000FB0211E160FF2084F8440084F8450023
:102EC0009EB9206908B9012000E00020A8B904F1EA
:102ED000100000F05BFD80B14FF0805009490860A0
:102EE000BFF34F8FBFF36F8F07E004F11000FFF7C0
:102EF0002CFC04F12400FFF728FCFFF787FC0120DD
:102F000070BD000004ED00E02DE9FF4383B00646EC
:102F100088461D464FF00009344654B900BF502082
:102F200080F31188BFF34F8FBFF36F8F00BF00BFD7
:102F3000FEE7B8F1000F01D1206C08B9012000E0D4
:102F4000002050B900BF502080F31188BFF34F8F8D
:102F5000BFF36F8F00BF00BFFEE7022D02D1E06B11
:102F6000012801D1012000E0002050B900BF50200D
:102F700080F31188BFF34F8FBFF36F8F00BF00BF87
:102F8000FEE700F089FB08B9059808B9012000E0C8
:102F9000002050B900BF502080F31188BFF34F8F3D
:102FA000BFF36F8F00BF00BFFEE700BFFFF704FC59
:102FB000A06BE16B884201D3022D28D12A464146FD
:102FC0002046FEF704FF0746606A08B9012000E0CA
:102FD000002068B904F1240000F0D8FC88B14FF05B
:102FE000805032490860BFF34F8FBFF36F8F08E006
:102FF0003FB14FF080502D490860BFF34F8FBFF3B2
:103000006F8FFFF703FC012007B0BDE8F083059840
:1030100018B9FFF7FBFB0020F6E7B9F1000F04D168
:1030200001A8FFF7EFFC4FF00109FFF7EFFBFFF7F7
:10303000F3FDFFF7C1FB94F94400401C10B90020D8
:1030400084F8440094F94500401C10B9002084F82D
:103050004500FFF7DBFB05A901A800F0A7FAF0B9CE
:103060002046FFF784F8A0B104F110000599FFF79E
:10307000DBFC2046FFF749FA00F0D4FC002895D18C
:103080004FF0805009490860BFF34F8FBFF36F8F37
:103090008CE72046FFF739FA00F0C4FC86E72046AB
:1030A000FFF733FA00F0BEFC0020ADE704ED00E0CE
:1030B0002DE9F84F07468A4690461E463C4654B9CD
:1030C00000BF502080F31188BFF34F8FBFF36F8F85
:1030D00000BF00BFFEE7BAF1000F01D1206C08B9B4
:1030E000012000E0002050B900BF502080F311887B
:1030F000BFF34F8FBFF36F8F00BF00BFFEE7022EFD
:1031000002D1E06B012801D1012000E0002050B97C
:1031100000BF502080F31188BFF34F8FBFF36F8F34
:1031200000BF00BFFEE7FFF7F5FB00BF5021EFF344
:10313000118081F31188BFF34F8FBFF36F8F00BFF2
:103140000546A06BE16B884201D3022E25D194F98C
:1031500045B0A06B0090324651462046FEF737FE40
:103160000BF1010088B9606A08B9012000E0002075
:1031700050B904F1240000F009FC28B1B8F1000FA7
:1031800002D00120C8F8000004E00BF1010040B2B9
:1031900084F845004FF0010901E04FF0000900BF3D
:1031A00085F3118800BF4846BDE8F88F2DE9F04748
:1031B00006460F46344654B900BF502080F31188AC
:1031C000BFF34F8FBFF36F8F00BF00BFFEE7206CD0
:1031D00008B9012000E0002050B900BF502080F362
:1031E0001188BFF34F8FBFF36F8F00BF00BFFEE7A3
:1031F000206808B9A06808B9012000E0002050B993
:1032000000BF502080F31188BFF34F8FBFF36F8F43
:1032100000BF00BFFEE7FFF77DFB00BF5021EFF3CB
:10322000118081F31188BFF34F8FBFF36F8F00BF01
:103230000546D4F83890E06B48451ED994F945A06E
:1032400009F10100A0630AF1010070B9606A08B9D0
:10325000012000E0002068B904F1240000F096FB92
:1032600040B13FB10120386004E00AF1010040B2F2
:1032700084F845004FF0010801E04FF0000800BF5E
:1032800085F3118800BF4046BDE8F0872DE9F7417E
:1032900083B005460E464FF000082C4654B900BFD7
:1032A000502080F31188BFF34F8FBFF36F8F00BFA3
:1032B00000BFFEE70EB9206C08B9012000E0002035
:1032C00050B900BF502080F31188BFF34F8FBFF378
:1032D0006F8F00BF00BFFEE700F0DEF908B9059868
:1032E00008B9012000E0002050B900BF502080F351
:1032F0001188BFF34F8FBFF36F8F00BF00BFFEE792
:1033000000BFFFF759FAA76BF7B131462046FEF729
:1033100049FD781EA063206908B9012000E0002063
:1033200060B904F1100000F031FB38B14FF080506B
:103330002F490860BFF34F8FBFF36F8FFFF766FA17
:10334000012006B0BDE8F081059818B9FFF75EFAD4
:103350000020F6E7B8F1000F04D101A8FFF752FBF7
:103360004FF00108FFF752FAFFF756FCFFF724FA77
:1033700094F94400401C10B9002084F8440094F9EA
:103380004500401C10B9002084F84500FFF73EFAC4
:1033900005A901A800F00AF9F0B92046FEF7DAFE07
:1033A000A0B104F124000599FFF73EFB2046FFF78A
:1033B000ACF800F037FB0028A3D14FF080500C4947
:1033C0000860BFF34F8FBFF36F8F9AE72046FFF778
:1033D0009CF800F027FB94E72046FFF796F800F0F2
:1033E00021FB2046FEF7B6FE00288AD00020A8E781
:1033F00004ED00E02DE9F34182B005464FF00008EE
:103400002C46002654B900BF502080F31188BFF32A
:103410004F8FBFF36F8F00BF00BFFEE7206C08B96E
:10342000012000E0002050B900BF502080F3118837
:10343000BFF34F8FBFF36F8F00BF00BFFEE700F0F9
:103440002BF908B9039808B9012000E0002050B911
:1034500000BF502080F31188BFF34F8FBFF36F8FF1
:1034600000BF00BFFEE700BFFFF7A6F9A76BFFB1E3
:10347000781EA063206810B9FFF72CF9A0602069BE
:1034800008B9012000E0002060B904F1100000F04C
:103490007DFA38B14FF0805043490860BFF34F8F39
:1034A000BFF36F8FFFF7B2F9012004B0BDE8F081E0
:1034B000039898B90EB9012000E0002050B900BF70
:1034C000502080F31188BFF34F8FBFF36F8F00BF81
:1034D00000BFFEE7FFF79AF90020E6E7B8F1000F1A
:1034E00004D16846FFF78EFA4FF00108FFF78EF916
:1034F000FFF792FBFFF760F994F94400401C10B904
:10350000002084F8440094F94500401C10B90020C4
:1035100084F84500FFF77AF903A9684600F046F8F9
:1035200040BB2046FEF716FEF0B1206838B9FFF721
:1035300043F9A06800F0CEF90646FFF767F904F1F9
:1035400024000399FFF770FA2046FEF7DEFF00F033
:1035500069FA002888D14FF0805013490860BFF302
:103560004F8FBFF36F8F7FE72046FEF7CEFF00F04F
:1035700059FA79E72046FEF7C8FF00F053FA2046D3
:10358000FEF7E8FD0028EED05EB1FFF715F9204602
:10359000FEF765FC07463946A068FFF781FAFFF79A
:1035A00035F9002081E7000004ED00E070B5054624
:1035B0000C4655B900BF502080F31188BFF34F8FE0
:1035C000BFF36F8F00BF00BFFEE754B900BF5020AC
:1035D00080F31188BFF34F8FBFF36F8F00BF00BF21
:1035E000FEE7FFF7E9F8124802686868131A2068D6
:1035F000401C08B9002617E00E492868096888426F
:1036000004D06868904201D801260DE020689842F5
:1036100007D92068C01A20602846FFF7F3F9002672
:1036200002E0002020600126FFF7F0F8304670BD70
:10363000480000205C0000202DE9FF4F85B0804647
:1036400089461746DDE912ABB800FEF79DFF064636
:1036500056B15820FEF798FF04460CB1266304E0EB
:103660003046FFF7F1F800E000247CB10020CDE9FE
:1036700000ABCDE902403A4649464046089BFEF77A
:1036800076FC2046FEF7DCFA012501E04FF0FF351D
:10369000284609B0BDE8F08F0549096809B901203D
:1036A00005E00449096809B9022000E000207047DC
:1036B000500000206C00002001490868704700009D
:1036C000480000202DE9F0414FF000084448006810
:1036D00000287CD143480068451C4248056015BB62
:1036E00041480068006808B9012000E0002050B996
:1036F00000BF502080F31188BFF34F8FBFF36F8F4F
:1037000000BF00BFFEE73848076838480068364900
:1037100008603648076036480068401C3449086035
:10372000FEF744FE00BF3348006885423CD300BF2B
:103730002D480068006808B9012000E0002020B191
:103740004FF0FF302B4908602DE027480068C06823
:10375000C4686668B54202D22648066023E0201D90
:10376000FEF7DEFFA06A18B104F11800FEF7D8FFDB
:1037700094F82C10012088401F49096808431E490D
:103780000860E16A01EB81011C4A02EB8100211D06
:10379000FFF705F81A49E06A0968C96A8842C7D381
:1037A0004FF00108C4E700BF15480068C06A00EB8D
:1037B0008000124951F82000012801D94FF001087A
:1037C0001048006808B14FF0010805E0FFE70E4817
:1037D0000068401C0C4908604046BDE8F0810000CC
:1037E0006C00002048000020380000203C00002031
:1037F0005C000020640000204C00002074010020C8
:1038000034000020580000205400002070B5054608
:103810002C460026002D55D02B480068844201D14B
:10382000012000E0002050B900BF502080F3118833
:10383000BFF34F8FBFF36F8F00BF00BFFEE7E06C99
:1038400050B900BF502080F31188BFF34F8FBFF3F2
:103850006F8F00BF00BFFEE7E06C401EE064A16C0C
:10386000E06A88422ED0E06C60BB201DFEF758FF56
:1038700078B9E06A00EB8000144951F8200040B9A3
:1038800094F82C10012088401149096881431048A0
:103890000160A06CE062E06AC0F10500A06194F8EC
:1038A0002C10012088400A4909680843084908602B
:1038B000E16A01EB8101054A02EB8100211DFEF75F
:1038C0006EFF0126304670BD3400002074010020D8
:1038D0004C00002070B505462C460026002D4DD02A
:1038E0002749E06A0968C96A884240D2A06900F0A5
:1038F000004028B922480068C06AC0F10500A061F4
:10390000E16A01EB81011F4A02EB81016069884293
:1039100001D1012000E0002018B3201DFEF700FFB8
:1039200040B994F82C100120884017490968814358
:103930001548016012480068C06AE06294F82C10D3
:10394000012088401049096808430F490860E16A6E
:1039500001EB81010B4A02EB8100211DFEF71FFFE5
:1039600003E007480068C06AE062012606E00449F7
:10397000A06C0968C96A884200D20126304670BD31
:1039800034000020740100204C00002070B5064671
:10399000F068C46854B900BF502080F31188BFF3A9
:1039A0004F8FBFF36F8F00BF00BFFEE704F1180019
:1039B000FEF7B6FE15480068A8B9201DFEF7B0FE58
:1039C00094F82C10012088401149096808431049D7
:1039D0000860E16A01EB81010E4A02EB8100211DC2
:1039E000FEF7DDFE04E004F118010B48FEF7D7FEF8
:1039F0000A49E06A0968C96A884204D90125012098
:103A00000749086000E00025284670BD6C000020D2
:103A10004C0000207401002000020020340000202F
:103A20005800002070B5002400263648006850B9C0
:103A300000BF502080F31188BFF34F8FBFF36F8F0B
:103A400000BF00BFFEE7FEF7B7FE2E480068401E2D
:103A50002C4908600846006800284FD12A480068B1
:103A600000284BD024E02948C068C46804F118003D
:103A7000FEF756FE201DFEF753FE94F82C10012091
:103A8000884023490968084321490860E16A01EB3D
:103A90008101204A02EB8100211DFEF780FE1E49B4
:103AA000E06A0968C96A884202D301201B4908609C
:103AB0001648006808B9012000E000200028D2D094
:103AC0000CB1FEF773FC1648056865B100BFFFF73F
:103AD000F9FD10B10120114908606D1E002DF6D1CD
:103AE00000200F4908600D48006838B101263007F2
:103AF0000C490860BFF34F8FBFF36F8FFEF786FE50
:103B0000304670BD6C000020440000200002002000
:103B10004C000020740100203400002058000020D8
:103B20005400002004ED00E01CB50024FEF7E4F88A
:103B30000E48006858B10E48022100234FF48272EB
:103B4000CDE900100BA10D48FFF776FD044654B9EE
:103B500000BF502080F31188BFF34F8FBFF36F8FEA
:103B600000BF00BFFEE720461CBD0000780000201B
:103B70007C000020546D722053766300F12400080D
:103B80002DE9FE4304460D4616461F46DDF8288003
:103B90004FF0000954B900BF502080F31188BFF3E3
:103BA0004F8FBFF36F8F00BF00BFFEE71448006860
:103BB00010B3009501960294062D15DAFFF76CFDFF
:103BC000022808D10023424669460D480068FFF7E5
:103BD0009BF9814610E000231A46694608480068B0
:103BE000FFF792F9814607E000233A466946044808
:103BF0000068FFF75DFA81464846BDE8FE83000095
:103C0000780000204FF04070E1EE100A704700008D
:103C1000303C000800000020B0000000C401000893
:103C2000E03C0008B000002018340100E00100086A
:103C30001C02000000000000050000000000000061
:103C4000007A030A000000000000000001020304E3
:103C50000607080900000000010203040102030432
:103C60000607080900000000000000000000000036
:103C70000000000000000000000000000000000044
:103C80000000000000000000000000000000000034
:103C90000000000000000000000000000000000024
:103CA0000000000000000000000000000000000014
:103CB00000000000AAAAAAAA00000000000000005C
:103CC00000000000000000000000000000000000F4
:103CD00000000000000000000000000000000000E4
:04000005080002E904
:00000001FF
